:020000040800F2
:1000000000000520DD3B0008E53A0008E73A00085B
:10001000E93A0008EB3A0008ED3A00080000000059
:10002000000000000000000000000000EF3A00089F
:10003000F13A000800000000F33A0008F53A000821
:100040002D3C00082D3C00082D3C00082D3C0008EC
:100050002D3C00082D3C00082D3C00082D3C0008DC
:100060002D3C00082D3C00082D3C00082D3C0008CC
:100070002D3C00082D3C00082D3C00082D3C0008BC
:100080002D3C00082D3C00082D3C00082D3C0008AC
:100090002D3C00082D3C00082D3C00082D3C00089C
:1000A0002D3C00082D3C00082D3C00082D3C00088C
:1000B0002D3C00082D3C00082D3C00082D3C00087C
:1000C0002D3C00082D3C00082D3C00082D3C00086C
:1000D0002D3C00082D3C00082D3C00082D3C00085C
:1000E0002D3C00082D3C00082D3C00082D3C00084C
:1000F0002D3C00082D3C00082D3C00082D3C00083C
:100100002D3C00082D3C00082D3C00082D3C00082B
:100110002D3C00082D3C00082D3C00082D3C00081B
:100120002D3C00082D3C00082D3C00082D3C00080B
:100130002D3C00082D3C00082D3C00082D3C0008FB
:100140002D3C00082D3C00082D3C0008FD3A00081D
:100150002D3C00082D3C00082D3C00082D3C0008DB
:100160002D3C00082D3C00082D3C00082D3C0008CB
:100170002D3C00082D3C00082D3C0008000000002C
:100180002D3C00082D3C00082D3C00082D3C0008AB
:100190002D3C00082D3C00082D3C00082D3C00089B
:1001A0002D3C00082D3C00082D3C00082D3C00088B
:1001B0002D3C00082D3C00082D3C00082D3C00087B
:0801C0002D3C00082D3C000855
:1001D00010F8012B11F8013B012A28BF9A42F7D0F1
:1001E000D01A70470000000000000000000000006E
:1001F00001F0FF01102A2BDB10F0070F08D010F8D8
:10020000013B013A8B422DD010F0070F42B3F6D1DB
:10021000F0B441EA012141EA014122F007047FF0F4
:1002200000070023F0E80256083C85EA010586EA4B
:10023000010685FA47F5A3FA87F586FA47F6A5FA87
:1002400087F68EB9EED1F0BC01F0FF0102F0070293
:1002500032B110F8013B013A83EA010313B1F8D13E
:100260000020704701387047002D06BF354603381F
:10027000073815F0010F07D1013015F4807F02BF58
:10028000013015F4C03F0130F0BC0138704700BFA9
:10029000034613F8012B002AFBD1181A01387047C6
:1002A00081F0004102E000BF83F0004330B54FEA27
:1002B00041044FEA430594EA050F08BF90EA020F94
:1002C0001FBF54EA000C55EA020C7FEA645C7FEA27
:1002D000655C00F0E2804FEA5454D4EB5555B8BF4A
:1002E0006D420CDD2C4480EA020281EA030382EABB
:1002F000000083EA010180EA020281EA0303362D4D
:1003000088BF30BD11F0004F4FEA01314FF4801C1F
:100310004CEA113102D0404261EB410113F0004F31
:100320004FEA03334CEA133302D0524263EB4303E8
:1003300094EA050F00F0A780A4F10104D5F1200E86
:100340000DDB02FA0EFC22FA05F2801841F10001E1
:1003500003FA0EF2801843FA05F359410EE0A5F1B5
:1003600020050EF1200E012A03FA0EFC28BF4CF0E6
:10037000020C43FA05F3C01851EBE37101F000459C
:1003800007D54FF0000EDCF1000C7EEB00006EEBA9
:100390000101B1F5801F1BD3B1F5001F0CD3490833
:1003A0005FEA30004FEA3C0C04F101044FEA44528A
:1003B00012F5800F80F09A80BCF1004F08BF5FEA11
:1003C000500C50F1000041EB045141EA050130BDF1
:1003D0005FEA4C0C404141EB0101013C28BFB1F503
:1003E000801FE9D291F0000F04BF01460020B1FA4E
:1003F00081F308BF2033A3F10B03B3F120020CDA21
:100400000C3208DD02F1140CC2F10C0201FA0CF0FE
:1004100021FA02F10CE002F11402D8BFC2F1200C63
:1004200001FA02F120FA0CFCDCBF41EA0C01904019
:10043000E41AA2BF01EB0451294330BD6FEA040462
:100440001F3C1CDA0C340EDC04F11404C4F120024D
:1004500020FA04F001FA02F340EA030021FA04F35F
:1004600045EA030130BDC4F10C04C4F1200220FAB6
:1004700002F001FA04F340EA0300294630BD21FAF4
:1004800004F0294630BD94F0000F83F4801306BFBA
:1004900081F480110134013D4EE77FEA645C18BFAE
:1004A0007FEA655C29D094EA050F08BF90EA020F45
:1004B00005D054EA000C04BF1946104630BD91EA3D
:1004C000030F1EBF0021002030BD5FEA545C05D140
:1004D0004000494128BF41F0004130BD14F580047F
:1004E0003CBF01F5801130BD01F0004545F0FE41F3
:1004F00041F470014FF0000030BD7FEA645C1ABF28
:10050000194610467FEA655C1CBF0B46024650EA5E
:10051000013406BF52EA033591EA030F41F400218A
:1005200030BD00BF90F0000F04BF0021704730B510
:100530004FF4806404F132044FF000054FF00001E5
:1005400050E700BF90F0000F04BF0021704730B5A6
:100550004FF4806404F1320410F0004548BF40427B
:100560004FF000013EE700BF42004FEAE2014FEAD0
:1005700031014FEA02701FBF12F07F4393F07F4FAB
:1005800081F06051704732F07F4208BF704793F0AE
:100590007F4F04BF41F40021704730B54FF46074C1
:1005A00001F0004521F000411CE700BF50EA0102C4
:1005B00008BF704730B54FF000050AE050EA01026D
:1005C00008BF704730B511F0004502D5404261EBDD
:1005D00041014FF4806404F132045FEA915C3FF41E
:1005E000D8AE4FF003025FEADC0C18BF03325FEABB
:1005F000DC0C18BF033202EBDC02C2F1200300FA6C
:1006000003FC20FA02F001FA03FE40EA0E0021FA90
:1006100002F11444BDE600BF70B54FF0FF0C4CF47E
:10062000E06C1CEA11541DBF1CEA135594EA0C0F30
:1006300095EA0C0F00F0DEF82C4481EA030621EA6B
:100640004C5123EA4C5350EA013518BF52EA0335A6
:1006500041F4801143F4801338D0A0FB02CE4FF058
:100660000005E1FB02E506F00042E0FB03E54FF088
:100670000006E1FB03569CF0000F18BF4EF0010E80
:10068000A4F1FF04B6F5007F64F5407404D25FEA7C
:100690004E0E6D4146EB060642EAC62141EA55512F
:1006A0004FEAC52040EA5E504FEACE2EB4F1FD0C71
:1006B00088BFBCF5E06F1ED8BEF1004F08BF5FEAEF
:1006C000500E50F1000041EB045170BD06F00046A1
:1006D00046EA010140EA020081EA0301B4EB5C044E
:1006E000C2BFD4EB0C0541EA045170BD41F4801146
:1006F0004FF0000E013C00F3AB8014F1360FDEBF6B
:10070000002001F0004170BDC4F10004203C35DA46
:100710000C341BDC04F11404C4F1200500FA05F3C9
:1007200020FA04F001FA05F240EA020001F000426A
:1007300021F0004110EBD37021FA04F642EB0601E0
:100740005EEA430E08BF20EAD37070BDC4F10C040A
:10075000C4F1200500FA04F320FA05F001FA04F2CE
:1007600040EA020001F0004110EBD37041F10001BA
:100770005EEA430E08BF20EAD37070BDC4F12005C5
:1007800000FA05F24EEA020E20FA04F301FA05F22D
:1007900043EA020321FA04F001F0004121FA04F2D5
:1007A00020EA020000EBD3705EEA430E08BF20EAA5
:1007B000D37070BD94F0000F0FD101F000464000DF
:1007C00041EB010111F4801F08BF013CF7D041EA61
:1007D000060195F0000F18BF704703F00046520065
:1007E00043EB030313F4801F08BF013DF7D043EA36
:1007F0000603704794EA0C0F0CEA135518BF95EAEC
:100800000C0F0CD050EA410618BF52EA4306D1D172
:1008100081EA030101F000414FF0000070BD50EA91
:10082000410606BF1046194652EA430619D094EA1B
:100830000C0F02D150EA013613D195EA0C0F05D105
:1008400052EA03361CBF104619460AD181EA030159
:1008500001F0004141F0FE4141F470014FF0000011
:1008600070BD41F0FE4141F4780170BD70B54FF0AC
:10087000FF0C4CF4E06C1CEA11541DBF1CEA13552C
:1008800094EA0C0F95EA0C0F00F0A7F8A4EB05040E
:1008900081EA030E52EA03354FEA013100F0888005
:1008A0004FEA03334FF0805545EA131343EA1263CE
:1008B0004FEA022245EA111545EA10654FEA002683
:1008C0000EF000419D4208BF964244F1FD0404F53C
:1008D000407402D25B084FEA3202B61A65EB030598
:1008E0005B084FEA32024FF480104FF4002CB6EB55
:1008F000020E75EB030E22BFB61A754640EA0C00D5
:100900005B084FEA3202B6EB020E75EB030E22BF14
:10091000B61A754640EA5C005B084FEA3202B6EB55
:10092000020E75EB030E22BFB61A754640EA9C0014
:100930005B084FEA3202B6EB020E75EB030E22BFE4
:10094000B61A754640EADC0055EA060E18D04FEAA2
:10095000051545EA16754FEA06164FEAC30343EA42
:1009600052734FEAC2025FEA1C1CC0D111F4801F0F
:100970000BD141EA00014FF000004FF0004CB6E708
:1009800011F4801F04BF01430020B4F1FD0C88BFA7
:10099000BCF5E06F3FF6AFAEB5EB030C04BFB6EBB2
:1009A000020C5FEA500C50F1000041EB045170BDA5
:1009B0000EF0004E4EEA113114EB5C04C2BFD4EBD2
:1009C0000C0541EA045170BD41F480114FF0000E56
:1009D000013C90E645EA060E8DE60CEA135594EAD2
:1009E0000C0F08BF95EA0C0F3FF43BAF94EA0C0FD5
:1009F0000AD150EA01347FF434AF95EA0C0F7FF44A
:100A000025AF104619462CE795EA0C0F06D152EA9D
:100A100003353FF4FDAE1046194622E750EA410681
:100A200018BF52EA43067FF4C5AE50EA41047FF492
:100A30000DAF52EA43057FF4EBAE12E74FF0FF3CF7
:100A400006E000BF4FF0010C02E000BF4FF0010CC8
:100A50004DF804CD4FEA410C7FEA6C5C4FEA430C41
:100A600018BF7FEA6C5C1BD001B050EA410C0CBF90
:100A700052EA430C91EA030F02BF90EA020F0020F2
:100A8000704710F1000F91EA030F58BF994208BF59
:100A900090422CBFD8176FEAE37040F00100704716
:100AA0004FEA410C7FEA6C5C02D150EA013C07D16D
:100AB0004FEA430C7FEA6C5CD6D152EA033CD3D0B8
:100AC0005DF8040B704700BF8446104662468C46B2
:100AD0001946634600E000BF01B5FFF7B7FF0028E5
:100AE00048BF10F1000F01BD4DF808EDFFF7F4FF0E
:100AF0000CBF012000205DF808FB00BF4DF808ED99
:100B0000FFF7EAFF34BF012000205DF808FB00BFBB
:100B10004DF808EDFFF7E0FF94BF012000205DF8DD
:100B200008FB00BF4DF808EDFFF7CEFF94BF012092
:100B300000205DF808FB00BF4DF808EDFFF7C4FF8B
:100B400034BF012000205DF808FB00BF4FEA410CD4
:100B50007FEA6C5C02D150EA013C0AD14FEA430CB7
:100B60007FEA6C5C02D152EA033C02D14FF00000F4
:100B700070474FF0010070474FEA410212F5001232
:100B800015D211D56FF47873B3EB625212D94FEAD4
:100B9000C12343F0004343EA505311F0004F23FABE
:100BA00002F018BF404270474FF00000704750EA13
:100BB000013005D111F0004008BF6FF000407047D0
:100BC0004FF00000704700BF4FEA4102B2F1E0432E
:100BD00024BFB3F5001CDCF1FE5C0DD901F0004C24
:100BE0004FEAC0024CEA5070B2F1004F40EB830074
:100BF00008BF20F00100704711F0804F21D113F1A0
:100C00003872BCBF01F00040704741F480114FEAD8
:100C10005252C2F11802C2F1200C10FA0CF320FA61
:100C200002F018BF40F001004FEAC1234FEAD3237E
:100C300003FA0CFC40EA0C0023FA02F34FEA4303E8
:100C4000CCE77FEA625307D150EA01331EBF4FF071
:100C5000FE4040F44000704701F0004040F0FE408C
:100C600040F40000704700BF53B94AB9002908BFDB
:100C700000281CBF4FF0FF314FF0FF3000F00CB8E0
:100C8000ADF1080C6DE904CE13F0CAFBDDF804E009
:100C9000DDE9022304B07047704700BF0348044BEE
:100CA000834202D0034B03B118477047040300206E
:100CB00004030020000000000548064B1B1AD90F52
:100CC00001EBA301491002D0034B03B11847704751
:100CD00004030020040300200000000010B5064CAF
:100CE000237843B9FFF7DAFF044B13B10448AFF39D
:100CF00000800123237010BD0803002000000000C5
:100D00001847010808B5054B1BB105490548AFF365
:100D10000080BDE80840FFF7CFBF00BF0000000023
:100D20000C03002018470108074AD2F8FC3043F0B2
:100D30008073C2F8FC30054B00225A601A6842F0FA
:100D400001021A60704700BF00ED00E0001000E0F3
:100D500030B585B00024009401940294039407F008
:100D6000A1FD01238DF800308DF8014001941F2270
:100D70008DF8082087228DF809208DF80A408DF81B
:100D80000B408DF80C308DF80D308DF80E408DF83D
:100D90000F40684607F0A4FD042007F091FD05B060
:100DA00030BD00002DE9F04F8FB009AD002409944B
:100DB0000A940B940C940D94764B1A6B42F010022B
:100DC0001A631A6B02F010020192019A1A6B42F038
:100DD00004021A631A6B02F004020292029A1A6B5E
:100DE00042F020021A631A6B02F020020392039A67
:100DF0001A6B42F080021A631A6B02F080020492AE
:100E0000049A1A6B42F001021A631A6B02F0010293
:100E10000592059A1A6B42F040021A631A6B02F0AF
:100E200040020692069A1A6B42F002021A631A6B8B
:100E300002F002020792079A1A6B42F008021A6344
:100E40001B6B03F008030893089BDFF85C812246C4
:100E50004FF2F841404608F0B2FCDFF850912246CC
:100E60000F21484608F0ABFC4B4F22464FF2BF71B2
:100E7000384608F0A4FC22464FF68071474808F037
:100E80009EFCDFF82CA122464FF47F61504608F00B
:100E900096FC22464FF44C71414808F090FC4FF20A
:100EA000F843099301260A960B940C942946404670
:100EB00008F07CFB4FF4407309930A940B94294685
:100EC000404608F073FB4FF00F0BCDF824B00A96A4
:100ED0000B940C942946484608F068FB4FF2BF7308
:100EE00009930A960B940C942946384608F05EFB49
:100EF0004FF6807309930A960B940C942946274861
:100F000008F054FB41F6F07309930A960B940C9485
:100F10002946504608F04AFB4FF4604309930A946F
:100F20000B942946504608F041FB4FF404630993A3
:100F30000A940B942946384608F038FB4FF4E073C6
:100F400009930A940B942946164808F02FFB4FF496
:100F50004C7309930A960B940C942946104808F098
:100F600025FB32468021404608F029FC32464FF4EA
:100F70008041384608F023FC32464FF48061384601
:100F800008F01DFC32465946484608F018FC0FB0E0
:100F9000BDE8F08F00380240001802400010024007
:100FA0000004024000080240001402400000024019
:100FB000000C024030B58BB000240994584D4422F7
:100FC0002146284611F0B3F9564B2B600123EB81E3
:100FD0002B82092385F8213040F6AC53EB610623C0
:100FE00085F82730032385F828304F4B2B630E23D9
:100FF000EB6221460DE04C481A2201FB02F28318F5
:10100000815400229A711A81DA711A7101225A717F
:1010100011440D29EFDD444B0C20188103229A71F5
:101020000021D9715971588483F8202083F8211048
:10103000D9770920A3F8700083F86E2083F86F1029
:1010400083F86D10A3F88A0083F8882083F889104C
:1010500083F887102422A3F8A420062083F8A20096
:1010600083F8A31083F8A110B424A3F8BE4083F83A
:10107000BC0083F8BD1083F8BB103C25A3F8D85002
:10108000022483F8D64083F8D71083F8D510A3F84C
:10109000F25083F8F04083F8F11083F8EF101E242B
:1010A000A3F80C4183F80A0183F80B1183F80911A6
:1010B000A3F8264183F8240183F8251183F823112E
:1010C000684611F034F9194B0193194B0393194BEE
:1010D0000693134B0893184D01224021284608F02F
:1010E0006EFB052007F054FB01221021284608F072
:1010F00066FB694609A805F013FB50B9099805F08D
:10110000B5FA044640B9099805F0E6FA20460BB056
:1011100030BD4FF0FF34F9E74FF0FF34F6E700BF82
:101120009404002000E1F505280300208096980033
:10113000CC570108E80C00200014024030B583B001
:10114000054607F01FFB044604E007F01BFB001BED
:10115000A8420ED2002301220DF1070106480AF031
:10116000A1F80028F1D19DF80710044804F0E4FC30
:10117000EBE703B030BD00BF140C0020B00A002024
:1011800008B5074804F0C4F9064802F0DAFF032165
:10119000054804F036FD054804F0F0F808BD00BF2E
:1011A000B00A002048090020540800201807002039
:1011B00008B5024804F03DF808BD00BF180700203C
:1011C000014B1B68586A70479C0C002082B001904C
:1011D000044B196800234B624A6A019B9A42FBD375
:1011E00002B070479C0C002010B50B4B5C680B4B99
:1011F000196807A3D3E90023A0FB0101FFF734FD21
:10120000054B5B681B1B8342FAD310BDAFF3008014
:1012100000CA9A3B00000000001000E03C000020E3
:1012200008B50A460146024803F04AF808BD00BF67
:101230004809002010B582B004468DF807000A2343
:1012400001220DF10701034809F0C2FF204602B058
:1012500010BD00BF8C0B002070B594B00BAC464D98
:101260000FCD0FC40FCD0FC42B6823804FF47A73BA
:1012700021220BA9414809F0ABFF414803F0E6FDEC
:101280000A2007F085FA002240213E4808F097FA2C
:101290000A2007F07DFA002207213B4808F08FFA68
:1012A0000A2007F075FA00241FE0354D002600964D
:1012B000202329222146284603F06CFA0096202399
:1012C0002A222146284603F065FA009620232B2285
:1012D0002146284603F05EFA009620232C22214660
:1012E000284603F057FA0134E4B2032CDDD90A2072
:1012F00007F04EFA00224FF40051244808F05FFA3C
:101300000A2007F045FA002408E0002300932D226C
:1013100021461B4803F03EFA0134E4B2032CF4D911
:101320000A2007F035FA194C00224FF400412046FC
:1013300008F045FA00224FF48041204608F03FFAB9
:101340000A2007F025FA002208210F4808F037FA92
:101350000A2007F01DFA03AC0D4D0FCD0FC495E820
:101360000F0084E80F004FF47A731F2203A903488B
:1013700009F02EFF14B070BD744701088C0B0020DB
:1013800018070020000C0240001802400010024024
:101390009847010870B590B00DF1200C134C0FCC9C
:1013A000ACE80F0094E80F008CE80F00104E4FF4EB
:1013B0007A731F2208A9304609F00AFF0D4B0E4A26
:1013C0000E490F4807F00EF801AC0E4D0FCD0FC4BB
:1013D00095E8070084E807004FF47A731B2201A9FF
:1013E000304609F0F5FE10B070BD00BFB8470108E7
:1013F0008C0B00202805002038050020280600203E
:101400002C540108D847010870B52DED048B064611
:10141000B0EE408AF0EE609AF0EE418AB0EE619A4A
:1014200000241AE04FF48071224808F0CEF9224DD2
:10143000284603F01EFBFCEEC87A17EE900AFFF771
:10144000C5FE284603F022FB79EEC87AFCEEE77A67
:1014500017EE900AFFF7BAFE0134B442E2DBAF2088
:10146000FFF7B4FE002420E04FF48071114808F02B
:10147000ACF9114D284603F0FCFA9FED108A68EE96
:10148000887AFCEEE77A17EE900AFFF7ADFE284661
:1014900003F0FCFA79EE687A67EE887AFCEEE77A78
:1014A00017EE900AFFF7A0FE0134B442DCDBBDEC7E
:1014B000048B70BD000C02401807002000007A4425
:1014C0002DE9F0412DED028B8EB05D4A136801339A
:1014D000136001AC5B4A3221204610F005FD204626
:1014E000FEF7D6FE4FF47A7382B22146564809F0D1
:1014F0006FFE0121554803F0C9F900254FF001089E
:1015000000E001350E2D57DC4FF40071504808F013
:101510005CF92E014F4F07EB05174C4C0022394662
:10152000204603F081FD01223946204603F07CFD70
:10153000DFED498A9FED498AF0EE681AB6EE001A8F
:10154000F0EE480AB3EE0E0A1020FFF75DFF444F9D
:1015500000223946204603F067FD01223946204625
:1015600003F062FDF0EE681AB6EE001AF0EE480ADB
:10157000B3EE0E0A1020FFF747FF3A4B1E4400223D
:101580003146204603F050FD01223146204603F04B
:101590004BFDF0EE681AB6EE001AF0EE480AB3EE14
:1015A0000E0A1020FFF730FF08F10108B8F11F0FF5
:1015B000A7DD4FF00108A4E74FF48061244808F04C
:1015C00004F9002413E0224D01222021284608F0CE
:1015D000F6F84FF4FA70FFF7F9FD002220212846B3
:1015E00008F0EDF84FF4FA70FFF7F0FD01341E4BF0
:1015F0001B7807EE103AB8EEC77A1C4BD3ED006AA1
:10160000C6EE877AFDEEE77A17EE903AA342DADC6F
:1016100001AC0B4B1B68164A3221204610F064FCCB
:101620002046FEF735FE4FF47A7382B22146064813
:1016300009F0CEFD0EB0BDEC028BBDE8F08100BF1D
:10164000F8040020F44701088C0B00201807002044
:10165000000C02402806002000002F430000274312
:101660002805002038050020080000200400002084
:101670001448010870B59CB0002411E003AD631C50
:10168000244A6421284610F02FFC2846FEF700FE6D
:101690004FF47A7382B229461F4809F099FD01344C
:1016A000032C23DCE5B229461C4803F04DF9002841
:1016B000E4D02946194803F05DFD10EE100A661CBF
:1016C00003ADFEF751FFCDE900013346144A642112
:1016D000284610F009FC2846FEF7DAFD4FF47A732D
:1016E00082B229460C4809F073FDD8E703AC2023E9
:1016F0000C4A6421204610F0F7FB2046FEF7C8FD97
:101700004FF47A7382B22146034809F061FD1CB0A0
:1017100070BD00BF5C4801088C0B0020180700203A
:10172000344801088048010870B582B007F02AF8F3
:101730005E4B1B68C01A41F28833984212D80026CB
:101740000DF106020DF10701594806F057FC38B9B2
:101750009DF8073003B902269DF8063003B9032629
:10176000002416E04FF48071524808F021F828B99F
:10177000012607F007F84D4B1860E1E74FF40071C0
:101780004C4808F015F808B10026F2E70126F0E70A
:101790000134032C13DCE5B22946474803F0D4F8A2
:1017A00060B12946444803F0E5FCDFED447AB4EE2D
:1017B000E70AF1EE10FAEBDD052600E0042606F05C
:1017C000E1FF3F4B1B68C01A42F21073984217D8D2
:1017D00006F0D8FF3B4B1B68C01A43F6982398428B
:1017E00016D8394B5B782BBB06F0CCFF374B1B6808
:1017F000C01A47F23053984200D9082600231FE050
:10180000334804F0E1FC06F0BDFF2D4B1860DFE724
:10181000304804F0CDFA47F22F53984204DD2E4BA6
:10182000984202DD072600E0072606F0ABFF254BB5
:101830001860D6E706F0A6FF244B1860D4E7013302
:101840000F2B15DC254A02EB8302D2ED007AB0EEB5
:10185000047AF4EEC77AF1EE10FA08DC9FED207AF4
:10186000F4EEC77AF1EE10FAE9D50A2600E009266F
:101870001C4B93ED007ADFED1C7AB4EEE77AF1EEC3
:1018800010FA00DD0E2606F07DFF184B1B68C01A0B
:101890004EF66023984206D806F074FF134B18608A
:1018A000304602B070BD1026F6E700BFE804002005
:1018B0005807002000140240180700200000AA4228
:1018C000E4040020E0040020B00A0020DC04002032
:1018D0002C09002054080020B0AD0100A80700200A
:1018E000CDCCCC3DD008002000009642D80400208A
:1018F00030B595B004460346214A5021684610F0A1
:10190000F3FA6846FEF7C4FC4FF47A7382B2694674
:101910001C4809F05DFC042C2AD021D8023CE4B21A
:10192000012C06D80121184806F0FEF9642006F0C3
:101930002FFFEC46154C0FCCACE80F0094E80F00DD
:10194000ACE80700ACF800306846FEF7A1FC4FF4A5
:101950007A7382B269460B4809F03AFC15B030BD83
:10196000062CE6D104F028FC642006F011FFE0E725
:10197000074803F0CCFB322006F00AFFD9E700BF8E
:10198000B44801088C0B002058070020DC480108EF
:101990001807002008B5054804F04AFD044804F083
:1019A00047FD642006F0F4FEFBE700BF2808002096
:1019B0001008002000B9704770B5ACB005462F4B39
:1019C0001C6801341C602E4B187044222D4902A85B
:1019D00010F072FD13AE01942CAB03EB850353F8AA
:1019E000A83C00932B46284A6421304610F07CFA2C
:1019F0003046FEF74DFC4FF47A7382B231462348ED
:101A000009F0E6FB002408E04FF48041204807F08D
:101A1000DCFEC82006F0BCFE01341E4AA2FB0532E3
:101A200002F0FC0303EB9203EB1ADBB2A342EBDA06
:101A3000A5F10903DBB2042B04D9174B1B78C3B102
:101A40002CB070BD13AE3446144D0FCD0FC40FCD66
:101A50000FC40FCD0FC42B6823703046FEF718FC5F
:101A60004FF47A7382B23146084809F0B1FBFFF7B0
:101A700091FF2846FFF73CFFE2E700BFF00400209B
:101A8000F404002030470108FC4801088C0B0020BA
:101A900000140240CDCCCCCCEC0400201C49010841
:101AA00008B5FFF741FE08B9012008BDFFF782FF26
:101AB000064B1B782BB9064B1B680A2B03D8012059
:101AC000F3E70020F1E70020EFE700BFEC0400207F
:101AD000F00400202DE9F04FADF5437D10901191F9
:101AE000B04B13AC186859689A68DB680FC44FF4A0
:101AF000F2720021204610F01AFCAB4B1B78002B31
:101B000000F0008113AF3846FEF7C2FB05463E18D1
:101B1000A64C0FCC78517160B260F36090ACA44BCE
:101B20001B680093A34B1B78A34AC821204610F0E2
:101B3000DBF913AD2146284610F001FC9F4B1868D5
:101B4000FEF712FDCDE90A019D4BD3E90023CDE953
:101B500008239C4BD3E90023CDE906239A4B186850
:101B6000FEF702FDCDE90401984B1868FEF7FCFC76
:101B7000CDE90201964B1868FEF7F6FCCDE90001AD
:101B8000944AC821204610F0AFF92146284610F0AB
:101B9000D6FB0DF14B040DF14A0221468E4806F0AA
:101BA0002DFA9DF84B30002B00F0B7808B4B9DF841
:101BB0004A20002A00F0B380884A90AD0092884AFB
:101BC000C821284610F090F913AE2946304610F08F
:101BD000B6FB844C0021204604F001FB07EE900A7E
:101BE000F8EE677A804BC3ED007A0121204604F0BD
:101BF000F6FA07EE900AF8EE677A7C4AC2ED007AB0
:101C00000221204604F0EBFA07EE900A784FF8EE36
:101C1000677AC7ED007A0321204604F0E0FA07EE68
:101C2000900ADFF80082F8EE677AC8ED007A0421A6
:101C3000204604F0D4FA07EE900ADFF8EC91F8EEB3
:101C4000677AC9ED007A0521204604F0C8FA07EE4C
:101C5000900ADFF8D8A1F8EE677ACAED007A06217B
:101C6000204604F0BCFA07EE900ADFF8C4B1F8EEA3
:101C7000677ACBED007A0721204604F0B0FA07EE30
:101C8000900AF8EE677A5B4BC3ED007A17EE900A84
:101C9000FEF76AFCCDE90E01DBF80000FEF764FCFC
:101CA000CDE90C01DAF80000FEF75EFCCDE90A018F
:101CB000D9F80000FEF758FCCDE90801D8F800007B
:101CC000FEF752FCCDE906013868FEF74DFCCDE980
:101CD0000401464A1068FEF747FCCDE90201424B79
:101CE0001868FEF741FCCDE90001434AC8212846A7
:101CF00010F0FAF82946304610F021FB0023DFED02
:101D00003F7A16E013AC2046FEF7C2FA03462518C8
:101D10003B4A03CAE050696000E73A4B47E7394A5B
:101D20004BE7394A02EB830292ED007A77EE877A2D
:101D300001330F2BF5DD90AC012302939FED337A35
:101D400067EE877A17EE900AFEF70EFCCDE90001E8
:101D50002F4AC821204610F0C7F813AD2146284667
:101D600010F0EDFA2B4B1B7801932B4B1B78009353
:101D70002A4B1B782A4AC821204610F0B5F8214684
:101D8000284610F0DCFA119B5C1E22462946109D65
:101D9000284610F0F0FA00232B550DF5437DBDE8E1
:101DA000F08F00BF6C4A0108EC0400206449010870
:101DB000F0040020F40400207C49010850080020B1
:101DC00048080020400800202409002020090020A5
:101DD000280900209C4901085807002050490108A3
:101DE000C84901081C050020180500201405002022
:101DF00010050020FC040020DC4901080000000060
:101E00007449010858490108A80700200000803DD6
:101E1000204A01080B000020090000200A000020D1
:101E2000444A01080C050020080500200405002094
:101E30000005002072B6FEE730B59FB016AC394DF4
:101E40000FCD0FC495E80F0084E80F004FF47A73AC
:101E50001F2216A9344809F0BBF9344802F024FEC9
:101E600038B3324803F053F9002835D02F4802F038
:101E70008BFD002843D02D4803F01CF90DF12C0CEC
:101E80002B4C0FCCACE80F000FCCACE80F0094E863
:101E90000700ACE803002CF8022B120C8CF8002091
:101EA0004FF47A732A220BA91F4809F091F91FB049
:101EB00030BD6C461F4D0FCD0FC40FCD0FC495E83C
:101EC000070003C422704FF47A732822694616482B
:101ED00009F07EF9FFF7AEFF6C46174D0FCD0FC42A
:101EE0000FCD0FC495E8070003C422704FF47A7336
:101EF000282269460C4809F06BF9FFF79BFF6C46F6
:101F00000E4D0FCD0FC40FCD0FC495E8030044F85C
:101F1000040B21704FF47A7324226946024809F0B9
:101F200057F9A8E77C4A01088C0B0020180700200D
:101F30009C4A0108C84A0108F44A0108204B0108DC
:101F400000B589B00023049305930693079301938A
:101F5000029303931448154A0260D72242608360BB
:101F60004FF6FE72C26003614361836108F0ACFD0D
:101F700098B94FF48053049304A90B4808F0E2FD8C
:101F800068B9002301930293039301A9064808F05E
:101F900059FE30B909B05DF804FBFFF74BFFFFF7BE
:101FA00049FFFFF747FF00BF9C0C002000000140E5
:101FB00008B51148114B0360114B43600023836047
:101FC0000122C260036143618361C361036207F060
:101FD000F9FD50B90021084807F0E8FF38B90021A1
:101FE000054808F010F820B908BDFFF723FFFFF7F8
:101FF00021FFFFF71FFF00BF580E002000540040D4
:10200000A06E911008B51148114B0360114B43604D
:10201000002383600122C260036143618361C36165
:10202000036207F0CFFD50B90021084807F0BEFF5A
:1020300038B90021054807F0E6FF20B908BDFFF7D1
:10204000F9FEFFF7F7FEFFF7F5FE00BF040E0020D4
:1020500000580040A06E911008B51148114B036064
:10206000114B4360002383600122C260036143611E
:102070008361C361036207F0A5FD50B900210848E0
:1020800007F094FF38B90021054807F0BCFF20B9DC
:1020900008BDFFF7CFFEFFF7CDFEFFF7CBFE00BF79
:1020A000B00D0020005C0040A06E911008B51048F3
:1020B000104B03604FF482734360002383604FF43E
:1020C000E062C260036143614FF4007282611822D2
:1020D000C2610362436283620722C2620363082310
:1020E000436308F0E7F800B908BDFFF7A3FE00BF9F
:1020F0004C0D00200030014008B51048104B036023
:102100004FF482734360002383604FF4E062C26047
:10211000036143614FF4007282611822C26103625D
:10212000436283620722C26203630823436308F0A9
:10213000C1F800B908BDFFF77DFE00BFE80C002024
:102140000034014008B50B480B4B03604FF41653A5
:10215000436000238360C36003610C22426183619A
:10216000C3610362436209F063F900B908BDFFF778
:1021700061FE00BF140C00200050004008B50B4861
:102180000B4B03604FF4E133436000238360C36073
:1021900003610C2242618361C3610362436209F0FF
:1021A00047F900B908BDFFF745FE00BF8C0B0020C2
:1021B0000048004010B594B008AC30220021204601
:1021C00010F0B5F800230393049305930693079347
:1021D00007F004FB224B1A6C42F080521A641B6C0D
:1021E00003F080530193019B1E4B1A6842F4404256
:1021F0001A601B6803F440430293029B0123089377
:102200004FF48033099302230E934FF480020F9210
:10221000082210924FF4D87211921293092313934B
:10222000204606F089FBA8B907F0E0FAA0B90F2311
:10223000039302230493002305934FF4A0530693C2
:102240004FF480530793072103A806F0FDFD28B93A
:1022500014B010BDFFF7EEFDFFF7ECFDFFF7EAFD50
:10226000003802400070004010B5A2B001AC8422DA
:102270000021204610F05BF8064B01934FF080736D
:102280000F93204606F0BCFE08B922B010BDFFF740
:10229000D1FD00BF100020002DE9F04F2DED0A8B7D
:1022A000ADF52F7DFEF754FD06F054FAFFF782FFDF
:1022B000FFF7DAFFFEF776FDFFF742FEFFF778FE45
:1022C000FFF7A0FEFFF7C8FEFFF7F0FEFFF714FFD1
:1022D000FFF738FFFFF752FF01F0AAFC324803F086
:1022E00081F8324808F024FBFEF71EFD304806F066
:1022F0004FFA304C00224021204607F060FA2E4D64
:1023000001221021284607F05AFA642006F040FA0C
:1023100001222021284607F052FA642006F038FAFC
:1023200001224021204607F04AFA642006F030FAE4
:10233000FEF740FE20B14FF47A7006F029FAFAE772
:1023400005461E4C01228021204607F038FA642001
:1023500006F01EFA01224FF48071204607F02FFA92
:10236000642006F015FA01224FF40071204607F0B0
:1023700026FA642006F00CFA03F01EFF0895099572
:1023800030E028EEA87AF7EE007A77EEC77A28EEEA
:10239000080A37EEC00A0BF033FDB1EE400A084BD5
:1023A00083ED000A03E300BF8C0B00209C0C00208F
:1023B00020BF02000014024000180240001002403A
:1023C0007C080020E24BC3ED008AE24B83ED008ADB
:1023D000E14B83ED009A4FF4967006F0D9F9089B13
:1023E00001330893089B092B00F38384DB4C2046C0
:1023F00003F0EAFEB4F9003007EE903AF8EEE77A1F
:10240000DFF8C8B3CBED007AB4F902300BEE903AA6
:10241000F8EEEBBADFF8B8A3CAED00BAB4F90430AD
:102420000BEE103AB8EECBBADFF8A89389ED00BAFC
:1024300094ED029AB1EE499ADFF89C8388ED009AF8
:10244000D4ED038AF1EE688AC54FC7ED008AD4ED5A
:1024500004AAC44AC2ED00AAB4F9143008EE103A36
:10246000B8EEC88AC04E86ED008AB4F9163009EE7F
:10247000903AF8EEE99ABD4DC5ED009AB4F91830DE
:102480000AEE103AB8EECAAAB94C84ED00AA17EECB
:10249000900AFEF769F8AAA3D3E90023FEF7BCF877
:1024A000FEF792FB0CEE100ACBF800001BEE900A30
:1024B000FEF75AF8A2A3D3E90023FEF7ADF8FEF722
:1024C00083FB0BEE900ACAF800001BEE100AFEF721
:1024D0004BF89BA3D3E90023FEF79EF8FEF774FBAD
:1024E0000BEE100AC9F80000A24BD3ED007A3CEEC7
:1024F00067CA8BED00CAD3ED017A7BEEE7BACAED6D
:1025000000BAD3ED027A3BEE67BA89ED00BADFED8F
:102510009A7A29EE279A88ED009A68EEA78AC7ED85
:10252000008A6AEEA7AA8F4AC2ED00AA934BD3EDA8
:10253000007A39EE679A88ED009AD3ED017A78EE49
:10254000E78AC7ED008AD3ED027A7AEEE7AAC2EDF8
:1025500000AA18EE100AFEF707F879A3D3E90023C2
:10256000FEF75AF8FEF730FB08EE100A306019EE5D
:10257000900AFDF7F9FF72A3D3E90023FEF74CF8A8
:10258000FEF722FB09EE900A28601AEE100AFDF70A
:10259000EBFF6BA3D3E90023FEF73EF8FEF714FB35
:1025A00007EE100A2060764BD3ED007A78EE677A5A
:1025B000744A92ED00AA27EE8AAAD3ED016A79EE59
:1025C000E66A714A92ED006A26EE866A3AEE06AA3B
:1025D00093ED026A37EE467A6C4B93ED006A27EE74
:1025E000066A3AEE06AA6A4B83ED00AA694BD3ED60
:1025F000009A67EEA99A684B93ED006A26EE866A08
:1026000079EE869A654B93ED006A27EE066A79EEBD
:10261000869A634BC3ED009A624B93ED006A27EEF6
:10262000868A614BD3ED007A66EEA76A38EE268A79
:102630005E4BD3ED007A27EE277A38EE078A5C4BA3
:1026400083ED008A86ED00AAC5ED009A84ED008A2C
:102650006AEE0A7A29EEA97A77EE877A28EE080AD6
:1026600037EE800A0BF0CCFBCAEE007AC6ED007A9A
:10267000C9EE807AC5ED007AC8EE007AC4ED007A22
:102680004C4B83ED00CA4C4BC3ED00BA4B4B83ED72
:1026900000BA4B4E86ED009A4A4FC7ED008A4A4D6C
:1026A000C5ED00AA19EE100AFDF75EFF26A3D3E9D7
:1026B0000023FDF7B1FFFEF787FA306018EE900AAD
:1026C000FDF752FF20A3D3E90023FDF7A5FFFEF796
:1026D0007BFA38601AEE900AFDF746FF1AA3D3E999
:1026E0000023FDF799FFFEF76FFA2860184B93ED72
:1026F000008A194B93ED009AF0EE490AB0EE480AB1
:102700000BF07CFBDFF8D4B08BED000A114BD3ED5E
:10271000008AF0EE490AB0EE680A0BF06FFBDFF8B2
:10272000C0A08AED000AF0EE680AB0EE480A0BF08D
:1027300065FBDFF8B09089ED000AFEF741FD53E03C
:10274000AF423811FEFF0F3FCAC342AD69DE913F71
:102750009C08002098080020940800202C090020E4
:10276000F0080020EC080020E8080020E408002021
:10277000E0080020300000200C007A3C24000020FB
:1027800014090020200000201C0000201009002057
:10279000DC0800200C090020180000200809002097
:1027A000D808002004090020140000201000002098
:1027B000D4080020CC080020C8080020C40800204D
:1027C000C0080020BC080020B80800200009002034
:1027D000FC080020F8080020F4080020A8080020C9
:1027E000A4080020A00800200446DD4B1860DFF894
:1027F000D083D8F80030C21A08EE102AD94B1A60DC
:10280000DBF80000FDF7B0FECDE90401B8EEC88AA0
:10281000D7ED007A68EE277A17EE900AFDF7A4FE4E
:10282000CBA3D3E90023FDF7F7FE02460B46DDE913
:102830000401FDF73BFDFEF7C7F909EE100ACA4B8C
:102840001860DAF80000FDF78FFE82468B46D6ED61
:10285000007A68EE277A17EE900AFDF785FEBCA392
:10286000D3E90023FDF7D8FE02460B4650465946F1
:10287000FDF71CFDFEF7A8F909EE900ABB4B1860A6
:10288000D9F80000FDF770FE06460F46D5ED007A38
:1028900068EE277A17EE900AFDF766FEACA3D3E93F
:1028A0000023FDF7B9FE02460B4630463946FDF7D8
:1028B000FDFCFEF789F9AE4B1860C8F80040B0EE99
:1028C000490A0BF0F1FB10EE100AFDF74DFE04462D
:1028D0000D46B0EE490A0BF02FFB20EE008AB0EE59
:1028E000690A0BF01BFC28EE008A68EE007A17EEEE
:1028F000900AFDF739FE00229E4BFDF7D7FC41EC14
:10290000100B0BF051FB53EC102B20462946FDF722
:10291000ADFFFEF759F908EE900A974B1860B0EE3C
:10292000690A0BF0C1FB10EE100AFDF71DFE04460C
:102930000D46B0EE690A0BF0FFFA20EE008AB0EE09
:10294000490A0BF0EBFB28EE008A68EE007A17EEDE
:10295000900AFDF709FE0022864BFDF7A7FC41EC2B
:10296000100B0BF021FB53EC102B20462946FDF7F2
:102970007DFFFEF729F908EE100A804B1860804BA6
:10298000D3ED007AF5EEC07AF1EE10FAFFF6F9AC6D
:1029900028EEA87AF7EE007A77EEC77A28EE080AD2
:1029A00037EEC00A0BF02CFA764B83ED000A764B1B
:1029B0001868FDF7D9FD0022744BFDF72DFE044683
:1029C0000D4618EE900AFDF7CFFD00226F4BFDF784
:1029D00023FE02460B4620462946FDF767FCFEF71C
:1029E000F3F808EE900A6A4B18606A4B1868FDF716
:1029F000BBFD0022654BFDF70FFE04460D4618EEA9
:102A0000100AFDF7B1FD0022604BFDF705FE0246FE
:102A10000B4620462946FDF749FCFEF7D5F808EE9F
:102A2000100A5D4B18605D4B1868FDF79DFD002294
:102A3000564BFDF7F1FD04460D46524B1868FDF765
:102A400093FD0022514BFDF7E7FD02460B46204661
:102A50002946FDF72BFCFEF7B7F809EE100A504B9C
:102A6000186028EEA8AA68EE08AA3AEE2A0A69EECB
:102A7000099A30EE290A0BF0C3F94A4B83ED000A9C
:102A8000B0EE6A0A0BF0BCF979EE800AB0EE680A83
:102A90000BF0B4F99FED44BA60EE0B7A17EE900A92
:102AA000FDF762FD2CA3D3E90023FDF7DFFEFEF75F
:102AB0008BF804463D4B1860B0EE4A0A0BF0A0F9C3
:102AC00079EE800AB0EE480A0BF098F960EE0B7AC6
:102AD00017EE900AFDF748FD1FA3D3E90023FDF789
:102AE000C5FEFEF771F80546314B1860314B18688A
:102AF000FDF73AFD804689462046FDF735FD16A3D1
:102B0000D3E90023FDF788FD00222B4BFDF7AEFE35
:102B100041EC1A0BB0EE4A0AF0EE6A0A0BF078FAB2
:102B200054EC103B8DED040B1A46234640464946B3
:102B3000FDF772FDCDE90601204B1868FDF714FD85
:102B400082468B46B0EE4A0AF0EE6A0A3AE000BFCF
:102B50008DEDB5A0F7C6B03EEA2E4454FB210940E6
:102B6000740800206C080020B4080020B008002081
:102B7000AC0800200000F03F8408002080080020FE
:102B8000940800207C080020CC0800200000E03FD2
:102B900090080020C80800208C080020C4080020ED
:102BA000880800207808002000003443280900200D
:102BB00020090020E808002000806640E00800208E
:102BC000700800200BF0E0FA57EC106B32463B46E1
:102BD00050465946FDF720FD02460B46DDE9060149
:102BE000FDF762FBFDF7F0FF0BEE900A2846FDF7BC
:102BF000BBFCC3A3D3E90023FDF70EFD0022C64BA7
:102C0000FDF734FE41EC1A0BB0EE4A0AF0EE6A0A08
:102C10000BF0BAFA55EC104B22462B46404649467B
:102C2000FDF7FAFC02460B4630463946FDF7F4FC48
:102C300080468946B94B1868FDF796FC06460F4654
:102C4000B0EE4A0AF0EE6A0A0BF0E2F953EC102BF0
:102C500030463946FDF7E0FC02460B464046494601
:102C6000FDF724FB06460F4622462B4650465946A2
:102C7000FDF7D2FC02460B46DDE90401FDF7CCFC72
:102C800002460B4630463946FDF70EFBFDF79CFF2A
:102C9000F0EE6B0A00EE100A0BF0B0F860EE0B7A63
:102CA00017EE900AFDF760FC95A3D3E90023FDF72A
:102CB000DDFD04460D469A4B1868FDF755FC0246AB
:102CC0000B4620462946FDF7EFFAFDF77DFF07EE9C
:102CD000900A944B1860F5EEC07AF1EE10FA7FF589
:102CE00071AB9FED917A77EE877AC3ED007AFFF7AB
:102CF00069BB099D27E08D4803F05AF807EE900A5A
:102D0000F8EEE77A9FED8A7AC7EE877A17EE900A97
:102D1000FDF72AFC9FED7C1B41EC100B0BF094F8A7
:102D200053EC102B00208349FDF7BEFA78A3D3E9BA
:102D30000023FDF771FCFDF747FF7F4B186064200F
:102D400005F026FD0135042DD5DD7C480FF0BEFAD7
:102D50007B480FF0BBFA7B4C0121204604F0E4FFD6
:102D600005464FF4FA721146204605F0E9F90021B4
:102D7000204605F023FA0121204605F01FFA2DB167
:102D8000294671480FF03AFAFFF754F80DF2B622CF
:102D90000DF2B7216B4805F031F950B99DF8B73203
:102DA0004BB16A499DF8B6323BB1684A68480FF0AA
:102DB00025FA002409E06749F4E7664AF6E7654921
:102DC00024E0644A64480FF019FA9DF8B73213B151
:102DD0009DF8B62202BB632C1ED8642005F0D8FCF7
:102DE0000DF2B6220DF2B721564805F007F901346D
:102DF0005A4BA3FB0423DB0803EB8303B4EB430F21
:102E0000E3D19DF8B732002BD9D050499DF8B632A6
:102E1000002BD6D04D4AD5E71BB19DF8B622002A2B
:102E20005FD1002B67D049499DF8B632002B64D0A2
:102E3000464A4B480FF0E2F94FF40061494806F06A
:102E4000B7FC002800F09E8001224FF480514648D4
:102E500006F0B5FC4021434806F0AAFC002800F02B
:102E6000988001224FF400513F4806F0A8FC002250
:102E70004FF400613D4806F0A2FC3D4C01224FF4A6
:102E80000061204606F09BFC01224FF48051204651
:102E900006F095FC4FF4FA7005F07AFC01224FF42D
:102EA0008061204606F08BFC4FF4FA7005F070FC50
:102EB000A3AC304E0FCE0FC40FCE0FC496E8030064
:102EC00084E803004FF47A732722A3A92A4808F064
:102ED0007FF9FEF7B1FFFEF75DFAFEF7CBFB2C465C
:102EE00070E026480FF0F2F925480FF0EFF9154889
:102EF00005F066F8A0E7174996E7164A99E700BF7C
:102F0000EA2E4454FB2109406C45D9CC955BC83F5F
:102F10000000000040A5E54000806640E408002075
:102F20000C000020240900200000B44354080020B5
:102F300080E6C5470000F03F50080020484B0108DC
:102F4000704B010858070020A84B010850490108A0
:102F5000D04B010858490108F84B0108CDCCCCCC26
:102F60007C4C01080018024000140240000C024092
:102F700000100240C04C01088C0B0020204C0108BE
:102F8000404C010800224FF48051994806F017FC8C
:102F900060E700224FF40051954806F010FC66E708
:102FA0004FF47A70FEF7CAF8924E304602F0E0FB1A
:102FB000914B83ED000B304602F0B2FB8F4B83ED5B
:102FC000000B0134092CEBDD002210218C4806F0A7
:102FD000F6FB2C4613E08A4E01222021304606F0F3
:102FE000EEFB4FF4FA70FEF7F1F800222021304694
:102FF00006F0E5FB4FF4FA70FEF7E8F80134814B78
:1030000093ED007A804BD3ED007A27EE277ADFED3F
:103010007F6AC7EE267AFDEEE77A17EE903AA34272
:10302000D9DC764BD3E900AB734BD3E90089784BFD
:103030001E68784B1C6805F0A5FBCDE99AABCDE97D
:103040009C899E969F94A0909AA802F0D9F9724B01
:1030500093F85C30002BFAD0012208216F4806F06B
:10306000AEFB642005F094FB102303936C4B02939A
:10307000202201920093082348226A496A4803F0FB
:103080009FF908B9FEF7D6FE4FF480730393644BA3
:1030900002934FF400720192009308234922614980
:1030A000624803F08DF908B9FEF7C4FE5E4E0021B8
:1030B000304603F063F95D4C0021204603F05EF9D1
:1030C000FF21304603F041F9FF21204603F03DF98E
:1030D0002C46072C07DC564B1A78E1B2524803F015
:1030E000C8F90134F5E7072D07DC514B1A78E9B22E
:1030F0004E4803F0BEF90135F5E7494C0022202186
:10310000204606F05CFB00224FF40071204606F0DA
:1031100056FB012005F03CFB01222021204606F051
:103120004EFB01224FF40071204606F048FB1420AC
:1031300005F02EFB01224021314806F040FB0C2314
:103140000093802348223B493B4803F0B1F808B97B
:10315000FEF770FE0C23009380234A22354937483E
:1031600003F0A6F8054608B100241AE0FEF762FE57
:103170002146314803F033F8314B1855FDF7E2F999
:1031800019A3D3E90023FDF747FA00222D4BFDF7E1
:1031900043FAFDF719FD2C4B03EB8403186001344F
:1031A000E4B2072CE4D900241AE02146234803F0B6
:1031B00016F8264B1855FDF7C5F90BA3D3E90023E4
:1031C000FDF72AFA04F1080600221E4BFDF724FA47
:1031D000FDF7FAFC1C4B03EB860318600134E4B2E4
:1031E000072CE2D9002674E0811AB44DE7808A3FAB
:1031F00000140240B00A00204808002040080020C7
:10320000000C024024090020040000200000B44308
:10321000500800202809002048090020001802401A
:1032200000040240580E002028080020100800204A
:1032300000000020040E002004080020F8070020F1
:10324000F007002000001040A8070020E807002039
:103250000023002B3BD023460134E4B2322B36D876
:10326000934F3A78043AD2B23A703146914803F01B
:1032700000F93146904802F0B2FF904B9855FDF7A7
:1032800061F985A3D3E90023FDF7C6F900228C4B31
:10329000FDF7C2F9FDF798FC8A4B03EB8603186033
:1032A0003B78262BD4D9FDF75FF97DA3D3E9002322
:1032B000FCF7FAFF21F000497BA3D3E9002349463C
:1032C000FDF71CFC08B12B46C3E70023C1E701361C
:1032D000F6B2072E04D8764B7E221A700024BAE785
:1032E000002642E00023002B3DD023460134E4B207
:1032F000322B38D86E4F3A78043AD2B23A7031460F
:10330000714803F0B6F83146704802F068FF704B20
:103310009855FDF717F960A3D3E90023FDF77CF971
:1033200006F1080A0022664BFDF776F9FDF74CFC22
:10333000644B03EB8A0318603B78262BD2D9FDF748
:1033400013F957A3D3E90023FCF7AEFF21F000499E
:1033500055A3D3E900234946FDF7D0FB08B12B461E
:10336000C1E70023BFE70136F6B2072E04D8504B61
:103370007E221A700024B8E7564C00224FF4805188
:10338000204606F01CFA0A2005F002FA01224FF44A
:103390008051204606F013FA01224FF400612046C6
:1033A00006F00DFA0C230093802349224A494B482A
:1033B00002F07EFF08B9FEF73DFD0023484A136086
:1033C000484A1370484A13701DAC4FF4FA712046F6
:1033D000FEF780FB2046FCF75BFF81B2204600F041
:1033E000A7FC9EE000224FF400613A4806F0E7F99E
:1033F000FDF732FF0FAE34463C4D0FCD0FC40FCD5D
:103400000FC40FCD0FC495E8030044F8040B2170DE
:103410003046FCF73DFF4FF47A7382B231463448B0
:1034200007F0D6FE14E0334C4FF48051204606F0EE
:10343000CCF94FF40051204606F0C7F94FF4804113
:10344000204606F0C2F94FF40041204606F0BDF9CF
:10345000254B1B78002BE6D168E00DF2B6220DF269
:10346000B721254804F0CAFD9DF8B73213B19DF885
:10347000B62242B963B121499DF8B63253B11F4A11
:103480001F480EF0BBFE05F07DF91E4B186056E09C
:103490001D49F1E71C4AF3E7811AB44DE7808A3FE2
:1034A000E17A14AE47E1FA3F9A9999999999C93FFF
:1034B000000000202808002004080020F007002059
:1034C00000001040A807002010080020F807002086
:1034D000E8070020000C0240040E00201C0500201C
:1034E000F0040020F4040020EC040020E84C010863
:1034F0008C0B00200014024058070020504901089E
:10350000A04C010824030020584901080122802111
:10351000694806F054F905F035F9684B1860FDF775
:10352000CFFFFEF7BDFA00283FF45CAF05F02AF9A3
:10353000624B1B68C31A41F2883293428DD805F062
:1035400021F941F288339842E9D95D4C00212046A7
:1035500002F045FE07EE900AF8EEE77A9FED598AF1
:1035600067EE887A584DC5ED007A0121204602F0B9
:1035700036FE07EE900AF8EEE77A67EE887A534B4C
:10358000C3ED007A0221204602F029FE07EE900AE0
:10359000F8EEE77A67EE887A4D4BC3ED007A0321A7
:1035A000204602F01CFE07EE900AF8EEE77A67EE7E
:1035B000887A484BC3ED007A0421204602F00FFEC2
:1035C00007EE900AF8EEE77A67EE887A424BC3ED91
:1035D000007A0521204602F002FE07EE900AF8EE7E
:1035E000E77A67EE887A3D4BC3ED007A06212046E4
:1035F00002F0F5FD07EE900AF8EEE77A67EE887ABA
:10360000374BC3ED007A0721204602F0E8FD07EEB4
:10361000900AF8EEE77A67EE887A324BC3ED007ACB
:10362000D5ED006AB3EE097AF4EEC76AF1EE10FA4E
:103630003FF76CAF254BD3ED006AF4EEC76AF1EEAD
:1036400010FA3FF763AF224BD3ED006AF4EEC76A7E
:10365000F1EE10FA3FF75AAF1E4BD3ED006AF4EECD
:10366000C76AF1EE10FA3FF751AF1B4BD3ED006A7A
:10367000F4EEC76AF1EE10FA3FF748AF174BD3EDFF
:10368000006AF4EEC76AF1EE10FA3FF73FAF144B51
:10369000D3ED006AF4EEC76AF1EE10FA3FF736AFE9
:1036A000F4EEC77AF1EE10FA3FF730AF0022802136
:1036B000014806F084F82EE7000C024024030020A5
:1036C0001C05002012A5253F180500201405002028
:1036D000100500200C05002008050020040500202E
:1036E00000050020FC04002010B504460068A16815
:1036F000091A08B10AF05BFB204610BD08B5FDF7BA
:103700003FFD08BD08B5FDF753FD08BD82B00A4B6B
:103710001A6C42F080521A641A6C02F080520092C5
:10372000009A5A6C42F480425A645B6C03F4804302
:103730000193019B02B07047003802402DE9F0432D
:10374000AFB00446002129912A912B912C912D9103
:10375000842208A80EF0EBFD2368564A934208D055
:10376000554A934231D0554A934259D02FB0BDE8C3
:10377000F0834FF48043089308A805F041FC08BB90
:103780004F4C236B43F002032363236B03F00203CC
:103790000193019BC023299312232A9300232B9387
:1037A00003232C9304232D9329A9464805F0FEFEFC
:1037B000236C43F400132364236C03F4001302937B
:1037C000029BD3E7FEF736FBDAE74FF4004308939A
:1037D00008A805F015FC00BB394C236B43F020030F
:1037E0002363236B03F020030393039B0323299399
:1037F00012222A9200222B922C9304232D9329A982
:10380000314805F0D3FE236C43F480032364236C1A
:1038100003F480030493049BA8E7FEF70BFBDBE7AC
:103820004FF48033089308A805F0EAFB00283DD147
:10383000234C236B43F004032363236B03F0040343
:103840000593059B236B43F001032363236B03F074
:1038500001030693069B4FF4007329934FF012095E
:10386000CDF8A8904FF00008CDF8AC8003272C9736
:1038700004262D9629AD2946144805F097FE4FF4ED
:1038800080732993CDF8A890CDF8AC802C972D9615
:1038900029460F4805F08AFE236C43F40003236495
:1038A000236C03F400030793079B5FE7FEF7C2FA5C
:1038B000BEE700BF0054004000580040005C0040DC
:1038C0000038024000040240001402400008024098
:1038D0000000024000B58BB00023059306930793C8
:1038E000089309930368244A934205D0234A9342DC
:1038F00022D00BB05DF804FB214B5A6C42F480528D
:103900005A645A6C02F480520192019A1A6B42F086
:1039100001021A631B6B03F001030293029BE02375
:10392000059302230693032308930523099305A90E
:10393000144805F03BFEDCE7114B5A6C42F4005290
:103940005A645A6C02F400520392039A1A6B42F0C2
:1039500010021A631B6B03F010030493049B64238F
:10396000059302230693032308930523099305A9CE
:10397000054805F01BFEBCE7003001400034014063
:103980000038024000000240001002400268094B6B
:103990009A4200D0704782B003F59C335A6C42F0D3
:1039A00001025A645B6C03F001030193019B02B0B6
:1039B000704700BF000001402DE9F041ACB0044663
:1039C00000212791289129912A912B91842206A8E0
:1039D0000EF0ADFC23683D4A934205D03C4A934229
:1039E00047D02CB0BDE8F0814FF48063069306A861
:1039F00005F006FB002839D1364B1A6C42F48012D0
:103A00001A641A6C02F480120192019A1A6B42F045
:103A100004021A631A6B02F004020292029A1A6BF1
:103A200042F008021A631B6B03F008030393039B25
:103A30004FF4805327934FF00208CDF8A080002761
:103A4000299703262A9608252B9527AC214622483C
:103A500005F0ACFD04232793CDF8A08029972A9682
:103A60002B9521461D4805F0A1FDBAE7FEF7E2F9C6
:103A7000C2E74FF48073069306A805F0C1FA10BBA5
:103A8000144B1A6C42F480221A641A6C02F48022DD
:103A90000492049A1A6B42F002021A631B6B03F041
:103AA00002030593059B4FF4406327930223289359
:103AB0000023299303232A9307232B9327A908483C
:103AC00005F074FD8DE7FEF7B5F9D9E70050004029
:103AD000004800400038024000080240000C02404C
:103AE00000040240FEE7FEE7FEE7FEE7FEE7704760
:103AF0007047704708B504F039FE08BD08B50248A4
:103B000007F0F3FF08BD00BFAC250020034AD2F840
:103B1000883043F47003C2F88830704700ED00E04D
:103B20000120704708B50EF08DFC162303604FF09E
:103B3000FF3008BD08B54FF0FF31FFF7F3FFFEE798
:103B400070B50C461646002506E0AFF3008021460E
:103B500001F8010B01350C46B542F6DB304670BD6D
:103B600070B50C461646002504E014F8010BFDF76D
:103B700061FB0135B542F8DB304670BD4FF0FF30D8
:103B800070474FF400534B6000207047012070478E
:103B90000020704710B503460C4A0D490D480068D7
:103BA00040B10C4800680344521A934206D8094AAF
:103BB000136010BD0748084C0460F2E70EF042FCA9
:103BC0000C2303604FF0FF30F3E700BF0000052037
:103BD00060040000AC0E0020382C0020DFF834D048
:103BE000FFF794FF0C480D490D4A002302E0D4581A
:103BF000C4500433C4188C42F9D30A4A0A4C002337
:103C000001E013600432A242FBD30EF021FCFEF768
:103C100043FB704700000520000000200403002043
:103C20008861010808030020382C0020FEE700000E
:103C300008B500220F49104809F04EF870B90F4935
:103C40000D4809F060F860B90D490B480AF053F8C7
:103C500050B9094809F077F848B908BDFEF7EAF805
:103C6000EDE7FEF7E7F8EFE7FEF7E4F8F1E7FEF738
:103C7000E1F8F2E790000020B00E0020F8000020EC
:103C80004800002000207047202813D0212823D18D
:103C9000124A13680B70C3F307204870C3F3074040
:103CA00088701B0ECB7013790B7153794B7193791C
:103CB0008B7111E00B784A7843EA02238A7843EA51
:103CC0000243CA7843EA0263044A13600B79137112
:103CD0004B7953718B79937100207047400000201D
:103CE0000020704738B504460968FDF799FA054D7C
:103CF000214628460AF018F828460AF03CF8002029
:103D000038BD00BFB00E002010B5064C0022064999
:103D1000204609F0FBFF054920460AF005F800207F
:103D200010BD00BFB00E00208C1100208C190020A7
:103D30000A4BD3F8BC327BB1D3F814320BB101205B
:103D4000704710B5054C0A460146204609F0DEFFD3
:103D5000204609F0F5FF10BD03207047B00E00208B
:103D600012230B80004870477C00002004230B8046
:103D70000048704778000020002393421ED200B50F
:103D800010E00CF1370C01F813C000014FEA430CAE
:103D90000CF1010C4FF0000E01F80CE00133DBB226
:103DA000934209D24FEA107CB0F1204FE9D20CF1D6
:103DB000300C01F813C0E8E75DF804FB7047000021
:103DC00038B50B4BD3F82004D3F82444D3F8283467
:103DD000C01800D138BD074D08222946FFF7CCFF97
:103DE000042205F110012046FFF7C6FFF2E700BFED
:103DF00000F0F01F5E00002008B51A230B80FFF7CB
:103E0000DFFF014808BD00BF5C00002010B50A4676
:103E1000034C2146034809F0E6FC204610BD00BFD4
:103E20008C210020B84E010810B50A46034C2146EB
:103E3000034809F0D8FC204610BD00BF8C210020AB
:103E4000E04E010810B50A46034C2146034809F02C
:103E5000CAFC204610BD00BF8C210020F84E01088E
:103E600010B50A46034C2146034809F0BCFC204625
:103E700010BD00BF8C210020044F0108032805D885
:103E8000DFE800F0050402050120704703207047B9
:103E900010B588B00023039304930593069307930A
:103EA0000368B3F1A04F01D008B010BD03AA194CAC
:103EB000236B43F001032363236B03F0010300939F
:103EC000009B4FF4C05303930223049303230693F0
:103ED0000A2307931146104805F068FB636B43F013
:103EE00080036363636B03F080030193019B636C46
:103EF00043F480436364636C03F480430293029B46
:103F000000221146432004F09BFC432004F0A8FC4F
:103F1000CAE700BF003802400000024008B500F2C6
:103F20009C41D0F8DC0408F024FF08BD08B501EB83
:103F3000C10300EB8303D3F86022D0F8DC0408F05F
:103F4000E6FF08BD08B501EBC10300EB83031A6A65
:103F5000D0F8DC0409F03EF808BD08B5D0F8DC0460
:103F600008F083FF08BD10B50446C379022B09D1C0
:103F70000121D4F8DC0408F05BFFD4F8DC0408F07D
:103F800024FF10BDFDF756FFF2E7000010B5044610
:103F9000D0F8DC0408F04FFF2268D2F8003E43F06E
:103FA0000103C2F8003EE37A23B1034A136943F0E8
:103FB0000603136110BD00BF00ED00E008B5D0F8A6
:103FC000DC0408F046FF08BD08B5D0F8DC0408F0B2
:103FD00072FF08BD08B5D0F8DC0408F056FF08BD34
:103FE00008B5D0F8DC0408F07CFF08BD08B5D0F8AF
:103FF000DC0408F078FF08BD02780AB100207047A1
:1040000010B503461548C0F8DC34C3F8C8024FF0B9
:10401000A0430360062303710222C271002383714F
:1040200042728372C37203738373C37307F099FA86
:1040300080B90A4C8021204608F07DF840220021FA
:10404000204608F052F880220121204608F04DF861
:10405000002010BDFDF7EEFEEBE700BFAC25002011
:1040600008B5D0F8C80207F005FBFFF707FF08BD49
:1040700008B594461A466346D0F8C80207F0CDFB4F
:10408000FFF7FCFE08BD08B5D0F8C80207F00BFC2E
:10409000FFF7F4FE08BD08B5D0F8C80207F08EFCA3
:1040A000FFF7ECFE08BD08B5D0F8C80207F0C9FC60
:1040B000FFF7E4FE08BDD0F8C83211F0800F08D138
:1040C00001F07F0101EBC10103EB810393F856027C
:1040D000704701F07F0101EBC10103EB8103987D83
:1040E000704708B5D0F8C80207F084FBFFF7C6FE9A
:1040F00008BD08B5D0F8C80207F03BFCFFF7BEFECC
:1041000008BD08B5D0F8C80207F005FCFFF7B6FEF9
:1041100008BD08B5D0F8C80207F022FC08BD0000B1
:10412000004870478C230020704708B50022826544
:1041300080F85C20C0F8602180F8642100F0D0F89D
:1041400008BD10B5044600F017F92046FFF7EDFF53
:10415000204610BD2DE9F0410646D0F86001C0F5BB
:104160008074944228BF144606F15D072246384405
:104170000EF0A2F9D6F860512544C6F8605196F8C1
:104180006481B8F1000F17D1002400E00134022D42
:104190000BD9E31C9D4208D303222F4938190EF096
:1041A0009DF80028F2D14FF00108B8F1000F15D0AA
:1041B0004CB9012386F86431D6F86081B8F1490F13
:1041C0003AD8BDE8F0812A1B391938460EF096F826
:1041D000D6F860311B1BC6F86031EAE72C46022D89
:1041E00028BF02240DB1022D02D8C6F86041E8E7CD
:1041F000291B2246394438460EF080F8F5E70023A3
:10420000C6F8603186F86431012218E00134E51CFB
:10421000A84513D30322114938190EF05FF800287E
:10422000F4D12A463946304600F0E2F90246002829
:10423000E5D00223B36502E00324E8E70022D6F8C4
:104240006031FF2BBDD9002ABBD10023C6F86031F5
:1042500086F86431B5E700BF144F0108184F010814
:104260002DE9F04182B0154B0193032A1BD98046FA
:104270000F4616460024251DB54214D804220DEB26
:10428000020138190EF02AF808B10134F3E70123CE
:1042900088F85C30C8F858300023C8F8603188F8D6
:1042A0006431B54202D302B0BDE8F081321B043A5A
:1042B00079194046FFF74EFFF5E700BF172E9EED38
:1042C000002A18BF00290AD008B5836D23B1012B3D
:1042D00004D1FFF73FFF01E0FFF7C2FF08BD7047C1
:1042E0001BA3D3E90023C0E900231BA3D3E90023C8
:1042F000C0E902231AA3D3E90023C0E90423202341
:10430000836119A3D3E90023C0E9082318A3D3E9E3
:104310000023C0E90A2300220B4BC0E90C23002232
:104320000A4BC0E90E2306A3D3E90023C0E91023FA
:10433000C0E91223012380F850307047AFF30080AA
:1043400000000000006AE84000408F4000409F40AD
:10435000000000205FA00242691D554D1075FF3E10
:104360008DEDB5A0F7C6A03E00000000D01263415D
:1043700000000000389C7C4110B50446FFF7B0FFF8
:10438000204610BD000000002DE9D0430446D0E9CE
:10439000006775A3D3E9002330463946FCF7AEFB2E
:1043A000002840F0AA8072A3D3E9002330463946A2
:1043B000FCF7C2FB002840F0A380D4E902676EA39B
:1043C000D3E9002330463946FCF798FB002840F03B
:1043D00099806BA3D3E9002330463946FCF7ACFB48
:1043E000002840F09180D4E9046767A3D3E9002353
:1043F00030463946FCF782FB002840F0878064A3F2
:10440000D3E9002330463946FCF796FB00287FD1DC
:10441000A369013BFF2B7DD8D4E908675EA3D3E9EC
:10442000002330463946FCF769FB002874D15CA3B1
:10443000D3E9002330463946FCF77EFB00286DD1D6
:10444000D4E90A8942464B4630463946FCF76AFBB6
:10445000002865D152A3D3E9002340464946FCF722
:104460006BFB00285ED1D4E90C6700223C4B304640
:104470003946FCF743FB002856D133A3D3E9002388
:1044800030463946FCF758FB00284FD1D4E90E6777
:104490000022334B30463946FCF730FB002847D129
:1044A00029A3D3E9002330463946FCF745FB002811
:1044B00040D1D4E910670022294B30463946FCF739
:1044C0001DFBC8BB22A3D3E9002330463946FCF7C5
:1044D00033FB98BBD4E912670022224B30463946A1
:1044E000FCF70CFB60BB1CA3D3E900233046394624
:1044F000FCF722FB30BB012000E00020BDE8D083A8
:104500000020FBE70020F9E70020F7E70020F5E7AF
:104510000020F3E70020F1E70020EFE70020EDE7BF
:104520000020EBE70020E9E70020E7E70020E5E7CF
:104530000020E3E70020E1E70020DFE70020DDE7DF
:104540000020DBE70020D9E7000000000088C3401E
:1045500000000000006AF84000000000006A084106
:104560000000594000408F400000000065CDCD4163
:10457000000000E8764837428DEDB5A0F7C6B03EA2
:10458000FCA9F1D24D62503F48AFBC9AF2D77A3EB7
:10459000F168E388B5F8E43E0000000080842E4115
:1045A0000000000084D79741002000220023072844
:1045B00010DC00B54FEA032C4CEA126C11F800E055
:1045C0004EEA0222634601300728F3DD43EC102B4C
:1045D0005DF804FB43EC102B70470023184603E002
:1045E000CA5C42EA00200133032BF9DD704700006A
:1045F000F8B50446002918BF492A94BF01270027AF
:104600005BD90D4616460322324928460DF066FE58
:10461000002857D1033E03222F49A8190DF05EFE52
:10462000002853D1E91C2046FFF7BEFF84ED000BA4
:1046300005F10B012046FFF7B7FF84ED020B05F1F2
:1046400013012046FFF7B0FF84ED040B05F11B01B9
:104650002046FFF7C2FFA06105F11F012046FFF7CA
:10466000A3FF84ED080B05F127012046FFF79CFF0F
:1046700084ED0A0B05F12F012046FFF795FF84ED2D
:104680000C0B05F137012046FFF78EFF84ED0E0B72
:1046900005F13F012046FFF787FF84ED100B05F180
:1046A00047012046FFF780FF84ED120B2046FFF7FD
:1046B0006BFE074684F8500002E0002780F8507037
:1046C0003846F8BD002384F85030F9E7002384F819
:1046D0005030F5E7144F0108184F010810B5084C89
:1046E00001221146204605F06AF8012202212046E7
:1046F00005F065F801220421204605F060F810BDA0
:104700000018024008B501224FF40051014805F09D
:1047100056F808BD0010024082B001EB810149004B
:10472000019100E000BF019B5A1E0192002BF9D1BC
:1047300002B0704710B582B01C4652B14FF47A7384
:104740000093A3B2074805F02DFF48B9204602B0F8
:1047500010BD4FF47A73A2B2024805F01FFEF4E7D1
:104760000020F4E74C0D002008B5436900691B1ACE
:10477000B1EBA30F09D2064B53F8310003EBC10391
:1047800099881AB1002205F01AF808BD0122FAE74B
:10479000C055010830B583B004460D469DF8181089
:1047A000F9B108218DF804109DF80410C2F304201B
:1047B00001438DF804108DF805208DF80630012294
:1047C00029462046FFF7D0FF0323002201A92046F7
:1047D000FFF7B0FF002229462046FFF7C5FF03B0D0
:1047E00030BD016951F825100978490101F06001D7
:1047F0008DF80410D8E7F0B583B0054611B17F27D6
:10480000002420E02027FBE7002600963B462922D3
:1048100021462846FFF7BEFF00963B462A22214646
:104820002846FFF7B7FF00963B462B222146284635
:10483000FFF7B0FF00963B462C2221462846FFF7A3
:10484000A9FF0134E4B26B692A699B1AB4EBA30F88
:10485000DAD303B0F0BD70B582B0054611B1302691
:1048600000240BE00026FBE70023009333462D22B3
:1048700021462846FFF78EFF0134E4B26B692A69AE
:104880009B1AB4EBA30FEFD302B070BD10B5044672
:10489000017011B93223436010BD0A234360FFF752
:1048A0001DFF2046FFF72EFF01212046FFF7A3FF43
:1048B00001212046FFF7CFFFEEE72DE9F04385B059
:1048C00005460E4617460DF10C080024ADF80C40C5
:1048D0008DF80E400DF10809ADF808408DF80A403A
:1048E000009418232246FFF755FF2B6953F8263012
:1048F0001B785B0103F0600343F080038DF80C30FC
:1049000043EA17238DF80C308DF80D708DF80E40AA
:10491000012231462846FFF727FF03234A46414636
:104920002846FFF707FF224631462846FFF71CFFBF
:1049300000942346224631462846FFF72BFF9DF878
:104940000A0005B0BDE8F083436902699B1AB1EB28
:10495000A30F01D30020704730B583B004460D4645
:1049600000230093A5230A22FFF714FF012003F080
:104970000FFF0A2229462046FFF79FFFA52814BFF4
:104980000020012003B030BD38B50546002401E009
:104990000134E4B26B692A699B1AB4EBA30F07D206
:1049A00021462846FFF7D0FF03460028F0D100E05B
:1049B0000123184638BDF0B583B004460D461646AF
:1049C0001F46FFF77AFF012202FA07F303439DF81F
:1049D00020200092DBB2324629462046FFF7DAFE5D
:1049E00003B0F0BDF0B583B004460D4616461F4631
:1049F000FFF763FF4FF0010C0CFA07FC6FEA0C0C99
:104A00004FFA8CFC00EA0C039DF820200092DBB2E8
:104A1000324629462046FFF7BDFE03B0F0BD00B583
:104A200083B042B10023009302233122FFF7C3FF7A
:104A300003B05DF804FB0023009302233122FFF74B
:104A4000D1FFF5E770B505460E46002406E0324674
:104A500021462846FFF7E3FF0134E4B26B69286979
:104A60001B1AB4EBA30FF2D369682846FFF754FE74
:104A700070BD10B504460121FFF7E4FF03F082FE8C
:104A80004FF47A7303FB00F0E06010BD10B50446EC
:104A90000021FFF7D7FF03F075FE4FF47A7303FB95
:104AA00000F0E06010BD000070B596B004460CAD9B
:104AB000644E0FCE0FC50FCE0FC596E8030045F824
:104AC000040B29804FF47A7325220CA95E4806F066
:104AD0007FFB5E4D01224FF40041284604F06FFE3B
:104AE000012003F055FE01224FF48041284604F0D6
:104AF00066FE012003F04CFE00212046FFF7A2FFD6
:104B0000012003F045FE002510E000260096334604
:104B10002D2229462046FFF73DFE009633464A22C5
:104B200029462046FFF736FE0135EDB2636922695A
:104B30009B1AB5EBA30FE8D300224FF40051434872
:104B400004F03DFE022003F023FE00251EE00026B7
:104B500000965D23292229462046FFF71BFE00967A
:104B60005D232A2229462046FFF714FE00965D2386
:104B70002B2229462046FFF70DFE00965D232C22AE
:104B800029462046FFF706FE0135EDB2636922692A
:104B90009B1AB5EBA30FDAD30A2003F0F9FD2C4DD5
:104BA00001221146284604F00AFE0122022128466D
:104BB00004F005FE01220421284604F000FE322004
:104BC00003F0E6FD00251EE0002600960D232922B5
:104BD00029462046FFF7DEFD00960D232A222946AE
:104BE0002046FFF7D7FD00960D232B2229462046AD
:104BF000FFF7D0FD00960D232C2229462046FFF713
:104C0000C9FD0135EDB2636922699B1AB5EBA30FAB
:104C1000DAD30A2003F0BCFD02AC0E4D0FCD0FC459
:104C20000FCD0FC495E8030044F8040B21704FF436
:104C30007A73242202A9044806F0CAFA012016B0A9
:104C400070BD00BF1C4F01088C0B002000100240FB
:104C500000180240444F010870B582B00446002994
:104C600077D10121FFF7EEFE00224FF40051754885
:104C700004F0A5FD052003F08BFD002508E00023CE
:104C800000932D2229462046FFF784FD0135EDB221
:104C9000636922699B1AB5EBA30FF0D3052003F0DB
:104CA00077FD694D01221146284604F088FD012256
:104CB0000221284604F083FD01220421284604F045
:104CC0007EFD0A2003F064FD00251EE0002600960C
:104CD0007F23292229462046FFF75CFD00967F238B
:104CE0002A2229462046FFF755FD00967F232B22D6
:104CF00029462046FFF74EFD00967F232C222946A9
:104D00002046FFF747FD0135EDB2636922699B1A22
:104D1000B5EBA30FDAD3052003F03AFD002510E030
:104D2000002600960223312229462046FFF743FE43
:104D300000960523302229462046FFF73CFE013528
:104D4000EDB2636922699B1AB5EBA30FE8D302B0F9
:104D500070BD0021FFF776FE3B4D00220121284661
:104D600004F02DFD00220221284604F028FD002237
:104D70000421284604F023FD052003F009FD002549
:104D80001EE0002600962023292229462046FFF710
:104D900001FD009620232A2229462046FFF7FAFC2F
:104DA000009620232B2229462046FFF7F3FC00968D
:104DB00020232C2229462046FFF7ECFC0135EDB2DA
:104DC000636922699B1AB5EBA30FDAD3052003F0C0
:104DD000DFFC01224FF400511A4804F0F0FC0A20D5
:104DE00003F0D6FC002509E00023009330232D2298
:104DF00029462046FFF7CEFC0135EDB263692269F2
:104E00009B1AB5EBA30FEFD3052003F0C1FC0025DF
:104E100010E0002600960223312229462046FFF7A3
:104E2000E1FD00960423302229462046FFF7C3FD0A
:104E30000135EDB2636922699B1AB5EBA30FE8D384
:104E400085E700BF001002400018024070B582B034
:104E500006460121FFF700FF002415E0002500951C
:104E60002B462F2221463046FFF794FC00950F2356
:104E70002E2221463046FFF78DFC336953F824304B
:104E800001225A601444E4B2736932699B1AB4EB8C
:104E9000A30FE3D30120F06102B070BD70B582B002
:104EA00004460D46036953F821301B785B0103F07B
:104EB00060038DF8043000268DF8056081238DF89D
:104EC00006300122FFF750FC0323324601A9204699
:104ED000FFF730FC324629462046FFF745FC02B07A
:104EE00070BD00B583B0009313460022FFF752FC5B
:104EF00003B05DF804FB00B583B000926023382254
:104F0000FFF748FC03B05DF804FB436902699B1A94
:104F1000B1EBA30F01D30020704730B583B0044636
:104F20000D46FFF7BBFF0A2003F032FC00231822D6
:104F300029462046FFF7D5FF002229462046FFF7E5
:104F4000DAFF002300936023322229462046FFF730
:104F500021FC236953F825300120587003B030BD7F
:104F60002DE9F04182B005460E469DF8207003F011
:104F70007F03124C14F8038002F0030C0CF10A02B8
:104F80004FEA4C0C0CF115040097DFF834C01CF804
:104F900003305200FFF7FEFB00974346224631469E
:104FA0002846FFF7F7FB00970123282231462846C1
:104FB000FFF7F0FB02B0BDE8F08100BFC05401086C
:104FC000405501082DE9F04182B005460E469DF896
:104FD000207003F07F03124C14F8038002F0030CDE
:104FE0000CF110024FEA4C0C0CF121040097DFF891
:104FF00034C01CF803305200FFF7CCFB0097434647
:10500000224631462846FFF7C5FB00970123282298
:1050100031462846FFF7BEFB02B0BDE8F08100BF75
:10502000C0540108405501082DE9F04182B0804686
:105030000F46164600251BE0621C00210091D2B2EB
:1050400029464046FFF78CFF0134E4B2032C0DD80B
:1050500004EB8503FB5C002EEED1621C0021009165
:10506000D2B229464046FFF7ADFFEDE70135EDB27C
:10507000032D01D80024E9E7012002B0BDE8F0814A
:1050800070B582B005460E46144600922D23362296
:10509000FFF780FB00940623372231462846FFF7AE
:1050A00079FB00940223282231462846FFF772FB41
:1050B00002B070BD70B582B005460021FFF7CCFD8F
:1050C000002419E00026009633462E222146284669
:1050D000FFF760FB00960F232F2221462846FFF79B
:1050E00059FB324621462846FFF7CAFF2B6953F881
:1050F00024305E600134E4B26B692A699B1AB4EB18
:10510000A30FDFD30023EB61012002B070BD38B5DF
:105110000546002401E00134E4B26B692A699B1A58
:10512000B4EBA30F07D221462846FFF7EEFE034655
:105130000028F0D103E02846FFF7BCFF0123184602
:1051400038BD30B583B004460D460092702332223C
:10515000FFF720FB322229462046FFF7AEFB10F076
:10516000010FF7D0332229462046FFF7A6FB03B0F4
:1051700030BD000008B5436902699B1AB1EBA30F6B
:1051800016D252F821305B7813B99FED0B0A11E06B
:105190000022FFF7D6FF00EE100AB8EEC00AF6EEC6
:1051A000007A20EE270ADFED057A30EE670A01E08B
:1051B0009FED010A08BD00BF339388C30000484239
:1051C00010B504460068A168091A08B108F0EFFD9F
:1051D000204610BD38B504460D460C2008F0E9FD08
:1051E0002B7803700023437001224260024A8260E0
:1051F00023602060204638BD0000C84110B5044639
:10520000006810B10C2108F0D2FD00232360204675
:1052100010BD70B506460468456803E02046FFF7F8
:10522000EDFF0434A542F9D13046FFF7C9FF3046FF
:1052300070BD10B504462C30FEF756FA04F120007C
:10524000FEF752FA04F11000FFF7E3FF204610BD0D
:1052500010B50446006818B16168890008F0A7FD20
:10526000204610BD40680438704738B5034644688E
:105270000068A4EB000C4FEAAC056FF0604EAEEB9B
:10528000AC0C8C450CD38D4200D3294648191B68C1
:10529000E41AB0EBA40F06D3B0F1005F06D238BD1C
:1052A000104608F09DFD6FF06040F8E76FF0604039
:1052B000F5E708B5B1F1005F03D2880008F079FD89
:1052C00008BDB1F1804F01D308F087FD08F082FDE1
:1052D0002DE9F04784B006460C461D4A0121FFF730
:1052E000C4FF8046D6F80090D6F804A0AAEB0905C2
:1052F000002201463046FFF7DCFF07460190CDF85B
:1053000008800396236843510023236005464C46DA
:1053100008E0236845F8043B002323602046FFF79C
:105320006DFF0434A245F4D10435CDF80490B36880
:10533000A3EB09039B10029301A8FFF789FF3760D5
:10534000756007EB8807B76004B0BDE8F08700BF61
:105350006C4F010810B504464368826893420AD036
:105360000A681A6000230B604368043343602046D8
:10537000FFF778FF10BDFFF7ABFFF8E770B582B01D
:105380000646002303703222426064228260C360BA
:105390000361436183610122C261036243628362EC
:1053A000C3620363436380F8383080F83930C363E5
:1053B000009310E006F1100501AC69462046FFF7A6
:1053C00009FF21462846FFF7C5FF2046FFF716FFD5
:1053D000009B01330093009B032BEBDD304602B0B2
:1053E00070BD000008B5044B18602022002103485E
:1053F0000CF09DFF08BD00BFB02A0020902A0020BD
:10540000424B1B68002B7FD010B588B047238DF826
:10541000003050238DF8013053238DF802304223A1
:105420008DF803300468D0F804E0002215E0C2F1E2
:105430000703DB00C3F1200CA3F1200124FA03F3DE
:105440000EFA0CFC43EA0C032EFA01F10B4302F1B5
:105450002401694401F8203C0132072AE7DD846811
:10546000D0F80CE0002215E0C2F10703DB00C3F125
:10547000200CA3F1200124FA03F30EFA0CFC43EAFA
:105480000C032EFA01F10B4302F12C01694401F8DF
:10549000203C0132072AE7DD046900220AE0C2F15C
:1054A0000303DB0024FA03F302F13401694401F839
:1054B000203C0132032AF2DD406900220AE0C2F1F9
:1054C0000303DB0020FA03F302F13801694401F819
:1054D000203C0132032AF2DD00231A4607E003F1E3
:1054E0002001694411F8201C0A4492B201331B2B9D
:1054F000F5DD130A8DF81C308DF81D201E2168463D
:10550000FEF716FC08B010BD704700BFB02A00209F
:1055100000220270427082808260027302824261C5
:1055200002768283026280F824200285C26280F8BB
:105530003020302180F834104E2180F8361080F869
:105540003C2080F83D20026480F84C2080F84D20FB
:10555000026580F85C2080F85D20426680F86C204F
:1055600080F86D20426780F87C2080F87D20C0F8AC
:10557000842080F88C2080F88D20C0F8942080F85A
:105580009C2080F89D20C0F8A42080F8AC2080F8F2
:10559000AD20022180F8BD1080F8BE2080F8BF2029
:1055A00080F8C020C0F8C420C0F8C820C0F8CC20C3
:1055B000C0F8D020C0F8D420C0F8D82080F8AE20A1
:1055C0007047A1F14103DBB2052B07D9A1F16103BB
:1055D000DBB2052B05D8A1F157007047A1F13700C8
:1055E0007047A1F13000704738B5044605782D2D7D
:1055F00006D020460BF04FFF642303FB00F002E0CF
:105600000134F6E701342378A3F13002092AF9D9ED
:105610002E2B02D02D2D10D038BD6378A3F130028F
:10562000092AF7D802EB820300EB4300A378A3F129
:105630003002092AEED81044ECE74042ECE70000C3
:1056400038B504460D460BF026FF194AA2FB00327E
:105650005309642101FB13039BB2164901FB03F3B9
:10566000C2F34F122A8000E001342278A2F1300107
:105670000929F9D92E2A18D003EB830301330E4AE6
:10568000A2FB03235B086B6000232B7238BD0B4821
:10569000A0FB0101C908303A01FB023314F8012FC5
:1056A000A2F130000928F2D9E6E70249F6E700BF87
:1056B0001F85EB5180969800ABAAAAAACDCCCCCC82
:1056C00010B50446C269036A4260836090F82430D2
:1056D0000373826AC36A0261436190F830300376D3
:1056E00090F8353080F8343090F8373080F8363024
:1056F00003F048F8A06301236370237010BD08B560
:105700000B4600F11C011846FFF79AFF08BD08B5CB
:105710000B4600F128011846FFF792FF08BD000074
:10572000D0B50446002343708088FAF70BFF064685
:105730000F46A068FAF7F6FE0BA3D3E90023FBF7A8
:1057400095F802460B4630463946FAF7AFFD41EC74
:10575000100B237B33B1024610EE901A01F1004387
:1057600043EC102BD0BD00BF0000000065CDCD4143
:10577000D0B5044600234370008AFAF7E3FE0646DC
:105780000F466069FAF7CEFE0BA3D3E90023FBF7BF
:105790006DF802460B4630463946FAF787FD41EC74
:1057A000100B237E33B1024610EE901A01F1004334
:1057B00043EC102BD0BD00BF0000000065CDCD41F3
:1057C00010B504468368436002F0DCFFE06001230B
:1057D0006370237010BD10B504468368436002F007
:1057E000D1FFE06001236370237010BD10B5044643
:1057F0000846FFF7F9FEA06010BD10B50446084644
:105800000BF049FEA06010BD10B50446C36883606C
:1058100002F0B8FF606001236370237010BD10B503
:1058200004460846FFF7E0FEE06010BD10B50446F0
:10583000C368836002F0A6FF606001236370237079
:1058400010BD10B5044608460BF025FEE06010BD03
:1058500010B50446014610300CF026FE02F092FF0F
:105860002062012384F8253084F8243010BD08B567
:105870000F220CF080FD08BD70B5044690F8AD60B5
:10588000002E6BD090F8AE10FFF79BFE0501EDB235
:1058900094F8AF102046FFF794FE55FA80F0C0B29E
:1058A00094F8AC30834207D0D4F8D4300133C4F834
:1058B000D4300026304670BDD4F8D8300133C4F857
:1058C000D83094F8C03023B1D4F8D0300133C4F8C4
:1058D000D03094F8BD30C3B1012B25D104F13C0088
:1058E000FFF76EFF04F14C00FFF775FF94F8C0302E
:1058F000D3B12046FFF7E4FE04F15C00FFF784FF1C
:1059000004F16C00FFF780FF0EE004F14C00FFF79C
:1059100062FF94F8C03053B904F18C00FFF786FFA2
:1059200004F19C00FFF770FFD4F8C8500BE020464C
:10593000FFF7C6FE04F17C00FFF766FFECE72846A0
:10594000FFF786FF2D6B002DB4D0D4F8C830996ACC
:10595000A86AFAF73DFC0028F1D0ABE790F8BE301A
:1059600023B390F8BD20022A73D090F8AE1000291E
:105970006FD043EA4213013B2B2B6AD8DFE803F0D8
:105980006473787F849DA6ACB26969696969696945
:105990006969696969696969696969696969696977
:1059A000646C73787F848B91976969B890F8AE5076
:1059B000472D09D0472D19D0022384F8BD30D4F8E3
:1059C000C430C4F8C83026E090F8AF1057480CF047
:1059D000C5FC0028EED0564904F1B000FAF7F8FBF8
:1059E0000028E7D1012384F8BD30E8E794F8AF1030
:1059F0004E480CF0B3FC0028DED04E4904F1B00054
:105A0000FAF7E6FB0028D7D1002384F8BD30D6E7AB
:105A10002B6BC4F8C830D4F8C85035B104F1AE01CE
:105A2000A86AFAF7D5FB0028F2DB002D3FF442AF5D
:105A300004F1AE01A86AFAF7CBFB00287FF73AAF72
:105A40000023C4F8C83035E700F1AE014C30FFF751
:105A5000CDFED4F8C85054E0412914BF00210121E3
:105A600080F8C010F5E700F1AE01FFF748FEF0E75F
:105A7000532914BF0021012180F82410E9E700F127
:105A8000AE01FFF744FEE4E7572914BF00210121CE
:105A900080F83010DDE700F1AE015C30FFF7BFFEAB
:105AA000D7E700F1AE016C30FFF7B9FED1E700F1A6
:105AB000AE013C30FFF7A1FECBE7302994BF0023B5
:105AC000012380F8C03080F83510C2E700F1AE0144
:105AD0008C30FFF7B6FEBCE700F1AE019C30FFF75B
