:020000040800F2
:10000000000005206D420008694100086B410008AE
:100010006D4100086F4100087141000800000000B8
:100020000000000000000000000000007341000814
:100030007541000800000000774100087941000880
:10004000BD420008BD420008BD420008BD42000894
:10005000BD420008BD420008BD420008BD42000884
:10006000BD420008BD420008BD420008BD42000874
:10007000BD420008BD420008BD420008BD42000864
:10008000BD420008BD420008BD420008BD42000854
:10009000BD420008BD420008BD420008BD42000844
:1000A000BD420008BD420008BD420008BD42000834
:1000B000BD420008BD420008BD420008BD42000824
:1000C000BD420008BD420008BD420008BD42000814
:1000D000BD420008BD420008BD420008BD42000804
:1000E00091410008BD420008BD420008BD42000821
:1000F000BD420008BD420008BD420008BD420008E4
:10010000BD420008BD420008BD420008BD420008D3
:10011000BD420008BD420008BD420008BD420008C3
:10012000BD420008BD420008BD420008BD420008B3
:10013000BD420008BD420008BD420008BD420008A3
:10014000BD420008BD420008BD42000881410008D0
:10015000BD420008BD420008BD420008BD42000883
:10016000BD420008BD420008BD420008BD42000873
:10017000BD420008BD420008BD420008000000006A
:10018000BD420008BD420008BD420008BD42000853
:10019000BD420008BD420008BD420008BD42000843
:1001A000BD420008BD420008BD420008BD42000833
:1001B000BD420008BD420008BD420008BD42000823
:0801C000BD420008BD42000829
:1001D00010F8012B11F8013B012A28BF9A42F7D0F1
:1001E000D01A70470000000000000000000000006E
:1001F00001F0FF01102A2BDB10F0070F08D010F8D8
:10020000013B013A8B422DD010F0070F42B3F6D1DB
:10021000F0B441EA012141EA014122F007047FF0F4
:1002200000070023F0E80256083C85EA010586EA4B
:10023000010685FA47F5A3FA87F586FA47F6A5FA87
:1002400087F68EB9EED1F0BC01F0FF0102F0070293
:1002500032B110F8013B013A83EA010313B1F8D13E
:100260000020704701387047002D06BF354603381F
:10027000073815F0010F07D1013015F4807F02BF58
:10028000013015F4C03F0130F0BC0138704700BFA9
:10029000034613F8012B002AFBD1181A01387047C6
:1002A00081F0004102E000BF83F0004330B54FEA27
:1002B00041044FEA430594EA050F08BF90EA020F94
:1002C0001FBF54EA000C55EA020C7FEA645C7FEA27
:1002D000655C00F0E2804FEA5454D4EB5555B8BF4A
:1002E0006D420CDD2C4480EA020281EA030382EABB
:1002F000000083EA010180EA020281EA0303362D4D
:1003000088BF30BD11F0004F4FEA01314FF4801C1F
:100310004CEA113102D0404261EB410113F0004F31
:100320004FEA03334CEA133302D0524263EB4303E8
:1003300094EA050F00F0A780A4F10104D5F1200E86
:100340000DDB02FA0EFC22FA05F2801841F10001E1
:1003500003FA0EF2801843FA05F359410EE0A5F1B5
:1003600020050EF1200E012A03FA0EFC28BF4CF0E6
:10037000020C43FA05F3C01851EBE37101F000459C
:1003800007D54FF0000EDCF1000C7EEB00006EEBA9
:100390000101B1F5801F1BD3B1F5001F0CD3490833
:1003A0005FEA30004FEA3C0C04F101044FEA44528A
:1003B00012F5800F80F09A80BCF1004F08BF5FEA11
:1003C000500C50F1000041EB045141EA050130BDF1
:1003D0005FEA4C0C404141EB0101013C28BFB1F503
:1003E000801FE9D291F0000F04BF01460020B1FA4E
:1003F00081F308BF2033A3F10B03B3F120020CDA21
:100400000C3208DD02F1140CC2F10C0201FA0CF0FE
:1004100021FA02F10CE002F11402D8BFC2F1200C63
:1004200001FA02F120FA0CFCDCBF41EA0C01904019
:10043000E41AA2BF01EB0451294330BD6FEA040462
:100440001F3C1CDA0C340EDC04F11404C4F120024D
:1004500020FA04F001FA02F340EA030021FA04F35F
:1004600045EA030130BDC4F10C04C4F1200220FAB6
:1004700002F001FA04F340EA0300294630BD21FAF4
:1004800004F0294630BD94F0000F83F4801306BFBA
:1004900081F480110134013D4EE77FEA645C18BFAE
:1004A0007FEA655C29D094EA050F08BF90EA020F45
:1004B00005D054EA000C04BF1946104630BD91EA3D
:1004C000030F1EBF0021002030BD5FEA545C05D140
:1004D0004000494128BF41F0004130BD14F580047F
:1004E0003CBF01F5801130BD01F0004545F0FE41F3
:1004F00041F470014FF0000030BD7FEA645C1ABF28
:10050000194610467FEA655C1CBF0B46024650EA5E
:10051000013406BF52EA033591EA030F41F400218A
:1005200030BD00BF90F0000F04BF0021704730B510
:100530004FF4806404F132044FF000054FF00001E5
:1005400050E700BF90F0000F04BF0021704730B5A6
:100550004FF4806404F1320410F0004548BF40427B
:100560004FF000013EE700BF42004FEAE2014FEAD0
:1005700031014FEA02701FBF12F07F4393F07F4FAB
:1005800081F06051704732F07F4208BF704793F0AE
:100590007F4F04BF41F40021704730B54FF46074C1
:1005A00001F0004521F000411CE700BF50EA0102C4
:1005B00008BF704730B54FF000050AE050EA01026D
:1005C00008BF704730B511F0004502D5404261EBDD
:1005D00041014FF4806404F132045FEA915C3FF41E
:1005E000D8AE4FF003025FEADC0C18BF03325FEABB
:1005F000DC0C18BF033202EBDC02C2F1200300FA6C
:1006000003FC20FA02F001FA03FE40EA0E0021FA90
:1006100002F11444BDE600BF70B54FF0FF0C4CF47E
:10062000E06C1CEA11541DBF1CEA135594EA0C0F30
:1006300095EA0C0F00F0DEF82C4481EA030621EA6B
:100640004C5123EA4C5350EA013518BF52EA0335A6
:1006500041F4801143F4801338D0A0FB02CE4FF058
:100660000005E1FB02E506F00042E0FB03E54FF088
:100670000006E1FB03569CF0000F18BF4EF0010E80
:10068000A4F1FF04B6F5007F64F5407404D25FEA7C
:100690004E0E6D4146EB060642EAC62141EA55512F
:1006A0004FEAC52040EA5E504FEACE2EB4F1FD0C71
:1006B00088BFBCF5E06F1ED8BEF1004F08BF5FEAEF
:1006C000500E50F1000041EB045170BD06F00046A1
:1006D00046EA010140EA020081EA0301B4EB5C044E
:1006E000C2BFD4EB0C0541EA045170BD41F4801146
:1006F0004FF0000E013C00F3AB8014F1360FDEBF6B
:10070000002001F0004170BDC4F10004203C35DA46
:100710000C341BDC04F11404C4F1200500FA05F3C9
:1007200020FA04F001FA05F240EA020001F000426A
:1007300021F0004110EBD37021FA04F642EB0601E0
:100740005EEA430E08BF20EAD37070BDC4F10C040A
:10075000C4F1200500FA04F320FA05F001FA04F2CE
:1007600040EA020001F0004110EBD37041F10001BA
:100770005EEA430E08BF20EAD37070BDC4F12005C5
:1007800000FA05F24EEA020E20FA04F301FA05F22D
:1007900043EA020321FA04F001F0004121FA04F2D5
:1007A00020EA020000EBD3705EEA430E08BF20EAA5
:1007B000D37070BD94F0000F0FD101F000464000DF
:1007C00041EB010111F4801F08BF013CF7D041EA61
:1007D000060195F0000F18BF704703F00046520065
:1007E00043EB030313F4801F08BF013DF7D043EA36
:1007F0000603704794EA0C0F0CEA135518BF95EAEC
:100800000C0F0CD050EA410618BF52EA4306D1D172
:1008100081EA030101F000414FF0000070BD50EA91
:10082000410606BF1046194652EA430619D094EA1B
:100830000C0F02D150EA013613D195EA0C0F05D105
:1008400052EA03361CBF104619460AD181EA030159
:1008500001F0004141F0FE4141F470014FF0000011
:1008600070BD41F0FE4141F4780170BD70B54FF0AC
:10087000FF0C4CF4E06C1CEA11541DBF1CEA13552C
:1008800094EA0C0F95EA0C0F00F0A7F8A4EB05040E
:1008900081EA030E52EA03354FEA013100F0888005
:1008A0004FEA03334FF0805545EA131343EA1263CE
:1008B0004FEA022245EA111545EA10654FEA002683
:1008C0000EF000419D4208BF964244F1FD0404F53C
:1008D000407402D25B084FEA3202B61A65EB030598
:1008E0005B084FEA32024FF480104FF4002CB6EB55
:1008F000020E75EB030E22BFB61A754640EA0C00D5
:100900005B084FEA3202B6EB020E75EB030E22BF14
:10091000B61A754640EA5C005B084FEA3202B6EB55
:10092000020E75EB030E22BFB61A754640EA9C0014
:100930005B084FEA3202B6EB020E75EB030E22BFE4
:10094000B61A754640EADC0055EA060E18D04FEAA2
:10095000051545EA16754FEA06164FEAC30343EA42
:1009600052734FEAC2025FEA1C1CC0D111F4801F0F
:100970000BD141EA00014FF000004FF0004CB6E708
:1009800011F4801F04BF01430020B4F1FD0C88BFA7
:10099000BCF5E06F3FF6AFAEB5EB030C04BFB6EBB2
:1009A000020C5FEA500C50F1000041EB045170BDA5
:1009B0000EF0004E4EEA113114EB5C04C2BFD4EBD2
:1009C0000C0541EA045170BD41F480114FF0000E56
:1009D000013C90E645EA060E8DE60CEA135594EAD2
:1009E0000C0F08BF95EA0C0F3FF43BAF94EA0C0FD5
:1009F0000AD150EA01347FF434AF95EA0C0F7FF44A
:100A000025AF104619462CE795EA0C0F06D152EA9D
:100A100003353FF4FDAE1046194622E750EA410681
:100A200018BF52EA43067FF4C5AE50EA41047FF492
:100A30000DAF52EA43057FF4EBAE12E74FF0FF3CF7
:100A400006E000BF4FF0010C02E000BF4FF0010CC8
:100A50004DF804CD4FEA410C7FEA6C5C4FEA430C41
:100A600018BF7FEA6C5C1BD001B050EA410C0CBF90
:100A700052EA430C91EA030F02BF90EA020F0020F2
:100A8000704710F1000F91EA030F58BF994208BF59
:100A900090422CBFD8176FEAE37040F00100704716
:100AA0004FEA410C7FEA6C5C02D150EA013C07D16D
:100AB0004FEA430C7FEA6C5CD6D152EA033CD3D0B8
:100AC0005DF8040B704700BF8446104662468C46B2
:100AD0001946634600E000BF01B5FFF7B7FF0028E5
:100AE00048BF10F1000F01BD4DF808EDFFF7F4FF0E
:100AF0000CBF012000205DF808FB00BF4DF808ED99
:100B0000FFF7EAFF34BF012000205DF808FB00BFBB
:100B10004DF808EDFFF7E0FF94BF012000205DF8DD
:100B200008FB00BF4DF808EDFFF7CEFF94BF012092
:100B300000205DF808FB00BF4DF808EDFFF7C4FF8B
:100B400034BF012000205DF808FB00BF4FEA410CD4
:100B50007FEA6C5C02D150EA013C0AD14FEA430CB7
:100B60007FEA6C5C02D152EA033C02D14FF00000F4
:100B700070474FF0010070474FEA410212F5001232
:100B800015D211D56FF47873B3EB625212D94FEAD4
:100B9000C12343F0004343EA505311F0004F23FABE
:100BA00002F018BF404270474FF00000704750EA13
:100BB000013005D111F0004008BF6FF000407047D0
:100BC0004FF00000704700BF4FEA4102B2F1E0432E
:100BD00024BFB3F5001CDCF1FE5C0DD901F0004C24
:100BE0004FEAC0024CEA5070B2F1004F40EB830074
:100BF00008BF20F00100704711F0804F21D113F1A0
:100C00003872BCBF01F00040704741F480114FEAD8
:100C10005252C2F11802C2F1200C10FA0CF320FA61
:100C200002F018BF40F001004FEAC1234FEAD3237E
:100C300003FA0CFC40EA0C0023FA02F34FEA4303E8
:100C4000CCE77FEA625307D150EA01331EBF4FF071
:100C5000FE4040F44000704701F0004040F0FE408C
:100C600040F40000704700BF53B94AB9002908BFDB
:100C700000281CBF4FF0FF314FF0FF3000F00CB8E0
:100C8000ADF1080C6DE904CE13F09EFFDDF804E031
:100C9000DDE9022304B07047704700BF0348044BEE
:100CA000834202D0034B03B118477047040300206E
:100CB00004030020000000000548064B1B1AD90F52
:100CC00001EBA301491002D0034B03B11847704751
:100CD00004030020040300200000000010B5064CAF
:100CE000237843B9FFF7DAFF044B13B10448AFF39D
:100CF00000800123237010BD0803002000000000C5
:100D0000C04E010808B5054B1BB105490548AFF3B6
:100D10000080BDE80840FFF7CFBF00BF0000000023
:100D20000C030020C04E0108074AD2F8FC3043F003
:100D30008073C2F8FC30054B00225A601A6842F0FA
:100D400001021A60704700BF00ED00E0001000E0F3
:100D500030B585B00024009401940294039408F007
:100D600059F901238DF800308DF8014001941F22BC
:100D70008DF8082087228DF809208DF80A408DF81B
:100D80000B408DF80C308DF80D308DF80E408DF83D
:100D90000F40684608F05CF9042008F049F905B0F6
:100DA00030BD00002DE9F04F8FB009AD002409944B
:100DB0000A940B940C940D94764B1A6B42F010022B
:100DC0001A631A6B02F010020192019A1A6B42F038
:100DD00004021A631A6B02F004020292029A1A6B5E
:100DE00042F020021A631A6B02F020020392039A67
:100DF0001A6B42F080021A631A6B02F080020492AE
:100E0000049A1A6B42F001021A631A6B02F0010293
:100E10000592059A1A6B42F040021A631A6B02F0AF
:100E200040020692069A1A6B42F002021A631A6B8B
:100E300002F002020792079A1A6B42F008021A6344
:100E40001B6B03F008030893089BDFF85C812246C4
:100E50004FF2F841404609F06AF8DFF85091224617
:100E60000F21484609F063F84B4F22464FF2BF71FD
:100E7000384609F05CF822464FF68071474809F081
:100E800056F8DFF82CA122464FF47F61504609F056
:100E90004EF822464FF44C71414809F048F84FF2A1
:100EA000F843099301260A960B940C942946404670
:100EB00008F034FF4FF4407309930A940B942946C9
:100EC000404608F02BFF4FF00F0BCDF824B00A96E8
:100ED0000B940C942946484608F020FF4FF2BF734C
:100EE00009930A960B940C942946384608F016FF8D
:100EF0004FF6807309930A960B940C942946274861
:100F000008F00CFF41F6F07309930A960B940C94C9
:100F10002946504608F002FF4FF4604309930A94B3
:100F20000B942946504608F0F9FE4FF404630993E8
:100F30000A940B942946384608F0F0FE4FF4E0730B
:100F400009930A940B942946164808F0E7FE4FF4DB
:100F50004C7309930A960B940C942946104808F098
:100F6000DDFE32468021404608F0E1FF32464FF474
:100F70008041384608F0DBFF32464FF48061384646
:100F800008F0D5FF32465946484608F0D0FF0FB06A
:100F9000BDE8F08F00380240001802400010024007
:100FA0000004024000080240001402400000024019
:100FB000000C024030B58BB000240994584D4422F7
:100FC0002146284611F077FD564B2B600123EB811B
:100FD0002B82092385F8213040F6AC53EB610623C0
:100FE00085F82730032385F828304F4B2B630E23D9
:100FF000EB6221460DE04C481A2201FB02F28318F5
:10100000815400229A711A81DA711A7101225A717F
:1010100011440D29EFDD444B0C20188103229A71F5
:101020000021D9715971588483F8202083F8211048
:10103000D9770920A3F8700083F86E2083F86F1029
:1010400083F86D10A3F88A0083F8882083F889104C
:1010500083F887102422A3F8A420062083F8A20096
:1010600083F8A31083F8A110B424A3F8BE4083F83A
:10107000BC0083F8BD1083F8BB103C25A3F8D85002
:10108000022483F8D64083F8D71083F8D510A3F84C
:10109000F25083F8F04083F8F11083F8EF101E242B
:1010A000A3F80C4183F80A0183F80B1183F80911A6
:1010B000A3F8264183F8240183F8251183F823112E
:1010C000684611F0F8FC194B0193194B0393194B27
:1010D0000693134B0893184D01224021284608F02F
:1010E00026FF052007F00CFF01221021284608F0FA
:1010F0001EFF694609A805F0CBFE50B9099805F016
:101100006DFE044640B9099805F09EFE20460BB0DE
:1011100030BD4FF0FF34F9E74FF0FF34F6E700BF82
:101120000805002000E1F5059C030020809698004A
:101130009C5F0108A00D00200014024030B583B070
:10114000054607F0D7FE044604E007F0D3FE001B77
:10115000A8420ED2002301220DF1070106480AF031
:1011600067FC0028F1D19DF80710044805F09CF8B1
:10117000EBE703B030BD00BFCC0C0020680B0020B3
:1011800008B5074804F07CFD064803F026FB032160
:10119000054805F0EEF8054804F0A8FC08BD00BFBE
:1011A000680B0020C0090020CC0800208C0700201C
:1011B00008B5024804F0F5FB08BD00BF8C0700200D
:1011C000014B1B68586A7047540D002082B0019093
:1011D000044B196800234B624A6A019B9A42FBD375
:1011E00002B07047540D002010B50B4B5C680B4BE0
:1011F000196807A3D3E90023A0FB0101FFF734FD21
:10120000054B5B681B1B8342FAD310BDAFF3008014
:1012100000CA9A3B00000000001000E03C000020E3
:1012200008B50A460146024803F0CCFB08BD00BFE2
:10123000C009002010B582B004468DF807000A23CB
:1012400001220DF1070103480AF088FB204602B095
:1012500010BD00BF440C002070B594B00BAC464DDF
:101260000FCD0FC40FCD0FC42B6823804FF47A73BA
:1012700021220BA941480AF071FB414804F09EF974
:101280000A2007F03DFE002240213E4808F04FFEB4
:101290000A2007F035FE002207213B4808F047FEF0
:1012A0000A2007F02DFE00241FE0354D0026009691
:1012B000202329222146284603F024FE00962023DD
:1012C0002A222146284603F01DFE009620232B22C9
:1012D0002146284603F016FE009620232C222146A4
:1012E000284603F00FFE0134E4B2032CDDD90A20B6
:1012F00007F006FE00224FF40051244808F017FEC4
:101300000A2007F0FDFD002408E0002300932D22B1
:1013100021461B4803F0F6FD0134E4B2032CF4D956
:101320000A2007F0EDFD194C00224FF40041204641
:1013300008F0FDFD00224FF48041204608F0F7FD43
:101340000A2007F0DDFD002208210F4808F0EFFD1C
:101350000A2007F0D5FD03AC0D4D0FCD0FC495E865
:101360000F0084E80F004FF47A731F2203A903488B
:101370000AF0F4FA14B070BD1C4F0108440C0020B0
:101380008C070020000C02400018024000100240B0
:10139000404F010870B590B00DF1200C134C0FCCEC
:1013A000ACE80F0094E80F008CE80F00104E4FF4EB
:1013B0007A731F2208A930460AF0D0FA0D4B0E4A64
:1013C0000E490F4807F0C6FB01AC0E4D0FCD0FC400
:1013D00095E8070084E807004FF47A731B2201A9FF
:1013E00030460AF0BBFA10B070BD00BF604F010874
:1013F000440C00209C050020AC0500209C06002029
:10140000FC5B0108804F010870B52DED048B06468A
:10141000B0EE408AF0EE609AF0EE418AB0EE619A4A
:1014200000241AE04FF48071224808F086FD224D16
:10143000284603F0D6FEFCEEC87A17EE900AFFF7B6
:10144000C5FE284603F0DAFE79EEC87AFCEEE77AAC
:1014500017EE900AFFF7BAFE0134B442E2DBAF2088
:10146000FFF7B4FE002420E04FF48071114808F02B
:1014700064FD114D284603F0B4FE9FED108A68EE1E
:10148000887AFCEEE77A17EE900AFFF7ADFE284661
:1014900003F0B4FE79EE687A67EE887AFCEEE77ABC
:1014A00017EE900AFFF7A0FE0134B442DCDBBDEC7E
:1014B000048B70BD000C02408C07002000007A44B1
:1014C0002DE9F0412DED028B8EB05D4A136801339A
:1014D000136001AC5B4A3221204611F0C9F8204666
:1014E000FEF7D6FE4FF47A7382B2214656480AF0D0
:1014F00035FA0121554803F081FD00254FF0010820
:1015000000E001350E2D57DC4FF40071504808F013
:1015100014FD2E014F4F07EB05174C4C00223946A6
:10152000204604F039F901223946204604F034F906
:10153000DFED498A9FED498AF0EE681AB6EE001A8F
:10154000F0EE480AB3EE0E0A1020FFF75DFF444F9D
:1015500000223946204604F01FF901223946204670
:1015600004F01AF9F0EE681AB6EE001AF0EE480A26
:10157000B3EE0E0A1020FFF747FF3A4B1E4400223D
:101580003146204604F008F901223146204604F095
:1015900003F9F0EE681AB6EE001AF0EE480AB3EE60
:1015A0000E0A1020FFF730FF08F10108B8F11F0FF5
:1015B000A7DD4FF00108A4E74FF48061244808F04C
:1015C000BCFC002413E0224D01222021284608F013
:1015D000AEFC4FF4FA70FFF7F9FD002220212846F7
:1015E00008F0A5FC4FF4FA70FFF7F0FD01341E4B34
:1015F0001B7807EE103AB8EEC77A1C4BD3ED006AA1
:10160000C6EE877AFDEEE77A17EE903AA342DADC6F
:1016100001AC0B4B1B68164A3221204611F028F80A
:101620002046FEF735FE4FF47A7382B22146064813
:101630000AF094F90EB0BDEC028BBDE8F08100BF5A
:101640006C0500209C4F0108440C00208C070020F2
:10165000000C02409C06002000002F43000027439E
:101660009C050020AC05002008000020040000209C
:10167000BC4F010870B59CB0002411E003AD631CA1
:10168000244A6421284610F0F3FF2846FEF700FEA6
:101690004FF47A7382B229461F480AF05FF9013489
:1016A000032C23DCE5B229461C4803F005FD002885
:1016B000E4D02946194804F015F910EE100A661C0A
:1016C00003ADFEF751FFCDE900013346144A642112
:1016D000284610F0CDFF2846FEF7DAFD4FF47A7366
:1016E00082B229460C480AF039F9D8E703AC202326
:1016F0000C4A6421204610F0BBFF2046FEF7C8FDCF
:101700004FF47A7382B2214603480AF027F91CB0DD
:1017100070BD00BF04500108440C00208C0700205D
:10172000DC4F01082850010870B582B007F0E2FBD9
:101730005E4B1B68C01A41F28833984212D80026CB
:101740000DF106020DF10701594807F00FF838B9FD
:101750009DF8073003B902269DF8063003B9032629
:10176000002416E04FF48071524808F0D9FB28B9E4
:10177000012607F0BFFB4D4B1860E1E74FF4007105
:101780004C4808F0CDFB08B10026F2E70126F0E74F
:101790000134032C13DCE5B22946474803F08CFCE6
:1017A00060B12946444804F09DF8DFED447AB4EE78
:1017B000E70AF1EE10FAEBDD052600E0042607F05B
:1017C00099FB3F4B1B68C01A42F21073984217D81E
:1017D00007F090FB3B4B1B68C01A43F698239842D6
:1017E00016D8394B5B782BBB07F084FB374B1B6853
:1017F000C01A47F23053984200D9082600231FE050
:10180000334805F099F807F075FB2D4B1860DFE7BA
:10181000304804F085FE47F22F53984204DD2E4BEA
:10182000984202DD072600E0072607F063FB254B00
:101830001860D6E707F05EFB244B1860D4E701334D
:101840000F2B15DC254A02EB8302D2ED007AB0EEB5
:10185000047AF4EEC77AF1EE10FA08DC9FED207AF4
:10186000F4EEC77AF1EE10FAE9D50A2600E009266F
:101870001C4B93ED007ADFED1C7AB4EEE77AF1EEC3
:1018800010FA00DD0E2607F035FB184B1B68C01A56
:101890004EF66023984206D807F02CFB134B1860D5
:1018A000304602B070BD1026F6E700BF5C05002090
:1018B000CC070020001402408C0700200000AA4240
:1018C0005805002054050020680B0020500500201A
:1018D000A4090020CC080020B0AD01001C080020A5
:1018E000CDCCCC3D48090020000096424C0500209C
:1018F00030B595B004460346214A5021684610F0A1
:10190000B7FE6846FEF7C4FC4FF47A7382B26946AC
:101910001C480AF023F8042C2AD021D8023CE4B257
:10192000012C06D80121184806F0B6FD642007F006
:10193000E7FAEC46154C0FCCACE80F0094E80F002A
:10194000ACE80700ACF800306846FEF7A1FC4FF4A5
:101950007A7382B269460B480AF000F815B030BDC0
:10196000062CE6D104F0E0FF642007F0C9FAE0E7B6
:10197000074803F084FF322007F0C2FAD9E700BF1E
:101980005C500108440C0020CC0700208450010862
:101990008C07002008B5054805F002F9044805F059
:1019A000FFF8642007F0ACFAFBE700BF9C080020BA
:1019B0008408002000B9704770B5ACB005462F4BC5
:1019C0001C6801341C602E4B187044222D4902A85B
:1019D00011F048F913AE01942CAB03EB850353F8D7
:1019E000A83C00932B46284A6421304610F040FE64
:1019F0003046FEF74DFC4FF47A7382B231462348ED
:101A000009F0ACFF002408E04FF48041204808F0C2
:101A100094FAC82007F074FA01341E4AA2FB05327A
:101A200002F0FC0303EB9203EB1ADBB2A342EBDA06
:101A3000A5F10903DBB2042B04D9174B1B78C3B102
:101A40002CB070BD13AE3446144D0FCD0FC40FCD66
:101A50000FC40FCD0FC42B6823703046FEF718FC5F
:101A60004FF47A7382B23146084809F077FFFFF7E6
:101A700091FF2846FFF73CFFE2E700BF6405002026
:101A800068050020D84E0108A4500108440C00202D
:101A900000140240CDCCCCCC60050020C45001081D
:101AA00008B5FFF741FE08B9012008BDFFF782FF26
:101AB000064B1B782BB9064B1B680A2B03D8012059
:101AC000F3E70020F1E70020EFE700BF600500200A
:101AD000640500202DE9F04FADF5437D1090119184
:101AE000B04B13AC186859689A68DB680FC44FF4A0
:101AF000F2720021204610F0DEFFAB4B1B78002B6A
:101B000000F0008113AF3846FEF7C2FB05463E18D1
:101B1000A64C0FCC78517160B260F36090ACA44BCE
:101B20001B680093A34B1B78A34AC821204610F0E2
:101B30009FFD13AD2146284610F0C5FF9F4B186846
:101B4000FEF712FDCDE90A019D4BD3E90023CDE953
:101B500008239C4BD3E90023CDE906239A4B186850
:101B6000FEF702FDCDE90401984B1868FEF7FCFC76
:101B7000CDE90201964B1868FEF7F6FCCDE90001AD
:101B8000944AC821204610F073FD2146284610F0E3
:101B90009AFF0DF14B040DF14A0221468E4806F0E2
:101BA000E5FD9DF84B30002B00F0B7808B4B9DF886
:101BB0004A20002A00F0B380884A90AD0092884AFB
:101BC000C821284610F054FD13AE2946304610F0C7
:101BD0007AFF844C0021204604F0B9FE07EE900AFB
:101BE000F8EE677A804BC3ED007A0121204604F0BD
:101BF000AEFE07EE900AF8EE677A7C4AC2ED007AF4
:101C00000221204604F0A3FE07EE900A784FF8EE7A
:101C1000677AC7ED007A0321204604F098FE07EEAC
:101C2000900ADFF80082F8EE677AC8ED007A0421A6
:101C3000204604F08CFE07EE900ADFF8EC91F8EEF7
:101C4000677AC9ED007A0521204604F080FE07EE90
:101C5000900ADFF8D8A1F8EE677ACAED007A06217B
:101C6000204604F074FE07EE900ADFF8C4B1F8EEE7
:101C7000677ACBED007A0721204604F068FE07EE74
:101C8000900AF8EE677A5B4BC3ED007A17EE900A84
:101C9000FEF76AFCCDE90E01DBF80000FEF764FCFC
:101CA000CDE90C01DAF80000FEF75EFCCDE90A018F
:101CB000D9F80000FEF758FCCDE90801D8F800007B
:101CC000FEF752FCCDE906013868FEF74DFCCDE980
:101CD0000401464A1068FEF747FCCDE90201424B79
:101CE0001868FEF741FCCDE90001434AC8212846A7
:101CF00010F0BEFC2946304610F0E5FE0023DFED73
:101D00003F7A16E013AC2046FEF7C2FA03462518C8
:101D10003B4A03CAE050696000E73A4B47E7394A5B
:101D20004BE7394A02EB830292ED007A77EE877A2D
:101D300001330F2BF5DD90AC012302939FED337A35
:101D400067EE877A17EE900AFEF70EFCCDE90001E8
:101D50002F4AC821204610F08BFC13AD214628469F
:101D600010F0B1FE2B4B1B7801932B4B1B7800938B
:101D70002A4B1B782A4AC821204610F079FC2146BC
:101D8000284610F0A0FE119B5C1E22462946109D9D
:101D9000284610F0C6FE00232B550DF5437DBDE807
:101DA000F08F00BF14520108600500200C5101089B
:101DB000640500206805002024510108C80800209F
:101DC000C0080020B80800209C09002098090020C5
:101DD000A009002044510108CC070020F850010858
:101DE00070510108900500208C0500208805002016
:101DF00084050020700500208451010800000000C7
:101E00001C510108005101081C0800200000803D01
:101E1000C85101080B000020090000200A00002022
:101E2000EC510108800500207C0500207805002089
:101E30007405002072B6FEE730B59FB016AC394D80
:101E40000FCD0FC495E80F0084E80F004FF47A73AC
:101E50001F2216A9344809F081FD344803F0DCF94B
:101E600038B3324803F00BFD002835D02F4803F07B
:101E700043F9002843D02D4803F0D4FC0DF12C0C7D
:101E80002B4C0FCCACE80F000FCCACE80F0094E863
:101E90000700ACE803002CF8022B120C8CF8002091
:101EA0004FF47A732A220BA91F4809F057FD1FB07F
:101EB00030BD6C461F4D0FCD0FC40FCD0FC495E83C
:101EC000070003C422704FF47A732822694616482B
:101ED00009F044FDFFF7AEFF6C46174D0FCD0FC460
:101EE0000FCD0FC495E8070003C422704FF47A7336
:101EF000282269460C4809F031FDFFF79BFF6C462C
:101F00000E4D0FCD0FC40FCD0FC495E8030044F85C
:101F1000040B21704FF47A7324226946024809F0B9
:101F20001DFDA8E724520108440C00208C07002066
:101F300044520108705201089C520108C85201081D
:101F400000B589B00023049305930693079301938A
:101F5000029303931448154A0260D72242608360BB
:101F60004FF6FE72C26003614361836109F072F94A
:101F700098B94FF48053049304A90B4809F0A8F9C9
:101F800068B9002301930293039301A9064809F05D
:101F90001FFA30B909B05DF804FBFFF74BFFFFF7FC
:101FA00049FFFFF747FF00BF540D0020000001402C
:101FB00008B51148114B0360114B43600023836047
:101FC0000122C260036143618361C361036208F05F
:101FD000BFF950B90021084808F0AEFB38B900211C
:101FE000054808F0D6FB20B908BDFFF723FFFFF72F
:101FF00021FFFFF71FFF00BF100F0020005400401B
:10200000A06E911008B51148114B0360114B43604D
:10201000002383600122C260036143618361C36165
:10202000036208F095F950B90021084808F084FBD4
:1020300038B90021054808F0ACFB20B908BDFFF70E
:10204000F9FEFFF7F7FEFFF7F5FE00BFBC0E00201C
:1020500000580040A06E911008B51148114B036064
:10206000114B4360002383600122C260036143611E
:102070008361C361036208F06BF950B9002108481D
:1020800008F05AFB38B90021054808F082FB20B956
:1020900008BDFFF7CFFEFFF7CDFEFFF7CBFE00BF79
:1020A000680E0020005C0040A06E911008B510483A
:1020B000104B03604FF482734360002383604FF43E
:1020C000E062C260036143614FF4007282611822D2
:1020D000C2610362436283620722C2620363082310
:1020E000436308F0ADFC00B908BDFFF7A3FE00BFD5
:1020F000040E00200030014008B51048104B03606A
:102100004FF482734360002383604FF4E062C26047
:10211000036143614FF4007282611822C26103625D
:10212000436283620722C26203630823436308F0A9
:1021300087FC00B908BDFFF77DFE00BFA00D0020A1
:102140000034014008B50B480B4B03604FF41653A5
:10215000436000238360C36003610C22426183619A
:10216000C3610362436209F029FD00B908BDFFF7AE
:1021700061FE00BFCC0C00200050004008B50B48A9
:102180000B4B03604FF4E133436000238360C36073
:1021900003610C2242618361C3610362436209F0FF
:1021A0000DFD00B908BDFFF745FE00BF440C00203F
:1021B0000048004010B594B008AC30220021204601
:1021C00010F079FC0023039304930593069307937F
:1021D00007F0CAFE224B1A6C42F080521A641B6C44
:1021E00003F080530193019B1E4B1A6842F4404256
:1021F0001A601B6803F440430293029B0123089377
:102200004FF48033099302230E934FF480020F9210
:10221000082210924FF4D87211921293092313934B
:10222000204606F041FFA8B907F0A6FEA0B90F238B
:10223000039302230493002305934FF4A0530693C2
:102240004FF480530793072103A807F0B5F928B985
:1022500014B010BDFFF7EEFDFFF7ECFDFFF7EAFD50
:10226000003802400070004010B5A2B001AC8422DA
:102270000021204610F01FFC064B01934FF08073A5
:102280000F93204607F074FA08B922B010BDFFF78B
:10229000D1FD00BF100020002DE9F04F2DED0A8B7D
:1022A000ADF52F7DFEF754FD06F00CFEFFF782FF23
:1022B000FFF7DAFFFEF776FDFFF742FEFFF778FE45
:1022C000FFF7A0FEFFF7C8FEFFF7F0FE01F0D0FA1F
:1022D000FFF712FFFFF736FFFFF750FF01F0F0FFA7
:1022E000324803F037FC324808F0E8FEFEF71CFDE8
:1022F000304806F005FE304C00224021204607F011
:1023000016FE2E4D01221021284607F010FE6420F3
:1023100006F0F6FD01222021284607F008FE642081
:1023200006F0EEFD01224021204607F000FE642069
:1023300006F0E6FDFEF73EFE20B14FF47A7006F09F
:10234000DFFDFAE705461E4C01228021204607F0FA
:10235000EEFD642006F0D4FD01224FF4807120468A
:1023600007F0E5FD642006F0CBFD01224FF400717B
:10237000204607F0DCFD642006F0C2FD04F0D4FA2C
:102380000895099530E028EEA87AF7EE007A77EE06
:10239000C77A28EE080A37EEC00A0CF0F7F8B1EE5B
:1023A000400A084B83ED000A05E300BF440C0020FF
:1023B000540D002020BF020000140240001802400B
:1023C00000100240F4080020E34BC3ED008AE34B09
:1023D00083ED008AE24B83ED009A4FF4967006F08D
:1023E0008FFD089B01330893089B092B00F385841C
:1023F000DC4C204604F0A0FAB4F9003007EE903A25
:10240000F8EEE77ADFF8CCB3CBED007AB4F902301E
:102410000BEE903AF8EEEBBADFF8BCA3CAED00BAC7
:10242000B4F904300BEE103AB8EECBBADFF8AC9347
:1024300089ED00BA94ED029AB1EE499ADFF8A083D3
:1024400088ED009AD4ED038AF1EE688AC64FC7ED95
:10245000008AD4ED04AAC54AC2ED00AAB4F914302A
:1024600008EE103AB8EEC88AC14E86ED008AB4F97B
:10247000163009EE903AF8EEE99ABE4DC5ED009A95
:10248000B4F918300AEE103AB8EECAAABA4C84ED84
:1024900000AA17EE900AFEF767F8ABA3D3E9002372
:1024A000FEF7BAF8FEF790FB0CEE100ACBF800002E
:1024B0001BEE900AFEF758F8A3A3D3E90023FEF71A
:1024C000ABF8FEF781FB0BEE900ACAF800001BEE9A
:1024D000100AFEF749F89CA3D3E90023FEF79CF805
:1024E000FEF772FB0BEE100AC9F80000A34BD3ED08
:1024F000007A3CEE67CA8BED00CAD3ED017A7BEE21
:10250000E7BACAED00BAD3ED027A3BEE67BA89EDBD
:1025100000BADFED9B7A29EE279A88ED009A68EEE3
:10252000A78AC7ED008A6AEEA7AA904AC2ED00AA60
:10253000944BD3ED007A39EE679A88ED009AD3ED8B
:10254000017A78EEE78AC7ED008AD3ED027A7AEE57
:10255000E7AAC2ED00AA18EE100AFEF705F87AA362
:10256000D3E90023FEF758F8FEF72EFB08EE100A19
:10257000306019EE900AFDF7F7FF73A3D3E900234B
:10258000FEF74AF8FEF720FB09EE900A28601AEEE3
:10259000100AFDF7E9FF6CA3D3E90023FEF73CF82E
:1025A000FEF712FB07EE100A2060774BD3ED007A9E
:1025B00078EE677A754A92ED00AA27EE8AAAD3EDE3
:1025C000016A79EEE66A724A92ED006A26EE866A40
:1025D0003AEE06AA93ED026A37EE467A6D4B93ED1A
:1025E000006A27EE066A3AEE06AA6B4B83ED00AA54
:1025F0006A4BD3ED009A67EEA99A694B93ED006A96
:1026000026EE866A79EE869A664B93ED006A27EE8F
:10261000066A79EE869A644BC3ED009A634B93ED9C
:10262000006A27EE868A624BD3ED007A66EEA76ACF
:1026300038EE268A5F4BD3ED007A27EE277A38EE04
:10264000078A5D4B83ED008A86ED00AAC5ED009AEE
:1026500084ED008A6AEE0A7A29EEA97A77EE877A03
:1026600028EE080A37EE800A0BF090FFCAEE007AD7
:10267000C6ED007AC9EE807AC5ED007AC8EE007A20
:10268000C4ED007A4D4B83ED00CA4D4BC3ED00BA4B
:102690004C4B83ED00BA4C4E86ED009A4B4FC7ED84
:1026A000008A4B4DC5ED00AA19EE100AFDF75CFF3C
:1026B00027A3D3E90023FDF7AFFFFEF785FA3060CB
:1026C00018EE900AFDF750FF21A3D3E90023FDF790
:1026D000A3FFFEF779FA38601AEE900AFDF744FF7F
:1026E0001BA3D3E90023FDF797FFFEF76DFA2860DF
:1026F000194B93ED008A1A4B93ED009AF0EE490ABC
:10270000B0EE480A0BF040FFDFF8D8B08BED000ABE
:10271000124BD3ED008AF0EE490AB0EE680A0BF0D6
:1027200033FFDFF8C4A08AED000AF0EE680AB0EECD
:10273000480A0BF029FFDFF8B49089ED000AFEF794
:102740003FFD55E0AFF30080AF423811FEFF0F3F71
:10275000CAC342AD69DE913F140900201009002070
:102760000C090020A4090020680900206409002049
:10277000600900205C09002058090020300000207A
:102780000C007A3C240000208C090020200000204E
:102790001C00002088090020540900208409002022
:1027A0001800002080090020500900207C0900202A
:1027B00014000020100000204C09002044090020D3
:1027C000400900203C09002038090020340900207D
:1027D00030090020780900207409002070090020C9
:1027E0006C090020200900201C0900201809002085
:1027F0000446DD4B1860DFF8D083D8F80030C21AE9
:1028000008EE102AD94B1A60DBF80000FDF7ACFE89
:10281000CDE90401B8EEC88AD7ED007A68EE277AD0
:1028200017EE900AFDF7A0FECBA3D3E90023FDF736
:10283000F3FE02460B46DDE90401FDF737FDFEF726
:10284000C3F909EE100ACA4B1860DAF80000FDF768
:102850008BFE82468B46D6ED007A68EE277A17EE1D
:10286000900AFDF781FEBCA3D3E90023FDF7D4FE57
:1028700002460B4650465946FDF718FDFEF7A4F9EF
:1028800009EE900ABB4B1860D9F80000FDF76CFE0A
:1028900006460F46D5ED007A68EE277A17EE900AC5
:1028A000FDF762FEACA3D3E90023FDF7B5FE0246B7
:1028B0000B4630463946FDF7F9FCFEF785F9AE4B7D
:1028C0001860C8F80040B0EE490A0BF0B1FF10EEF6
:1028D000100AFDF749FE04460D46B0EE490A0BF01A
:1028E000EFFE20EE008AB0EE690A0BF0DBFF28EE67
:1028F000008A68EE007A17EE900AFDF735FE002296
:102900009E4BFDF7D3FC41EC100B0BF011FF53EC89
:10291000102B20462946FDF7A9FFFEF755F908EED2
:10292000900A974B1860B0EE690A0BF081FF10EE29
:10293000100AFDF719FE04460D46B0EE690A0BF0C9
:10294000BFFE20EE008AB0EE490A0BF0ABFF28EE86
:10295000008A68EE007A17EE900AFDF705FE002265
:10296000864BFDF7A3FC41EC100B0BF0E1FE53ECA2
:10297000102B20462946FDF779FFFEF725F908EED2
:10298000100A804B1860804BD3ED007AF5EEC07AC8
:10299000F1EE10FAFFF6F7AC28EEA87AF7EE007A1F
:1029A00077EEC77A28EE080A37EEC00A0BF0EEFD84
:1029B000764B83ED000A764B1868FDF7D5FD0022B3
:1029C000744BFDF729FE04460D4618EE900AFDF7FC
:1029D000CBFD00226F4BFDF71FFE02460B46204643
:1029E0002946FDF763FCFEF7EFF808EE900A6A4B04
:1029F00018606A4B1868FDF7B7FD0022654BFDF7BC
:102A00000BFE04460D4618EE100AFDF7ADFD002240
:102A1000604BFDF701FE02460B4620462946FDF7B6
:102A200045FCFEF7D1F808EE100A5D4B18605D4BCF
:102A30001868FDF799FD0022564BFDF7EDFD0446A1
:102A40000D46524B1868FDF78FFD0022514BFDF7E4
:102A5000E3FD02460B4620462946FDF727FCFEF71C
:102A6000B3F809EE100A504B186028EEA8AA68EED9
:102A700008AA3AEE2A0A69EE099A30EE290A0BF002
:102A800085FD4A4B83ED000AB0EE6A0A0BF07EFD2D
:102A900079EE800AB0EE680A0BF076FD9FED44BA3D
:102AA00060EE0B7A17EE900AFDF75EFD2CA3D3E9DA
:102AB0000023FDF7DBFEFEF787F804463D4B186068
:102AC000B0EE4A0A0BF062FD79EE800AB0EE480AD9
:102AD0000BF05AFD60EE0B7A17EE900AFDF744FDFD
:102AE0001FA3D3E90023FDF7C1FEFEF76DF80546ED
:102AF000314B1860314B1868FDF736FD804689462A
:102B00002046FDF731FD16A3D3E90023FDF784FD30
:102B100000222B4BFDF7AAFE41EC1A0BB0EE4A0A3D
:102B2000F0EE6A0A0BF038FE54EC103B8DED040B0E
:102B30001A46234640464946FDF76EFDCDE906019B
:102B4000204B1868FDF710FD82468B46B0EE4A0A0E
:102B5000F0EE6A0A3AE000BF8DEDB5A0F7C6B03ED0
:102B6000EA2E4454FB210940EC080020E408002030
:102B70002C09002028090020240900200000F03F33
:102B8000FC080020F80800200C090020F4080020B0
:102B9000440900200000E03F08090020400900200F
:102BA000040900203C09002000090020F008002052
:102BB00000003443A009002098090020600900208B
:102BC0000080664058090020E80800200BF0A0FEB5
:102BD00057EC106B32463B4650465946FDF71CFDFC
:102BE00002460B46DDE90601FDF75EFBFDF7ECFF53
:102BF0000BEE900A2846FDF7B7FCC3A3D3E90023E8
:102C0000FDF70AFD0022C64BFDF730FE41EC1A0B22
:102C1000B0EE4A0AF0EE6A0A0BF07AFE55EC104B61
:102C200022462B4640464946FDF7F6FC02460B4637
:102C300030463946FDF7F0FC80468946B94B1868A6
:102C4000FDF792FC06460F46B0EE4A0AF0EE6A0A1D
:102C50000BF0A2FD53EC102B30463946FDF7DCFC9F
:102C600002460B4640464946FDF720FB06460F4606
:102C700022462B4650465946FDF7CEFC02460B46EF
:102C8000DDE90401FDF7C8FC02460B463046394633
:102C9000FDF70AFBFDF798FFF0EE6B0A00EE100A55
:102CA0000BF072FC60EE0B7A17EE900AFDF75CFCFD
:102CB00095A3D3E90023FDF7D9FD04460D469A4BB1
:102CC0001868FDF751FC02460B4620462946FDF7E1
:102CD000EBFAFDF779FF07EE900A944B1860F5EEDA
:102CE000C07AF1EE10FA7FF56FAB9FED917A77EE37
:102CF000877AC3ED007AFFF767BB099D27E08D480F
:102D000003F00EFC07EE900AF8EEE77A9FED8A7A60
:102D1000C7EE877A17EE900AFDF726FC9FED7C1B25
:102D200041EC100B0BF054FC53EC102B00208349AA
:102D3000FDF7BAFA78A3D3E90023FDF76DFCFDF7A0
:102D400043FF7F4B1860642006F0DAF80135042D4C
:102D5000D5DD7C480FF07EFE7B480FF07BFE7B4C80
:102D60000121204605F098FB05464FF4FA72114602
:102D7000204605F09DFD0021204605F0D7FD0121EC
:102D8000204605F0D3FD2DB1294671480FF0FAFD1C
:102D9000FFF750F80DF2B6220DF2B7216B4805F09F
:102DA000E5FC50B99DF8B7324BB16A499DF8B6328F
:102DB0003BB1684A68480FF0E5FD002409E0674927
:102DC000F4E7664AF6E7654924E0644A64480FF090
:102DD000D9FD9DF8B73213B19DF8B62202BB632C22
:102DE0001ED8642006F08CF80DF2B6220DF2B72141
:102DF000564805F0BBFC01345A4BA3FB0423DB0807
:102E000003EB8303B4EB430FE3D19DF8B732002B00
:102E1000D9D050499DF8B632002BD6D04D4AD5E7CF
:102E20001BB19DF8B622002A5FD1002B67D049491B
:102E30009DF8B632002B64D0464A4B480FF0A2FDF5
:102E40004FF40061494807F06BF8002800F09E80BD
:102E500001224FF48051464807F069F84021434869
:102E600007F05EF8002800F0988001224FF400512E
:102E70003F4807F05CF800224FF400613D4807F03E
:102E800056F83D4C01224FF40061204607F04FF800
:102E900001224FF48051204607F049F84FF4FA70B0
:102EA00006F02EF801224FF48061204607F03FF82B
:102EB0004FF4FA7006F024F8A3AC304E0FCE0FC4D6
:102EC0000FCE0FC496E8030084E803004FF47A7332
:102ED0002722A3A92A4808F041FDFEF7ADFFFEF71F
:102EE00059FAFEF7C7FB2C4670E026480FF0B2FDFA
:102EF00025480FF0AFFD154805F01AFCA0E717496B
:102F000096E7164A99E700BFEA2E4454FB21094090
:102F10006C45D9CC955BC83F0000000040A5E5405A
:102F2000008066405C0900200C0000209C09002005
:102F30000000B443CC08002080E6C5470000F03F05
:102F4000C8080020F052010818530108CC070020DF
:102F500050530108F8500108785301080051010846
:102F6000A0530108CDCCCCCC245401080018024059
:102F700000140240000C0240001002406854010896
:102F8000440C0020C8530108E853010800224FF404
:102F90008051994806F0CBFF60E700224FF40051C2
:102FA000954806F0C4FF66E74FF47A70FEF7C6F85E
:102FB000924E304602F094FF914B83ED000B304669
:102FC00002F066FF8F4B83ED000B0134092CEBDD23
:102FD000002210218C4806F0AAFF2C4613E08A4EEE
:102FE00001222021304606F0A2FF4FF4FA70FEF7CE
:102FF000EDF800222021304606F099FF4FF4FA70D8
:10300000FEF7E4F80134814B93ED007A804BD3ED69
:10301000007A27EE277ADFED7F6AC7EE267AFDEE8B
:10302000E77A17EE903AA342D9DC764BD3E900ABAE
:10303000734BD3E90089784B1E68784B1C6805F008
:1030400059FFCDE99AABCDE99C899E969F94A090BB
:103050009AA802F08DFD724B93F85C30002BFAD0E9
:10306000012208216F4806F062FF642005F048FF46
:10307000102303936C4B02932022019200930823A8
:1030800048226A496A4803F053FD08B9FEF7D2FEA8
:103090004FF480730393644B02934FF400720192D8
:1030A0000093082349226149624803F041FD08B9B1
:1030B000FEF7C0FE5E4E0021304603F017FD5D4C6A
:1030C0000021204603F012FDFF21304603F0F5FCFD
:1030D000FF21204603F0F1FC2C46072C07DC564B61
:1030E0001A78E1B2524803F07CFD0134F5E7072D70
:1030F00007DC514B1A78E9B24E4803F072FD0135F6
:10310000F5E7494C00222021204606F010FF00225E
:103110004FF40071204606F00AFF012005F0F0FE92
:1031200001222021204606F002FF01224FF4007107
:10313000204606F0FCFE142005F0E2FE01224021AC
:10314000314806F0F4FE0C230093802348223B49CB
:103150003B4803F065FC08B9FEF76CFE0C230093B6
:1031600080234A223549374803F05AFC054608B106
:1031700000241AE0FEF75EFE2146314803F0E7FB2B
:10318000314B1855FDF7DEF919A3D3E90023FDF7FC
:1031900043FA00222D4BFDF73FFAFDF715FD2C4BAE
:1031A00003EB840318600134E4B2072CE4D9002453
:1031B0001AE02146234803F0CAFB264B1855FDF7B9
:1031C000C1F90BA3D3E90023FDF726FA04F10806A1
:1031D00000221E4BFDF720FAFDF7F6FC1C4B03EB1B
:1031E000860318600134E4B2072CE2D9002674E0AB
:1031F000811AB44DE7808A3F00140240680B00201A
:10320000C0080020B8080020000C02409C090020E3
:10321000040000200000B443C8080020A0090020DA
:10322000C00900200018024000040240100F0020D6
:103230009C0800208408002000000020BC0E002014
:10324000780800206C08002064080020000010406E
:103250001C0800205C0800200023002B3BD02346E4
:103260000134E4B2322B36D8A34F3A78043AD2B2C2
:103270003A703146A14803F0B4FC3146A04803F04F
:1032800066FBA04B9855FDF75DF995A3D3E90023A4
:10329000FDF7C2F900229C4BFDF7BEF9FDF794FC47
:1032A0009A4B03EB860318603B78262BD4D9FDF7A5
:1032B0005BF98DA3D3E90023FCF7F6FF21F0004969
:1032C0008BA3D3E900234946FDF718FC08B12B4630
:1032D000C3E70023C1E70136F6B2072E04D8864BB8
:1032E0007E221A700024BAE7002642E00023002B59
:1032F0003DD023460134E4B2322B38D87E4F3A78A1
:10330000043AD2B23A703146814803F06AFC314641
:10331000804803F01CFB804B9855FDF713F970A310
:10332000D3E90023FDF778F906F1080A0022764B6D
:10333000FDF772F9FDF748FC744B03EB8A03186044
:103340003B78262BD2D9FDF70FF967A3D3E90023E9
:10335000FCF7AAFF21F0004965A3D3E90023494601
:10336000FDF7CCFB08B12B46C1E70023BFE70136D0
:10337000F6B2072E04D8604B7E221A700024B8E7FC
:10338000664C00224FF48051204606F0D0FD0A2002
:1033900005F0B6FD01224FF48051204606F0C7FD2E
:1033A00001224FF40061204606F0C1FD0C2300937A
:1033B000802349225A495B4803F032FB08B9FEF7E3
:1033C00039FD0023584A1360584A1370584A137045
:1033D0001DAC4FF4FA712046FEF77CFB2046FCF74B
:1033E00057FF81B2204600F0EBFFC2E03022514986
:1033F000514800F03DFB05F07DFD064608E005F074
:1034000079FD831B312B0FD82B46002B00F0BC809D
:10341000484C2046FCF73CFF81B2204600F0D0FF2C
:103420000128ECD00023F0E70023EEE700224FF460
:1034300000613A4806F07BFDFDF70EFF0FAE344603
:103440003E4D0FCD0FC40FCD0FC40FCD0FC495E867
:10345000030044F8040B21703046FCF719FF4FF4C9
:103460007A7382B23146364808F078FA14E0354C67
:103470004FF48051204606F060FD4FF40051204685
:1034800006F05BFD4FF48041204606F056FD4FF4F8
:103490000041204606F051FD254B1B78002BE6D15C
:1034A00077E00DF2B6220DF2B721274805F05EF95C
:1034B0009DF8B73213B19DF8B62242B963B12349E2
:1034C0009DF8B63253B1214A21480FF05BFA05F05E
:1034D00011FD204B186066E01F49F1E71E4AF3E733
:1034E000811AB44DE7808A3FE17A14AE47E1FA3F92
:1034F0009A9999999999C93F000000209C08002049
:103500007808002064080020000010401C080020FB
:10351000840800206C0800205C080020000C024099
:10352000BC0E0020900500206405002068050020E6
:103530006005002028030020580300209054010853
:10354000440C002000140240CC070020F850010871
:103550004854010824030020005101080122802161
:103560006F4806F0E4FC05F0C5FC6E4B1860FDF7F3
:10357000A7FF00F0EBF941226B496C4801F047FAD4
:10358000054600287FF432AFFEF78AFA00283FF4A0
:103590004DAF05F0AFFC634B1B68C31A41F2883294
:1035A00093423FF67EAF05F0A5FC41F28833984286
:1035B000DDD95F4C0021204603F0C9F907EE900ADF
:1035C000F8EEE77A9FED5B8A67EE887A5A4DC5ED93
:1035D000007A0121204603F0BAF907EE900AF8EECE
:1035E000E77A67EE887A554BC3ED007A02212046D0
:1035F00003F0ADF907EE900AF8EEE77A67EE887A05
:103600004F4BC3ED007A0321204603F0A0F907EEEB
:10361000900AF8EEE77A67EE887A4A4BC3ED007AB3
:103620000421204603F093F907EE900AF8EEE77ABA
:1036300067EE887A444BC3ED007A0521204603F0FB
:1036400086F907EE900AF8EEE77A67EE887A3F4B44
:10365000C3ED007A0621204603F079F907EE900ABF
:10366000F8EEE77A67EE887A394BC3ED007A0721E6
:10367000204603F06CF907EE900AF8EEE77A67EE61
:10368000887A344BC3ED007AD5ED006AB3EE097A3F
:10369000F4EEC76AF1EE10FA3FF760AF274BD3EDB7
:1036A000006AF4EEC76AF1EE10FA3FF757AF244B09
:1036B000D3ED006AF4EEC76AF1EE10FA3FF74EAFB1
:1036C000204BD3ED006AF4EEC76AF1EE10FA3FF733
:1036D00045AF1D4BD3ED006AF4EEC76AF1EE10FA68
:1036E0003FF73CAF194BD3ED006AF4EEC76AF1EE39
:1036F00010FA3FF733AF164BD3ED006AF4EEC76A0A
:10370000F1EE10FA3FF72AAFF4EEC77AF1EE10FAB5
:103710003FF724AF00228021014806F008FC22E791
:10372000000C02402403002058030020C0090020A0
:103730009005002012A5253F8C050020880500205B
:1037400084050020800500207C05002078050020ED
:10375000740500207005002010B504460068A168BB
:10376000091A08B10AF0E9FE204610BD08B5FDF7B8
:1037700007FD08BD08B5FDF71BFD08BD2DE9F043A9
:1037800083B01E461B4B1B7853BB0C4615461A4B89
:10379000586900F00F000F2825D1164F4FF001098E
:1037A00087F80090DFF8588000224FF4005140461F
:1037B00006F0BDFB1423009333462A4621460F48EA
:1037C00007F0B6FA04464A464FF40051404606F068
:1037D000AEFB00233B704CB9184603B0BDE8F08344
:1037E0004FF0FF30F9E74FF0FF30F6E74FF0FF30D2
:1037F000F3E700BF5820002000000240040E002024
:10380000000C024070B505460C4605F073FB0646F9
:10381000A1B2284600F0D4FD012806D105F06AFBCC
:10382000831B322BF4D9002000E0012070BD00B5CD
:1038300086464FF0000C4FF6FF700FE0400082B25A
:1038400041F2210050400133072B05DC10F4004FFA
:10385000F4D1400080B2F6E70CF1010C8C4505D2A2
:103860001EF80C3080EA03200023EDE75DF804FB2E
:103870002DE9F04387B001AD002401940294039434
:1038800004940594284B1A6B42F008021A631B6BD0
:1038900003F008030093009B244E01224FF40051D3
:1038A000304606F044FB4FF4005301934FF00109FA
:1038B000CDF808900394022704972946304606F075
:1038C0002DFA4FF48048CDF804804FF4881302930A
:1038D00003972946304606F021FA4FF4004301933E
:1038E000029403972946304606F018FA224606212C
:1038F000282005F05DFB282005F06AFB0C4D40F602
:103900007302214628460FF0D6F885F8009041460C
:10391000304606F005FB484514BF00200120054B4A
:10392000187007B0BDE8F08300380240000C024078
:10393000D817002059200020B0F5804F00D07047E4
:10394000014B01221A70FAE7592000203C4B1B78EA
:1039500003B9704730B583B0394B00221A704FF469
:103960008041384806F0DCFA0446012801D003B053
:1039700030BD354B01221A7000224FF400513148FE
:1039800006F0D5FA142300931123304A3049314808
:1039900007F0CEF918BB2D4B5B78A52B01D0002585
:1039A0001EE02A4B9B785A2B01D0002518E0274AAD
:1039B000537B927B43EA0223202B00D9202303EB85
:1039C000430303F6120503F60203142200929BB28E
:1039D000214A22491F4807F0ABF9044600E00025C0
:1039E00001224FF40051174806F0A1FA164B0022AD
:1039F0001A708CB91A4CA91E2046FFF718FF6B1ECF
:103A0000013CE25C635D43EA0223984209D0154A17
:103A1000136801331360AAE7134A13680133136074
:103A2000A5E729460E48FFF7EDFE20B10F4A1368BF
:103A3000013313609BE70C4A13680133136096E768
:103A400059200020000C024058200020640F002064
:103A5000D8170020040E0020750F0020E917002061
:103A6000650F00204C200020502000205420002012
:103A700000B583B00B4600920022034900F048F9DC
:103A800003B05DF804FB00BF7D37000800E00130A3
:103A90000378202BFBD0092BF9D0704770B50E4668
:103AA000FFF7F4FF0378302B14D00024234602786C
:103AB000274D15F802C01CF0040F32D0254DAB4243
:103AC0003FD803EB8303013002EB4302A2F1300342
:103AD0000134ECE74378582B18BF782B1ED1023005
:103AE0000024234605E0203A11E0D2B2303A1343D5
:103AF0002C4602781649895C11F0440F11D0651CE0
:103B0000072C1CDC013001F003010229EBD0D1B2FB
:103B10001B014029E9D9A1F13702E8E70024234637
:103B2000C5E784B10278002A18BF202A05D0092AE7
:103B300003D00D2A01D00A2A07D1336002E0002009
:103B400000E0002070BD0020FCE70020FAE700BF85
:103B5000446701089999991930B585B0044608461B
:103B600002218DF808108DF80920120A8DF80A201C
:103B70008DF80B30C3F307228DF80C20C3F30742F6
:103B80008DF80D201B0E8DF80E3000238DF80F30B0
:103B9000009301935CB16A4608230DEB0301A04733
:103BA00040B99DF80730A22B07D105B030BD6FF0AA
:103BB0000300FAE74FF0FF30F7E76FF00100F4E79A
:103BC00030B585B005461C4603238DF808308DF8C6
:103BD0000920120A8DF80A2000228DF80B208DF89A
:103BE0000C208DF80D208DF80E200092CDF80320CA
:103BF000944218BF904216D0084607236A4602A98D
:103C0000A84798B99DF803209DF8043042EA0322A2
:103C10009DF8053042EA03429DF8063042EA03620D
:103C2000226005B030BD6FF00300FAE74FF0FF30BF
:103C3000F7E7000070B582B0002918BF00284AD00D
:103C40000D46FFF723FF044603222F490EF057FFCE
:103C50000646002842D1E01CFFF718FF034604780F
:103C60002A4A125D02F00302022A29D0E4B2572C3C
:103C700018BF522C35D1581C5B78202B18BF092B4C
:103C800032D100230193009301A9FFF707FF70B31E
:103C9000019BB3F5803F2DD200232B606B60BDF8F4
:103CA00004306B80572C0DD0FFF7F0FE0378002B0B
:103CB00018BF0D2B01D00A2B22D1304602B070BDA7
:103CC000203CD3E76946FFF7E9FEB0B101232B7032
:103CD000009B6B60E8E76FF00306EEE76FF003060A
:103CE000EBE76FF00306E8E76FF00306E5E76FF038
:103CF0000306E2E76FF00306DFE76FF00306DCE799
:103D00006FF00306D9E700BF605601084467010859
:103D10002DE9F04186B00E4690461C460C9F04A942
:103D2000FFF788FF00230393054660B99DF8103024
:103D3000DBB1059BBDF8122041463046FFF70CFF72
:103D40000546059B0393002C18BF002F09D0ADB981
:103D5000039B0093BDF812300B4A394620460EF003
:103D600087FC284606B0BDE8F08103ABBDF8122001
:103D700041463046FFF724FF0546E4E7034A39464B
:103D800020460EF075FCECE7645601087C560108ED
:103D900082B00A4B1A6C42F080521A641A6C02F01C
:103DA00080520092009A5A6C42F480425A645B6CD2
:103DB00003F480430193019B02B070470038024036
:103DC0002DE9F043AFB00446002129912A912B91AF
:103DD0002C912D91842208A80EF06DFE2368564A7E
:103DE000934208D0554A934231D0554A934259D014
:103DF0002FB0BDE8F0834FF48043089308A805F086
:103E0000B7FC08BB4F4C236B43F002032363236BC7
:103E100003F002030193019BC023299312232A93E9
:103E200000232B9303232C9304232D9329A9464885
:103E300005F074FF236C43F400132364236C03F434
:103E400000130293029BD3E7FDF7F4FFDAE74FF488
:103E50000043089308A805F08BFC00BB394C236B8A
:103E600043F020032363236B03F020030393039B9E
:103E70000323299312222A9200222B922C930423AB
:103E80002D9329A9314805F049FF236C43F48003A1
:103E90002364236C03F480030493049BA8E7FDF7D9
:103EA000C9FFDBE74FF48033089308A805F060FCF6
:103EB00000283DD1234C236B43F004032363236B81
:103EC00003F004030593059B236B43F00103236375
:103ED000236B03F001030693069B4FF400732993B1
:103EE0004FF01209CDF8A8904FF00008CDF8AC8043
:103EF00003272C9704262D9629AD2946144805F052
:103F00000DFF4FF480732993CDF8A890CDF8AC80C5
:103F10002C972D9629460F4805F000FF236C43F49B
:103F200000032364236C03F400030793079B5FE7FC
:103F3000FDF780FFBEE700BF00540040005800407E
:103F4000005C0040003802400004024000140240BF
:103F5000000802400000024000B58BB0002305932A
:103F600006930793089309930368244A934205D064
:103F7000234A934222D00BB05DF804FB214B5A6CCC
:103F800042F480525A645A6C02F480520192019AAF
:103F90001A6B42F001021A631B6B03F001030293D8
:103FA000029BE02305930223069303230893052332
:103FB000099305A9144805F0B1FEDCE7114B5A6CD2
:103FC00042F400525A645A6C02F400520392039A6B
:103FD0001A6B42F010021A631B6B03F01003049378
:103FE000049B64230593022306930323089305236C
:103FF000099305A9054805F091FEBCE70030014092
:10400000003401400038024000000240001002402D
:104010000268094B9A4200D0704782B003F59C3386
:104020005A6C42F001025A645B6C03F00103019385
:10403000019B02B0704700BF000001402DE9F04134
:10404000ACB0044600212791289129912A912B9107
:10405000842206A80EF02FFD23683D4A934205D026
:104060003C4A934247D02CB0BDE8F0814FF48063C6
:10407000069306A805F07CFB002839D1364B1A6C54
:1040800042F480121A641A6C02F480120192019AAE
:104090001A6B42F004021A631A6B02F004020292D5
:1040A000029A1A6B42F008021A631B6B03F00803B2
:1040B0000393039B4FF4805327934FF00208CDF8EE
:1040C000A0800027299703262A9608252B9527AC40
:1040D0002146224805F022FE04232793CDF8A08034
:1040E00029972A962B9521461D4805F017FEBAE719
:1040F000FDF7A0FEC2E74FF48073069306A805F013
:1041000037FB10BB144B1A6C42F480221A641A6CF1
:1041100002F480220492049A1A6B42F002021A639B
:104120001B6B03F002030593059B4FF44063279339
:10413000022328930023299303232A9307232B93F5
:1041400027A9084805F0EAFD8DE7FDF773FED9E7DA
:104150000050004000480040003802400008024083
:10416000000C024000040240FEE7FEE7FEE7FEE727
:10417000FEE770477047704708B504F0AFFE08BD12
:1041800008B5024808F077F808BD00BF5C3700208A
:1041900008B54FF4804005F0D9FE08BD034AD2F8B7
:1041A000883043F47003C2F88830704700ED00E0B7
:1041B0000120704708B50EF01BFD162303604FF079
:1041C000FF3008BD08B54FF0FF31FFF7F3FFFEE702
:1041D00070B50C461646002506E0AFF30080214678
:1041E00001F8010B01350C46B542F6DB304670BDD7
:1041F00070B50C461646002504E014F8010BFDF7D7
:1042000019F80135B542F8DB304670BD4FF0FF308C
:1042100070474FF400534B600020704701207047F7
:104220000020704710B503460C4A0D490D48006840
:1042300040B10C4800680344521A934206D8094A18
:10424000136010BD0748084C0460F2E70EF0D0FC84
:104250000C2303604FF0FF30F3E700BF00000520A0
:10426000600400005C200020E83D0020DFF834D02E
:10427000FFF794FF0C480D490D4A002302E0D45883
:10428000C4500433C4188C42F9D30A4A0A4C0023A0
:1042900001E013600432A242FBD30EF0AFFCFDF745
:1042A000FBFF7047000005200000002004030020F1
:1042B0005869010808030020E83D0020FEE70000DF
:1042C00008B500220F49104809F0CCF870B90F4921
:1042D0000D4809F0DEF860B90D490B480AF0D1F835
:1042E00050B9094809F0F5F848B908BDFDF7A2FD35
:1042F000EDE7FDF79FFDEFE7FDF79CFDF1E7FDF72B
:1043000099FDF2E79000002060200020F8000020D6
:104310004800002000207047202813D0212823D1F6
:10432000124A13680B70C3F307204870C3F30740A9
:1043300088701B0ECB7013790B7153794B71937985
:104340008B7111E00B784A7843EA02238A7843EABA
:104350000243CA7843EA0263044A13600B7913717B
:104360004B7953718B799371002070474000002086
:104370000020704738B504460968FCF751FF054D29
:10438000214628460AF096F828460AF0BAF8002096
:1043900038BD00BF6020002010B5064C0022064941
:1043A00020460AF079F8054920460AF083F80020F3
:1043B00010BD00BF602000203C2300203C2B0020CB
:1043C0000A4BD3F8BC327BB1D3F814320BB10120C5
:1043D000704710B5054C0A46014620460AF05CF8C5
:1043E00020460AF073F810BD0320704760200020BB
:1043F00012230B80004870477C00002004230B80B0
:104400000048704778000020002393421ED200B578
:1044100010E00CF1370C01F813C000014FEA430C17
:104420000CF1010C4FF0000E01F80CE00133DBB28F
:10443000934209D24FEA107CB0F1204FE9D20CF13F
:10444000300C01F813C0E8E75DF804FB704700008A
:1044500038B50B4BD3F82004D3F82444D3F82834D0
:10446000C01800D138BD074D08222946FFF7CCFF00
:10447000042205F110012046FFF7C6FFF2E700BF56
:1044800000F0F01F5E00002008B51A230B80FFF734
:10449000DFFF014808BD00BF5C00002010B50A46E0
:1044A000034C2146034809F064FD204610BD00BFBF
:1044B0003C3300208856010810B50A46034C2146BB
:1044C000034809F056FD204610BD00BF3C330020D4
:1044D000B056010810B50A46034C2146034809F0BE
:1044E00048FD204610BD00BF3C330020C8560108DF
:1044F00010B50A46034C2146034809F03AFD204610
:1045000010BD00BF3C330020D4560108032805D855
:10451000DFE800F005040205012070470320704722
:1045200010B588B000230393049305930693079373
:104530000368B3F1A04F01D008B010BD03AA194C15
:10454000236B43F001032363236B03F00103009308
:10455000009B4FF4C0530393022304930323069359
:104560000A2307931146104805F0D8FB636B43F00C
:1045700080036363636B03F080030193019B636CAF
:1045800043F480436364636C03F480430293029BAF
:1045900000221146432004F00BFD432004F018FDD7
:1045A000CAE700BF003802400000024008B500F230
:1045B0009C41D0F8DC0408F0A2FF08BD08B501EB6F
:1045C000C10300EB8303D3F86022D0F8DC0409F0C8
:1045D00064F808BD08B501EBC10300EB83031A6A58
:1045E000D0F8DC0409F0BCF808BD08B5D0F8DC044C
:1045F00009F001F808BD10B50446C379022B09D1B2
:104600000121D4F8DC0408F0D9FFD4F8DC0408F068
:10461000A2FF10BDFDF70EFCF2E7000010B5044646
:10462000D0F8DC0408F0CDFF2268D2F8003E43F059
:104630000103C2F8003EE37A23B1034A136943F051
:104640000603136110BD00BF00ED00E008B5D0F80F
:10465000DC0408F0C4FF08BD08B5D0F8DC0408F09D
:10466000F0FF08BD08B5D0F8DC0408F0D4FF08BDA1
:1046700008B5D0F8DC0408F0FAFF08BD08B5D0F89A
:10468000DC0408F0F6FF08BD02780AB1002070478C
:1046900010B503461548C0F8DC34C3F8C8024FF023
:1046A000A0430360062303710222C27100238371B9
:1046B00042728372C37203738373C37307F017FB71
:1046C00080B90A4C8021204608F0FBF840220021E6
:1046D000204608F0D0F880220121204608F0CBF8CF
:1046E000002010BDFDF7A6FBEBE700BF5C37002004
:1046F00008B5D0F8C80207F083FBFFF707FF08BD35
:1047000008B594461A466346D0F8C80207F04BFC39
:10471000FFF7FCFE08BD08B5D0F8C80207F089FC19
:10472000FFF7F4FE08BD08B5D0F8C80207F00CFD8D
:10473000FFF7ECFE08BD08B5D0F8C80207F047FD4A
:10474000FFF7E4FE08BDD0F8C83211F0800F08D1A1
:1047500001F07F0101EBC10103EB810393F85602E5
:10476000704701F07F0101EBC10103EB8103987DEC
:10477000704708B5D0F8C80207F002FCFFF7C6FE84
:1047800008BD08B5D0F8C80207F0B9FCFFF7BEFEB7
:1047900008BD08B5D0F8C80207F083FCFFF7B6FEE5
:1047A00008BD08B5D0F8C80207F0A0FC08BD00009D
:1047B000004870473C350020704708B500228265EC
:1047C00080F85C20C0F8602180F8642180F86521C1
:1047D00080F8662100F03CF908BD10B5044600F0F1
:1047E00083F92046FFF7E9FF204610BD2DE9F0418F
:1047F0000646D0F86001C0F58074944228BF144684
:1048000006F15D07224638440EF02CFAD6F86051C6
:104810002544C6F8605196F86481B8F1000F17D1AD
:10482000002400E00134022D0BD9E31C9D4208D383
:1048300003222F4938190EF015F90028F2D14FF054
:104840000108B8F1000F15D04CB9012386F8643186
:10485000D6F86081B8F1490F3AD8BDE8F0812A1B3B
:10486000391938460EF00EF9D6F860311B1BC6F820
:104870006031EAE72C46022D28BF02240DB1022D3B
:1048800002D8C6F86041E8E7291B22463944384679
:104890000EF0F8F8F5E70023C6F8603186F86431C9
:1048A000012218E00134E51CA84513D30322114965
:1048B00038190EF0D7F80028F4D12A463946304688
:1048C00000F04EFA02460028E5D00223B36502E06C
:1048D0000324E8E70022D6F86031FF2BBDD9002A77
:1048E000BBD10023C6F8603186F86431B5E700BF5C
:1048F000E4560108E85601082DE9F04182B0154B55
:104900000193032A1BD980460F4616460024251D15
:10491000B54214D804220DEB020138190EF0A2F8AA
:1049200008B10134F3E7012388F85C30C8F8583047
:104930000023C8F8603188F86431B54202D302B070
:10494000BDE8F081321B043A79194046FFF74EFF6B
:10495000F5E700BF172E9EED022A2AD984460B7870
:10496000522B28D14B78452B27D18B78472B26D13A
:1049700090F8653103F0FF001BBB10B404E00CEBB2
:10498000030080F8664101333F2B98BF934205D264
:10499000CC5C1CB10D2C01D00A2CF0D16344002258
:1049A00083F8662101238CF8653118465DF8044BC5
:1049B000704700207047002070470020704700209B
:1049C00070477047002A18BF00291FD070B50446F1
:1049D0000D461646836D012B02D190F864312BB938
:1049E000324629462046FFF7B7FF70B9A36D3BB1A9
:1049F000012B0AD1324629462046FFF7F7FE04E094
:104A0000324629462046FFF777FF70BD704710B544
:104A1000864690F8653103F0FF00B3B1B2FA82F335
:104A20005B0901B11BB100200FE0CC54634603F1D8
:104A3000010C944505D20EEB030494F86641002C5A
:104A4000F3D10022CA548EF8652110BD0000000089
:104A50001BA3D3E90023C0E900231BA3D3E9002350
:104A6000C0E902231AA3D3E90023C0E904232023C9
:104A7000836119A3D3E90023C0E9082318A3D3E96C
:104A80000023C0E90A2300220B4BC0E90C230022BB
:104A90000A4BC0E90E2306A3D3E90023C0E9102383
:104AA000C0E91223012380F850307047AFF3008033
:104AB00000000000006AE84000408F4000409F4036
:104AC000000000205FA00242691D554D1075FF3E99
:104AD0008DEDB5A0F7C6A03E00000000D0126341E6
:104AE00000000000389C7C4110B50446FFF7B0FF81
:104AF000204610BD000000002DE9D0430446D0E957
:104B0000006775A3D3E9002330463946FBF7F6FF6B
:104B1000002840F0AA8072A3D3E90023304639462A
:104B2000FCF70AF8002840F0A380D4E902676EA3DE
:104B3000D3E9002330463946FBF7E0FF002840F078
:104B400099806BA3D3E9002330463946FBF7F4FF85
:104B5000002840F09180D4E9046767A3D3E90023DB
:104B600030463946FBF7CAFF002840F0878064A32F
:104B7000D3E9002330463946FBF7DEFF00287FD11A
:104B8000A369013BFF2B7DD8D4E908675EA3D3E975
:104B9000002330463946FBF7B1FF002874D15CA3EF
:104BA000D3E9002330463946FBF7C6FF00286DD114
:104BB000D4E90A8942464B4630463946FBF7B2FFF4
:104BC000002865D152A3D3E9002340464946FBF7AC
:104BD000B3FF00285ED1D4E90C6700223C4B30467D
:104BE0003946FBF78BFF002856D133A3D3E90023C6
:104BF00030463946FBF7A0FF00284FD1D4E90E67B5
:104C00000022334B30463946FBF778FF002847D166
:104C100029A3D3E9002330463946FBF78DFF00284E
:104C200040D1D4E910670022294B30463946FBF7C2
:104C300065FFC8BB22A3D3E9002330463946FBF702
:104C40007BFF98BBD4E912670022224B30463946DD
:104C5000FBF754FF60BB1CA3D3E900233046394661
:104C6000FBF76AFF30BB012000E00020BDE8D083E5
:104C70000020FBE70020F9E70020F7E70020F5E738
:104C80000020F3E70020F1E70020EFE70020EDE748
:104C90000020EBE70020E9E70020E7E70020E5E758
:104CA0000020E3E70020E1E70020DFE70020DDE768
:104CB0000020DBE70020D9E7000000000088C340A7
:104CC00000000000006AF84000000000006A08418F
:104CD0000000594000408F400000000065CDCD41EC
:104CE000000000E8764837428DEDB5A0F7C6B03E2B
:104CF000FCA9F1D24D62503F48AFBC9AF2D77A3E40
:104D0000F168E388B5F8E43E0000000080842E419D
:104D10000000000084D797410020002200230728CC
:104D200010DC00B54FEA032C4CEA126C11F800E0DD
:104D30004EEA0222634601300728F3DD43EC102BD4
:104D40005DF804FB43EC102B70470023184603E08A
:104D5000CA5C42EA00200133032BF9DD70470000F2
:104D6000F8B50446002918BF492A94BF0127002737
:104D70005BD90D4616460322324928460DF072FED5
:104D8000002857D1033E03222F49A8190DF06AFECF
:104D9000002853D1E91C2046FFF7BEFF84ED000B2D
:104DA00005F10B012046FFF7B7FF84ED020B05F17B
:104DB00013012046FFF7B0FF84ED040B05F11B0142
:104DC0002046FFF7C2FFA06105F11F012046FFF753
:104DD000A3FF84ED080B05F127012046FFF79CFF98
:104DE00084ED0A0B05F12F012046FFF795FF84EDB6
:104DF0000C0B05F137012046FFF78EFF84ED0E0BFB
:104E000005F13F012046FFF787FF84ED100B05F108
:104E100047012046FFF780FF84ED120B2046FFF785
:104E20006BFE074684F8500002E0002780F85070BF
:104E30003846F8BD002384F85030F9E7002384F8A1
:104E40005030F5E7E4560108E856010810B5084C63
:104E500001221146204605F06AF80122022120466F
:104E600005F065F801220421204605F060F810BD28
:104E70000018024008B501224FF40051014805F026
:104E800056F808BD0010024082B001EB81014900D4
:104E9000019100E000BF019B5A1E0192002BF9D145
:104EA00002B0704710B582B01C4652B14FF47A730D
:104EB0000093A3B2074805F03BFF48B9204602B073
:104EC00010BD4FF47A73A2B2024805F02DFEF4E74C
:104ED0000020F4E7040E002008B5436900691B1A9E
:104EE000B1EBA30F09D2064B53F8310003EBC1031A
:104EF00099881AB1002205F01AF808BD0122FAE7D4
:104F0000905D010830B583B004460D469DF8181039
:104F1000F9B108218DF804109DF80410C2F30420A3
:104F200001438DF804108DF805208DF8063001221C
:104F300029462046FFF7D0FF0323002201A920467F
:104F4000FFF7B0FF002229462046FFF7C5FF03B058
:104F500030BD016951F825100978490101F060015F
:104F60008DF80410D8E7F0B583B0054611B17F275E
:104F7000002420E02027FBE7002600963B4629225C
:104F800021462846FFF7BEFF00963B462A222146CF
:104F90002846FFF7B7FF00963B462B2221462846BE
:104FA000FFF7B0FF00963B462C2221462846FFF72C
:104FB000A9FF0134E4B26B692A699B1AB4EBA30F11
:104FC000DAD303B0F0BD70B582B0054611B130261A
:104FD00000240BE00026FBE70023009333462D223C
:104FE00021462846FFF78EFF0134E4B26B692A6937
:104FF0009B1AB4EBA30FEFD302B070BD10B50446FB
:10500000017011B93223436010BD0A234360FFF7DA
:105010001DFF2046FFF72EFF01212046FFF7A3FFCB
:1050200001212046FFF7CFFFEEE72DE9F04385B0E1
:1050300005460E4617460DF10C080024ADF80C404D
:105040008DF80E400DF10809ADF808408DF80A40C2
:10505000009418232246FFF755FF2B6953F826309A
:105060001B785B0103F0600343F080038DF80C3084
:1050700043EA17238DF80C308DF80D708DF80E4033
:10508000012231462846FFF727FF03234A464146BF
:105090002846FFF707FF224631462846FFF71CFF48
:1050A00000942346224631462846FFF72BFF9DF801
:1050B0000A0005B0BDE8F083436902699B1AB1EBB1
:1050C000A30F01D30020704730B583B004460D46CE
:1050D00000230093A5230A22FFF714FF012003F009
:1050E0000FFF0A2229462046FFF79FFFA52814BF7D
:1050F0000020012003B030BD38B50546002401E092
:105100000134E4B26B692A699B1AB4EBA30F07D28E
:1051100021462846FFF7D0FF03460028F0D100E0E3
:105120000123184638BDF0B583B004460D46164637
:105130001F46FFF77AFF012202FA07F303439DF8A7
:1051400020200092DBB2324629462046FFF7DAFEE5
:1051500003B0F0BDF0B583B004460D4616461F46B9
:10516000FFF763FF4FF0010C0CFA07FC6FEA0C0C21
:105170004FFA8CFC00EA0C039DF820200092DBB271
:10518000324629462046FFF7BDFE03B0F0BD00B50C
:1051900083B042B10023009302233122FFF7C3FF03
:1051A00003B05DF804FB0023009302233122FFF7D4
:1051B000D1FFF5E770B505460E46002406E03246FD
:1051C00021462846FFF7E3FF0134E4B26B69286902
:1051D0001B1AB4EBA30FF2D369682846FFF754FEFD
:1051E00070BD10B504460121FFF7E4FF03F082FE15
:1051F0004FF47A7303FB00F0E06010BD10B5044675
:105200000021FFF7D7FF03F075FE4FF47A7303FB1D
:1052100000F0E06010BD000070B596B004460CAD23
:10522000644E0FCE0FC50FCE0FC596E8030045F8AC
:10523000040B29804FF47A7325220CA95E4806F0EE
:105240008DFB5E4D01224FF40041284604F06FFEB5
:10525000012003F055FE01224FF48041284604F05E
:1052600066FE012003F04CFE00212046FFF7A2FF5E
:10527000012003F045FE002510E00026009633468D
:105280002D2229462046FFF73DFE009633464A224E
:1052900029462046FFF736FE0135EDB263692269E3
:1052A0009B1AB5EBA30FE8D300224FF400514348FB
:1052B00004F03DFE022003F023FE00251EE0002640
:1052C00000965D23292229462046FFF71BFE009603
:1052D0005D232A2229462046FFF714FE00965D230F
:1052E0002B2229462046FFF70DFE00965D232C2237
:1052F00029462046FFF706FE0135EDB263692269B3
:105300009B1AB5EBA30FDAD30A2003F0F9FD2C4D5D
:1053100001221146284604F00AFE012202212846F5
:1053200004F005FE01220421284604F000FE32208C
:1053300003F0E6FD00251EE0002600960D2329223D
:1053400029462046FFF7DEFD00960D232A22294636
:105350002046FFF7D7FD00960D232B222946204635
:10536000FFF7D0FD00960D232C2229462046FFF79B
:10537000C9FD0135EDB2636922699B1AB5EBA30F34
:10538000DAD30A2003F0BCFD02AC0E4D0FCD0FC4E2
:105390000FCD0FC495E8030044F8040B21704FF4BF
:1053A0007A73242202A9044806F0D8FA012016B024
:1053B00070BD00BFEC560108440C002000100240F4
:1053C000001802401457010870B582B00446002945
:1053D00077D10121FFF7EEFE00224FF4005175480E
:1053E00004F0A5FD052003F08BFD002508E0002357
:1053F00000932D2229462046FFF784FD0135EDB2AA
:10540000636922699B1AB5EBA30FF0D3052003F063
:1054100077FD694D01221146284604F088FD0122DE
:105420000221284604F083FD01220421284604F0CD
:105430007EFD0A2003F064FD00251EE00026009694
:105440007F23292229462046FFF75CFD00967F2313
:105450002A2229462046FFF755FD00967F232B225E
:1054600029462046FFF74EFD00967F232C22294631
:105470002046FFF747FD0135EDB2636922699B1AAB
:10548000B5EBA30FDAD3052003F03AFD002510E0B9
:10549000002600960223312229462046FFF743FECC
:1054A00000960523302229462046FFF73CFE0135B1
:1054B000EDB2636922699B1AB5EBA30FE8D302B082
:1054C00070BD0021FFF776FE3B4D002201212846EA
:1054D00004F02DFD00220221284604F028FD0022C0
:1054E0000421284604F023FD052003F009FD0025D2
:1054F0001EE0002600962023292229462046FFF799
:1055000001FD009620232A2229462046FFF7FAFCB7
:10551000009620232B2229462046FFF7F3FC009615
:1055200020232C2229462046FFF7ECFC0135EDB262
:10553000636922699B1AB5EBA30FDAD3052003F048
:10554000DFFC01224FF400511A4804F0F0FC0A205D
:1055500003F0D6FC002509E00023009330232D2220
:1055600029462046FFF7CEFC0135EDB2636922697A
:105570009B1AB5EBA30FEFD3052003F0C1FC002568
:1055800010E0002600960223312229462046FFF72C
:10559000E1FD00960423302229462046FFF7C3FD93
:1055A0000135EDB2636922699B1AB5EBA30FE8D30D
:1055B00085E700BF001002400018024070B582B0BD
:1055C00006460121FFF700FF002415E000250095A5
:1055D0002B462F2221463046FFF794FC00950F23DF
:1055E0002E2221463046FFF78DFC336953F82430D4
:1055F00001225A601444E4B2736932699B1AB4EB15
:10560000A30FE3D30120F06102B070BD70B582B08A
:1056100004460D46036953F821301B785B0103F003
:1056200060038DF8043000268DF8056081238DF825
:1056300006300122FFF750FC0323324601A9204621
:10564000FFF730FC324629462046FFF745FC02B002
:1056500070BD00B583B0009313460022FFF752FCE3
:1056600003B05DF804FB00B583B0009260233822DC
:10567000FFF748FC03B05DF804FB436902699B1A1D
:10568000B1EBA30F01D30020704730B583B00446BF
:105690000D46FFF7BBFF0A2003F032FC002318225F
:1056A00029462046FFF7D5FF002229462046FFF76E
:1056B000DAFF002300936023322229462046FFF7B9
:1056C00021FC236953F825300120587003B030BD08
:1056D0002DE9F04182B005460E469DF8207003F09A
:1056E0007F03124C14F80380013A02F0030C0CF112
:1056F0000A024FEA4C0C0CF115040097DFF830C099
:105700001CF803305200FFF7FDFB0097434622468A
:1057100031462846FFF7F6FB009701232822314641
:105720002846FFF7EFFB02B0BDE8F081905C01086E
:10573000105D01082DE9F04182B005460E469DF846
:10574000207003F07F03124C14F80380013A02F03A
:10575000030C0CF110024FEA4C0C0CF121040097E1
:10576000DFF830C01CF803305200FFF7CBFB009786
:105770004346224631462846FFF7C4FB00970123E3
:10578000282231462846FFF7BDFB02B0BDE8F08174
:10579000905C0108105D01082DE9F04182B080465F
:1057A0000F46164600251BE0621C00210091D2B274
:1057B00029464046FFF78CFF0134E4B2032C0DD894
:1057C00004EB8503FB5C002EEED1621C00210091EE
:1057D000D2B229464046FFF7ADFFEDE70135EDB205
:1057E000032D01D80024E9E7012002B0BDE8F081D3
:1057F00070B582B005460E46144600922D2336221F
:10580000FFF780FB00940623372231462846FFF736
:1058100079FB00940223282231462846FFF772FBC9
:1058200002B070BD70B582B005460021FFF7CCFD17
:10583000002419E00026009633462E2221462846F1
:10584000FFF760FB00960F232F2221462846FFF723
:1058500059FB324621462846FFF7CAFF2B6953F809
:1058600024305E600134E4B26B692A699B1AB4EBA0
:10587000A30FDFD30023EB61012002B070BD38B568
:105880000546002401E00134E4B26B692A699B1AE1
:10589000B4EBA30F07D221462846FFF7EEFE0346DE
:1058A0000028F0D103E02846FFF7BCFF012318468B
:1058B00038BD30B583B004460D46009270233222C5
:1058C000FFF720FB322229462046FFF7AEFB10F0FF
:1058D000010FF7D0332229462046FFF7A6FB03B07D
:1058E00030BD000008B5436902699B1AB1EBA30FF4
:1058F00016D252F821305B7813B99FED0B0A11E0F4
:105900000022FFF7D6FF00EE100AB8EEC00AF6EE4E
:10591000007A20EE270ADFED057A30EE670A01E013
:105920009FED010A08BD00BF339388C300004842C1
:1059300010B504460068A168091A08B108F0FDFD19
:10594000204610BD38B504460D460C2008F0F7FD82
:105950002B7803700023437001224260024A826068
:1059600023602060204638BD0000C84110B50446C1
:10597000006810B10C2108F0E0FD002323602046F0
:1059800010BD70B506460468456803E02046FFF781
:10599000EDFF0434A542F9D13046FFF7C9FF304688
:1059A00070BD10B504462C30FDF7D6FE04F1200082
:1059B000FDF7D2FE04F11000FFF7E3FF204610BD13
:1059C00010B50446006818B16168890008F0B5FD9B
:1059D000204610BD40680438704738B50346446817
:1059E0000068A4EB000C4FEAAC056FF0604EAEEB24
:1059F000AC0C8C450CD38D4200D3294648191B684A
:105A0000E41AB0EBA40F06D3B0F1005F06D238BDA4
:105A1000104608F0ABFD6FF06040F8E76FF06040B3
:105A2000F5E708B5B1F1005F03D2880008F087FD03
:105A300008BDB1F1804F01D308F095FD08F090FD4D
:105A40002DE9F04784B006460C461D4A0121FFF7B8
:105A5000C4FF8046D6F80090D6F804A0AAEB09054A
:105A6000002201463046FFF7DCFF07460190CDF8E3
:105A700008800396236843510023236005464C4663
:105A800008E0236845F8043B002323602046FFF725
:105A90006DFF0434A245F4D10435CDF80490B36809
:105AA000A3EB09039B10029301A8FFF789FF37605E
:105AB000756007EB8807B76004B0BDE8F08700BFEA
:105AC0003C57010810B504464368826893420AD0E7
:105AD0000A681A6000230B60436804334360204661
