:020000040800F2
:1000000000000520613E00085D3D00085F3D0008DE
:10001000613D0008633D0008653D000800000000E8
:10002000000000000000000000000000673D000824
:10003000693D0008000000006B3D00086D3D0008B0
:10004000B13E0008B13E0008B13E0008B13E0008D4
:10005000B13E0008B13E0008B13E0008B13E0008C4
:10006000B13E0008B13E0008B13E0008B13E0008B4
:10007000B13E0008B13E0008B13E0008B13E0008A4
:10008000B13E0008B13E0008B13E0008B13E000894
:10009000B13E0008B13E0008B13E0008B13E000884
:1000A000B13E0008B13E0008B13E0008B13E000874
:1000B000B13E0008B13E0008B13E0008B13E000864
:1000C000B13E0008B13E0008B13E0008B13E000854
:1000D000B13E0008B13E0008B13E0008B13E000844
:1000E000853D0008B13E0008B13E0008B13E000861
:1000F000B13E0008B13E0008B13E0008B13E000824
:10010000B13E0008B13E0008B13E0008B13E000813
:10011000B13E0008B13E0008B13E0008B13E000803
:10012000B13E0008B13E0008B13E0008B13E0008F3
:10013000B13E0008B13E0008B13E0008B13E0008E3
:10014000B13E0008B13E0008B13E0008753D000810
:10015000B13E0008B13E0008B13E0008B13E0008C3
:10016000B13E0008B13E0008B13E0008B13E0008B3
:10017000B13E0008B13E0008B13E0008000000009A
:10018000B13E0008B13E0008B13E0008B13E000893
:10019000B13E0008B13E0008B13E0008B13E000883
:1001A000B13E0008B13E0008B13E0008B13E000873
:1001B000B13E0008B13E0008B13E0008B13E000863
:0801C000B13E0008B13E000849
:1001D00010F8012B11F8013B012A28BF9A42F7D0F1
:1001E000D01A70470000000000000000000000006E
:1001F00001F0FF01102A2BDB10F0070F08D010F8D8
:10020000013B013A8B422DD010F0070F42B3F6D1DB
:10021000F0B441EA012141EA014122F007047FF0F4
:1002200000070023F0E80256083C85EA010586EA4B
:10023000010685FA47F5A3FA87F586FA47F6A5FA87
:1002400087F68EB9EED1F0BC01F0FF0102F0070293
:1002500032B110F8013B013A83EA010313B1F8D13E
:100260000020704701387047002D06BF354603381F
:10027000073815F0010F07D1013015F4807F02BF58
:10028000013015F4C03F0130F0BC0138704700BFA9
:10029000034613F8012B002AFBD1181A01387047C6
:1002A00081F0004102E000BF83F0004330B54FEA27
:1002B00041044FEA430594EA050F08BF90EA020F94
:1002C0001FBF54EA000C55EA020C7FEA645C7FEA27
:1002D000655C00F0E2804FEA5454D4EB5555B8BF4A
:1002E0006D420CDD2C4480EA020281EA030382EABB
:1002F000000083EA010180EA020281EA0303362D4D
:1003000088BF30BD11F0004F4FEA01314FF4801C1F
:100310004CEA113102D0404261EB410113F0004F31
:100320004FEA03334CEA133302D0524263EB4303E8
:1003300094EA050F00F0A780A4F10104D5F1200E86
:100340000DDB02FA0EFC22FA05F2801841F10001E1
:1003500003FA0EF2801843FA05F359410EE0A5F1B5
:1003600020050EF1200E012A03FA0EFC28BF4CF0E6
:10037000020C43FA05F3C01851EBE37101F000459C
:1003800007D54FF0000EDCF1000C7EEB00006EEBA9
:100390000101B1F5801F1BD3B1F5001F0CD3490833
:1003A0005FEA30004FEA3C0C04F101044FEA44528A
:1003B00012F5800F80F09A80BCF1004F08BF5FEA11
:1003C000500C50F1000041EB045141EA050130BDF1
:1003D0005FEA4C0C404141EB0101013C28BFB1F503
:1003E000801FE9D291F0000F04BF01460020B1FA4E
:1003F00081F308BF2033A3F10B03B3F120020CDA21
:100400000C3208DD02F1140CC2F10C0201FA0CF0FE
:1004100021FA02F10CE002F11402D8BFC2F1200C63
:1004200001FA02F120FA0CFCDCBF41EA0C01904019
:10043000E41AA2BF01EB0451294330BD6FEA040462
:100440001F3C1CDA0C340EDC04F11404C4F120024D
:1004500020FA04F001FA02F340EA030021FA04F35F
:1004600045EA030130BDC4F10C04C4F1200220FAB6
:1004700002F001FA04F340EA0300294630BD21FAF4
:1004800004F0294630BD94F0000F83F4801306BFBA
:1004900081F480110134013D4EE77FEA645C18BFAE
:1004A0007FEA655C29D094EA050F08BF90EA020F45
:1004B00005D054EA000C04BF1946104630BD91EA3D
:1004C000030F1EBF0021002030BD5FEA545C05D140
:1004D0004000494128BF41F0004130BD14F580047F
:1004E0003CBF01F5801130BD01F0004545F0FE41F3
:1004F00041F470014FF0000030BD7FEA645C1ABF28
:10050000194610467FEA655C1CBF0B46024650EA5E
:10051000013406BF52EA033591EA030F41F400218A
:1005200030BD00BF90F0000F04BF0021704730B510
:100530004FF4806404F132044FF000054FF00001E5
:1005400050E700BF90F0000F04BF0021704730B5A6
:100550004FF4806404F1320410F0004548BF40427B
:100560004FF000013EE700BF42004FEAE2014FEAD0
:1005700031014FEA02701FBF12F07F4393F07F4FAB
:1005800081F06051704732F07F4208BF704793F0AE
:100590007F4F04BF41F40021704730B54FF46074C1
:1005A00001F0004521F000411CE700BF50EA0102C4
:1005B00008BF704730B54FF000050AE050EA01026D
:1005C00008BF704730B511F0004502D5404261EBDD
:1005D00041014FF4806404F132045FEA915C3FF41E
:1005E000D8AE4FF003025FEADC0C18BF03325FEABB
:1005F000DC0C18BF033202EBDC02C2F1200300FA6C
:1006000003FC20FA02F001FA03FE40EA0E0021FA90
:1006100002F11444BDE600BF70B54FF0FF0C4CF47E
:10062000E06C1CEA11541DBF1CEA135594EA0C0F30
:1006300095EA0C0F00F0DEF82C4481EA030621EA6B
:100640004C5123EA4C5350EA013518BF52EA0335A6
:1006500041F4801143F4801338D0A0FB02CE4FF058
:100660000005E1FB02E506F00042E0FB03E54FF088
:100670000006E1FB03569CF0000F18BF4EF0010E80
:10068000A4F1FF04B6F5007F64F5407404D25FEA7C
:100690004E0E6D4146EB060642EAC62141EA55512F
:1006A0004FEAC52040EA5E504FEACE2EB4F1FD0C71
:1006B00088BFBCF5E06F1ED8BEF1004F08BF5FEAEF
:1006C000500E50F1000041EB045170BD06F00046A1
:1006D00046EA010140EA020081EA0301B4EB5C044E
:1006E000C2BFD4EB0C0541EA045170BD41F4801146
:1006F0004FF0000E013C00F3AB8014F1360FDEBF6B
:10070000002001F0004170BDC4F10004203C35DA46
:100710000C341BDC04F11404C4F1200500FA05F3C9
:1007200020FA04F001FA05F240EA020001F000426A
:1007300021F0004110EBD37021FA04F642EB0601E0
:100740005EEA430E08BF20EAD37070BDC4F10C040A
:10075000C4F1200500FA04F320FA05F001FA04F2CE
:1007600040EA020001F0004110EBD37041F10001BA
:100770005EEA430E08BF20EAD37070BDC4F12005C5
:1007800000FA05F24EEA020E20FA04F301FA05F22D
:1007900043EA020321FA04F001F0004121FA04F2D5
:1007A00020EA020000EBD3705EEA430E08BF20EAA5
:1007B000D37070BD94F0000F0FD101F000464000DF
:1007C00041EB010111F4801F08BF013CF7D041EA61
:1007D000060195F0000F18BF704703F00046520065
:1007E00043EB030313F4801F08BF013DF7D043EA36
:1007F0000603704794EA0C0F0CEA135518BF95EAEC
:100800000C0F0CD050EA410618BF52EA4306D1D172
:1008100081EA030101F000414FF0000070BD50EA91
:10082000410606BF1046194652EA430619D094EA1B
:100830000C0F02D150EA013613D195EA0C0F05D105
:1008400052EA03361CBF104619460AD181EA030159
:1008500001F0004141F0FE4141F470014FF0000011
:1008600070BD41F0FE4141F4780170BD70B54FF0AC
:10087000FF0C4CF4E06C1CEA11541DBF1CEA13552C
:1008800094EA0C0F95EA0C0F00F0A7F8A4EB05040E
:1008900081EA030E52EA03354FEA013100F0888005
:1008A0004FEA03334FF0805545EA131343EA1263CE
:1008B0004FEA022245EA111545EA10654FEA002683
:1008C0000EF000419D4208BF964244F1FD0404F53C
:1008D000407402D25B084FEA3202B61A65EB030598
:1008E0005B084FEA32024FF480104FF4002CB6EB55
:1008F000020E75EB030E22BFB61A754640EA0C00D5
:100900005B084FEA3202B6EB020E75EB030E22BF14
:10091000B61A754640EA5C005B084FEA3202B6EB55
:10092000020E75EB030E22BFB61A754640EA9C0014
:100930005B084FEA3202B6EB020E75EB030E22BFE4
:10094000B61A754640EADC0055EA060E18D04FEAA2
:10095000051545EA16754FEA06164FEAC30343EA42
:1009600052734FEAC2025FEA1C1CC0D111F4801F0F
:100970000BD141EA00014FF000004FF0004CB6E708
:1009800011F4801F04BF01430020B4F1FD0C88BFA7
:10099000BCF5E06F3FF6AFAEB5EB030C04BFB6EBB2
:1009A000020C5FEA500C50F1000041EB045170BDA5
:1009B0000EF0004E4EEA113114EB5C04C2BFD4EBD2
:1009C0000C0541EA045170BD41F480114FF0000E56
:1009D000013C90E645EA060E8DE60CEA135594EAD2
:1009E0000C0F08BF95EA0C0F3FF43BAF94EA0C0FD5
:1009F0000AD150EA01347FF434AF95EA0C0F7FF44A
:100A000025AF104619462CE795EA0C0F06D152EA9D
:100A100003353FF4FDAE1046194622E750EA410681
:100A200018BF52EA43067FF4C5AE50EA41047FF492
:100A30000DAF52EA43057FF4EBAE12E74FF0FF3CF7
:100A400006E000BF4FF0010C02E000BF4FF0010CC8
:100A50004DF804CD4FEA410C7FEA6C5C4FEA430C41
:100A600018BF7FEA6C5C1BD001B050EA410C0CBF90
:100A700052EA430C91EA030F02BF90EA020F0020F2
:100A8000704710F1000F91EA030F58BF994208BF59
:100A900090422CBFD8176FEAE37040F00100704716
:100AA0004FEA410C7FEA6C5C02D150EA013C07D16D
:100AB0004FEA430C7FEA6C5CD6D152EA033CD3D0B8
:100AC0005DF8040B704700BF8446104662468C46B2
:100AD0001946634600E000BF01B5FFF7B7FF0028E5
:100AE00048BF10F1000F01BD4DF808EDFFF7F4FF0E
:100AF0000CBF012000205DF808FB00BF4DF808ED99
:100B0000FFF7EAFF34BF012000205DF808FB00BFBB
:100B10004DF808EDFFF7E0FF94BF012000205DF8DD
:100B200008FB00BF4DF808EDFFF7CEFF94BF012092
:100B300000205DF808FB00BF4DF808EDFFF7C4FF8B
:100B400034BF012000205DF808FB00BF4FEA410CD4
:100B50007FEA6C5C02D150EA013C0AD14FEA430CB7
:100B60007FEA6C5C02D152EA033C02D14FF00000F4
:100B700070474FF0010070474FEA410212F5001232
:100B800015D211D56FF47873B3EB625212D94FEAD4
:100B9000C12343F0004343EA505311F0004F23FABE
:100BA00002F018BF404270474FF00000704750EA13
:100BB000013005D111F0004008BF6FF000407047D0
:100BC0004FF00000704700BF4FEA4102B2F1E0432E
:100BD00024BFB3F5001CDCF1FE5C0DD901F0004C24
:100BE0004FEAC0024CEA5070B2F1004F40EB830074
:100BF00008BF20F00100704711F0804F21D113F1A0
:100C00003872BCBF01F00040704741F480114FEAD8
:100C10005252C2F11802C2F1200C10FA0CF320FA61
:100C200002F018BF40F001004FEAC1234FEAD3237E
:100C300003FA0CFC40EA0C0023FA02F34FEA4303E8
:100C4000CCE77FEA625307D150EA01331EBF4FF071
:100C5000FE4040F44000704701F0004040F0FE408C
:100C600040F40000704700BF53B94AB9002908BFDB
:100C700000281CBF4FF0FF314FF0FF3000F00CB8E0
:100C8000ADF1080C6DE904CE13F01AFDDDF804E0B7
:100C9000DDE9022304B07047704700BF0348044BEE
:100CA000834202D0034B03B118477047040300206E
:100CB00004030020000000000548064B1B1AD90F52
:100CC00001EBA301491002D0034B03B11847704751
:100CD00004030020040300200000000010B5064CAF
:100CE000237843B9FFF7DAFF044B13B10448AFF39D
:100CF00000800123237010BD0803002000000000C5
:100D0000B849010808B5054B1BB105490548AFF3C3
:100D10000080BDE80840FFF7CFBF00BF0000000023
:100D20000C030020B8490108074AD2F8FC3043F010
:100D30008073C2F8FC30054B00225A601A6842F0FA
:100D400001021A60704700BF00ED00E0001000E0F3
:100D500030B585B00024009401940294039407F008
:100D6000E5FE01238DF800308DF8014001941F222B
:100D70008DF8082087228DF809208DF80A408DF81B
:100D80000B408DF80C308DF80D308DF80E408DF83D
:100D90000F40684607F0E8FE042007F0D5FE05B0D6
:100DA00030BD00002DE9F04F8FB009AD002409944B
:100DB0000A940B940C940D94764B1A6B42F010022B
:100DC0001A631A6B02F010020192019A1A6B42F038
:100DD00004021A631A6B02F004020292029A1A6B5E
:100DE00042F020021A631A6B02F020020392039A67
:100DF0001A6B42F080021A631A6B02F080020492AE
:100E0000049A1A6B42F001021A631A6B02F0010293
:100E10000592059A1A6B42F040021A631A6B02F0AF
:100E200040020692069A1A6B42F002021A631A6B8B
:100E300002F002020792079A1A6B42F008021A6344
:100E40001B6B03F008030893089BDFF85C812246C4
:100E50004FF2F841404608F0F6FDDFF85091224687
:100E60000F21484608F0EFFD4B4F22464FF2BF716D
:100E7000384608F0E8FD22464FF68071474808F0F2
:100E8000E2FDDFF82CA122464FF47F61504608F0C6
:100E9000DAFD22464FF44C71414808F0D4FD4FF280
:100EA000F843099301260A960B940C942946404670
:100EB00008F0C0FC4FF4407309930A940B94294640
:100EC000404608F0B7FC4FF00F0BCDF824B00A965F
:100ED0000B940C942946484608F0ACFC4FF2BF73C3
:100EE00009930A960B940C942946384608F0A2FC04
:100EF0004FF6807309930A960B940C942946274861
:100F000008F098FC41F6F07309930A960B940C9440
:100F10002946504608F08EFC4FF4604309930A942A
:100F20000B942946504608F085FC4FF4046309935E
:100F30000A940B942946384608F07CFC4FF4E07381
:100F400009930A940B942946164808F073FC4FF451
:100F50004C7309930A960B940C942946104808F098
:100F600069FC32468021404608F06DFD32464FF460
:100F70008041384608F067FD32464FF480613846BC
:100F800008F061FD32465946484608F05CFD0FB056
:100F9000BDE8F08F00380240001802400010024007
:100FA0000004024000080240001402400000024019
:100FB000000C024030B58BB000240994584D4422F7
:100FC0002146284611F003FB564B2B600123EB8191
:100FD0002B82092385F8213040F6AC53EB610623C0
:100FE00085F82730032385F828304F4B2B630E23D9
:100FF000EB6221460DE04C481A2201FB02F28318F5
:10100000815400229A711A81DA711A7101225A717F
:1010100011440D29EFDD444B0C20188103229A71F5
:101020000021D9715971588483F8202083F8211048
:10103000D9770920A3F8700083F86E2083F86F1029
:1010400083F86D10A3F88A0083F8882083F889104C
:1010500083F887102422A3F8A420062083F8A20096
:1010600083F8A31083F8A110B424A3F8BE4083F83A
:10107000BC0083F8BD1083F8BB103C25A3F8D85002
:10108000022483F8D64083F8D71083F8D510A3F84C
:10109000F25083F8F04083F8F11083F8EF101E242B
:1010A000A3F80C4183F80A0183F80B1183F80911A6
:1010B000A3F8264183F8240183F8251183F823112E
:1010C000684611F084FA194B0193194B0393194B9D
:1010D0000693134B0893184D01224021284608F02F
:1010E000B2FC052007F098FC01221021284608F0E8
:1010F000AAFC694609A805F057FC50B9099805F003
:10110000F9FB044640B9099805F02AFC20460BB0CB
:1011100030BD4FF0FF34F9E74FF0FF34F6E700BF82
:101120009404002000E1F505280300208096980033
:101130006C5A0108E80C00200014024030B583B05E
:10114000054607F063FC044604E007F05FFC001B63
:10115000A8420ED2002301220DF1070106480AF031
:10116000F3F90028F1D19DF80710044804F028FE97
:10117000EBE703B030BD00BF140C0020B00A002024
:1011800008B5074804F008FB064803F01CF90321E2
:10119000054804F07AFE054804F034FA08BD00BFA3
:1011A000B00A002048090020540800201807002039
:1011B00008B5024804F081F908BD00BF18070020F7
:1011C000014B1B68586A70479C0C002082B001904C
:1011D000044B196800234B624A6A019B9A42FBD375
:1011E00002B070479C0C002010B50B4B5C680B4B99
:1011F000196807A3D3E90023A0FB0101FFF734FD21
:10120000054B5B681B1B8342FAD310BDAFF3008014
:1012100000CA9A3B00000000001000E03C000020E3
:1012200008B50A460146024803F08CF908BD00BF24
:101230004809002010B582B004468DF807000A2343
:1012400001220DF1070103480AF014F9204602B00B
:1012500010BD00BF8C0B002070B594B00BAC464D98
:101260000FCD0FC40FCD0FC42B6823804FF47A73BA
:1012700021220BA941480AF0FDF8414803F02AFF5A
:101280000A2007F0C9FB002240213E4808F0DBFBA2
:101290000A2007F0C1FB002207213B4808F0D3FBDE
:1012A0000A2007F0B9FB00241FE0354D0026009608
:1012B000202329222146284603F0B0FB0096202354
:1012C0002A222146284603F0A9FB009620232B2240
:1012D0002146284603F0A2FB009620232C2221461B
:1012E000284603F09BFB0134E4B2032CDDD90A202D
:1012F00007F092FB00224FF40051244808F0A3FBB2
:101300000A2007F089FB002408E0002300932D2227
:1013100021461B4803F082FB0134E4B2032CF4D9CC
:101320000A2007F079FB194C00224FF400412046B7
:1013300008F089FB00224FF48041204608F083FB2F
:101340000A2007F069FB002208210F4808F07BFB08
:101350000A2007F061FB03AC0D4D0FCD0FC495E8DB
:101360000F0084E80F004FF47A731F2203A903488B
:101370000AF080F814B070BD144A01088C0B0020EC
:1013800018070020000C0240001802400010024024
:10139000384A010870B590B00DF1200C134C0FCCF9
:1013A000ACE80F0094E80F008CE80F00104E4FF4EB
:1013B0007A731F2208A930460AF05CF80D4B0E4ADA
:1013C0000E490F4807F052F901AC0E4D0FCD0FC476
:1013D00095E8070084E807004FF47A731B2201A9FF
:1013E00030460AF047F810B070BD00BF584A0108F7
:1013F0008C0B00202805002038050020280600203E
:10140000CC560108784A010870B52DED048B0646CC
:10141000B0EE408AF0EE609AF0EE418AB0EE619A4A
:1014200000241AE04FF48071224808F012FB224D8C
:10143000284603F062FCFCEEC87A17EE900AFFF72C
:10144000C5FE284603F066FC79EEC87AFCEEE77A22
:1014500017EE900AFFF7BAFE0134B442E2DBAF2088
:10146000FFF7B4FE002420E04FF48071114808F02B
:10147000F0FA114D284603F040FC9FED108A68EE0B
:10148000887AFCEEE77A17EE900AFFF7ADFE284661
:1014900003F040FC79EE687A67EE887AFCEEE77A32
:1014A00017EE900AFFF7A0FE0134B442DCDBBDEC7E
:1014B000048B70BD000C02401807002000007A4425
:1014C0002DE9F0412DED028B8EB05D4A136801339A
:1014D000136001AC5B4A3221204610F055FE2046D5
:1014E000FEF7D6FE4FF47A7382B22146564809F0D1
:1014F000C1FF0121554803F00DFB00254FF0010805
:1015000000E001350E2D57DC4FF40071504808F013
:10151000A0FA2E014F4F07EB05174C4C002239461D
:10152000204603F0C5FE01223946204603F0C0FEE6
:10153000DFED498A9FED498AF0EE681AB6EE001A8F
:10154000F0EE480AB3EE0E0A1020FFF75DFF444F9D
:1015500000223946204603F0ABFE012239462046E0
:1015600003F0A6FEF0EE681AB6EE001AF0EE480A96
:10157000B3EE0E0A1020FFF747FF3A4B1E4400223D
:101580003146204603F094FE01223146204603F006
:101590008FFEF0EE681AB6EE001AF0EE480AB3EECF
:1015A0000E0A1020FFF730FF08F10108B8F11F0FF5
:1015B000A7DD4FF00108A4E74FF48061244808F04C
:1015C00048FA002413E0224D01222021284608F089
:1015D0003AFA4FF4FA70FFF7F9FD0022202128466D
:1015E00008F031FA4FF4FA70FFF7F0FD01341E4BAA
:1015F0001B7807EE103AB8EEC77A1C4BD3ED006AA1
:10160000C6EE877AFDEEE77A17EE903AA342DADC6F
:1016100001AC0B4B1B68164A3221204610F0B4FD7A
:101620002046FEF735FE4FF47A7382B22146064813
:1016300009F020FF0EB0BDEC028BBDE8F08100BFC9
:10164000F8040020944A01088C0B002018070020A1
:10165000000C02402806002000002F430000274312
:101660002805002038050020080000200400002084
:10167000B44A010870B59CB0002411E003AD631CAE
:10168000244A6421284610F07FFD2846FEF700FE1C
:101690004FF47A7382B229461F4809F0EBFE0134F9
:1016A000032C23DCE5B229461C4803F091FA0028FC
:1016B000E4D02946194803F0A1FE10EE100A661C7A
:1016C00003ADFEF751FFCDE900013346144A642112
:1016D000284610F059FD2846FEF7DAFD4FF47A73DC
:1016E00082B229460C4809F0C5FED8E703AC202396
:1016F0000C4A6421204610F047FD2046FEF7C8FD45
:101700004FF47A7382B22146034809F0B3FE1CB04D
:1017100070BD00BFFC4A01088C0B00201807002098
:10172000D44A0108204B010870B582B007F06EF969
:101730005E4B1B68C01A41F28833984212D80026CB
:101740000DF106020DF10701594806F09BFD38B96D
:101750009DF8073003B902269DF8063003B9032629
:10176000002416E04FF48071524808F065F928B95A
:10177000012607F04BF94D4B1860E1E74FF400717B
:101780004C4808F059F908B10026F2E70126F0E7C5
:101790000134032C13DCE5B22946474803F018FA5C
:1017A00060B12946444803F029FEDFED447AB4EEE7
:1017B000E70AF1EE10FAEBDD052600E0042607F05B
:1017C00025F93F4B1B68C01A42F21073984217D894
:1017D00007F01CF93B4B1B68C01A43F6982398424C
:1017E00016D8394B5B782BBB07F010F9374B1B68C9
:1017F000C01A47F23053984200D9082600231FE050
:10180000334804F025FE07F001F92D4B1860DFE79F
:10181000304804F011FC47F22F53984204DD2E4B60
:10182000984202DD072600E0072607F0EFF8254B77
:101830001860D6E707F0EAF8244B1860D4E70133C4
:101840000F2B15DC254A02EB8302D2ED007AB0EEB5
:10185000047AF4EEC77AF1EE10FA08DC9FED207AF4
:10186000F4EEC77AF1EE10FAE9D50A2600E009266F
:101870001C4B93ED007ADFED1C7AB4EEE77AF1EEC3
:1018800010FA00DD0E2607F0C1F8184B1B68C01ACD
:101890004EF66023984206D807F0B8F8134B18604C
:1018A000304602B070BD1026F6E700BFE804002005
:1018B0005807002000140240180700200000AA4228
:1018C000E4040020E0040020B00A0020DC04002032
:1018D0002C09002054080020B0AD0100A80700200A
:1018E000CDCCCC3DD008002000009642D80400208A
:1018F00030B595B004460346214A5021684610F0A1
:1019000043FC6846FEF7C4FC4FF47A7382B2694622
:101910001C4809F0AFFD042C2AD021D8023CE4B2C7
:10192000012C06D80121184806F042FB642007F07C
:1019300073F8EC46154C0FCCACE80F0094E80F00A0
:10194000ACE80700ACF800306846FEF7A1FC4FF4A5
:101950007A7382B269460B4809F08CFD15B030BD30
:10196000062CE6D104F06CFD642007F055F8E0E7A2
:10197000074803F010FD322007F04EF8D9E700BF0A
:10198000544B01088C0B0020580700207C4B0108A9
:101990001807002008B5054804F08EFE044804F03E
:1019A0008BFE642007F038F8FBE700BF2808002012
:1019B0001008002000B9704770B5ACB005462F4B39
:1019C0001C6801341C602E4B187044222D4902A85B
:1019D00010F0C2FE13AE01942CAB03EB850353F859
:1019E000A83C00932B46284A6421304610F0CCFBDB
:1019F0003046FEF74DFC4FF47A7382B231462348ED
:101A000009F038FD002408E04FF48041204808F038
:101A100020F8C82007F000F801341E4AA2FB053266
:101A200002F0FC0303EB9203EB1ADBB2A342EBDA06
:101A3000A5F10903DBB2042B04D9174B1B78C3B102
:101A40002CB070BD13AE3446144D0FCD0FC40FCD66
:101A50000FC40FCD0FC42B6823703046FEF718FC5F
:101A60004FF47A7382B23146084809F003FDFFF75C
:101A700091FF2846FFF73CFFE2E700BFF00400209B
:101A8000F4040020D04901089C4B01088C0B002075
:101A900000140240CDCCCCCCEC040020BC4B01089F
:101AA00008B5FFF741FE08B9012008BDFFF782FF26
:101AB000064B1B782BB9064B1B680A2B03D8012059
:101AC000F3E70020F1E70020EFE700BFEC0400207F
:101AD000F00400202DE9F04FADF5437D10901191F9
:101AE000B04B13AC186859689A68DB680FC44FF4A0
:101AF000F2720021204610F06AFDAB4B1B78002BE0
:101B000000F0008113AF3846FEF7C2FB05463E18D1
:101B1000A64C0FCC78517160B260F36090ACA44BCE
:101B20001B680093A34B1B78A34AC821204610F0E2
:101B30002BFB13AD2146284610F051FD9F4B186832
:101B4000FEF712FDCDE90A019D4BD3E90023CDE953
:101B500008239C4BD3E90023CDE906239A4B186850
:101B6000FEF702FDCDE90401984B1868FEF7FCFC76
:101B7000CDE90201964B1868FEF7F6FCCDE90001AD
:101B8000944AC821204610F0FFFA2146284610F05A
:101B900026FD0DF14B040DF14A0221468E4806F058
:101BA00071FB9DF84B30002B00F0B7808B4B9DF8FC
:101BB0004A20002A00F0B380884A90AD0092884AFB
:101BC000C821284610F0E0FA13AE2946304610F03E
:101BD00006FD844C0021204604F045FC07EE900AE7
:101BE000F8EE677A804BC3ED007A0121204604F0BD
:101BF0003AFC07EE900AF8EE677A7C4AC2ED007A6A
:101C00000221204604F02FFC07EE900A784FF8EEF0
:101C1000677AC7ED007A0321204604F024FC07EE22
:101C2000900ADFF80082F8EE677AC8ED007A0421A6
:101C3000204604F018FC07EE900ADFF8EC91F8EE6D
:101C4000677AC9ED007A0521204604F00CFC07EE06
:101C5000900ADFF8D8A1F8EE677ACAED007A06217B
:101C6000204604F000FC07EE900ADFF8C4B1F8EE5D
:101C7000677ACBED007A0721204604F0F4FB07EEEB
:101C8000900AF8EE677A5B4BC3ED007A17EE900A84
:101C9000FEF76AFCCDE90E01DBF80000FEF764FCFC
:101CA000CDE90C01DAF80000FEF75EFCCDE90A018F
:101CB000D9F80000FEF758FCCDE90801D8F800007B
:101CC000FEF752FCCDE906013868FEF74DFCCDE980
:101CD0000401464A1068FEF747FCCDE90201424B79
:101CE0001868FEF741FCCDE90001434AC8212846A7
:101CF00010F04AFA2946304610F071FC0023DFED5F
:101D00003F7A16E013AC2046FEF7C2FA03462518C8
:101D10003B4A03CAE050696000E73A4B47E7394A5B
:101D20004BE7394A02EB830292ED007A77EE877A2D
:101D300001330F2BF5DD90AC012302939FED337A35
:101D400067EE877A17EE900AFEF70EFCCDE90001E8
:101D50002F4AC821204610F017FA13AD2146284615
:101D600010F03DFC2B4B1B7801932B4B1B78009301
:101D70002A4B1B782A4AC821204610F005FA214632
:101D8000284610F02CFC119B5C1E22462946109D13
:101D9000284610F040FC00232B550DF5437DBDE88F
:101DA000F08F00BF0C4D0108EC040020044C01082A
:101DB000F0040020F40400201C4C0108500800200E
:101DC00048080020400800202409002020090020A5
:101DD000280900203C4C010858070020F04B01085E
:101DE000684C01081C05002018050020140500207F
:101DF00010050020FC0400207C4C010800000000BD
:101E0000144C0108F84B0108A80700200000803D91
:101E1000C04C01080B000020090000200A0000202F
:101E2000E44C01080C0500200805002004050020F2
:101E30000005002072B6FEE730B59FB016AC394DF4
:101E40000FCD0FC495E80F0084E80F004FF47A73AC
:101E50001F2216A9344809F00DFB344802F068FF30
:101E600038B3324803F097FA002835D02F4802F0F3
:101E7000CFFE002843D02D4803F060FA0DF12C0C62
:101E80002B4C0FCCACE80F000FCCACE80F0094E863
:101E90000700ACE803002CF8022B120C8CF8002091
:101EA0004FF47A732A220BA91F4809F0E3FA1FB0F6
:101EB00030BD6C461F4D0FCD0FC40FCD0FC495E83C
:101EC000070003C422704FF47A732822694616482B
:101ED00009F0D0FAFFF7AEFF6C46174D0FCD0FC4D7
:101EE0000FCD0FC495E8070003C422704FF47A7336
:101EF000282269460C4809F0BDFAFFF79BFF6C46A3
:101F00000E4D0FCD0FC40FCD0FC495E8030044F85C
:101F1000040B21704FF47A7324226946024809F0B9
:101F2000A9FAA8E71C4D01088C0B00201807002017
:101F30003C4D0108684D0108944D0108C04D010851
:101F400000B589B00023049305930693079301938A
:101F5000029303931448154A0260D72242608360BB
:101F60004FF6FE72C26003614361836108F0FEFEBA
:101F700098B94FF48053049304A90B4808F034FF38
:101F800068B9002301930293039301A9064808F05E
:101F9000ABFF30B909B05DF804FBFFF74BFFFFF76B
:101FA00049FFFFF747FF00BF9C0C002000000140E5
:101FB00008B51148114B0360114B43600023836047
:101FC0000122C260036143618361C361036207F060
:101FD0004BFF50B90021084808F03AF938B9002100
:101FE000054808F062F920B908BDFFF723FFFFF7A5
:101FF00021FFFFF71FFF00BF580E002000540040D4
:10200000A06E911008B51148114B0360114B43604D
:10201000002383600122C260036143618361C36165
:10202000036207F021FF50B90021084808F010F9B9
:1020300038B90021054808F038F920B908BDFFF784
:10204000F9FEFFF7F7FEFFF7F5FE00BF040E0020D4
:1020500000580040A06E911008B51148114B036064
:10206000114B4360002383600122C260036143611E
:102070008361C361036207F0F7FE50B9002108488D
:1020800008F0E6F838B90021054808F00EF920B943
:1020900008BDFFF7CFFEFFF7CDFEFFF7CBFE00BF79
:1020A000B00D0020005C0040A06E911008B51048F3
:1020B000104B03604FF482734360002383604FF43E
:1020C000E062C260036143614FF4007282611822D2
:1020D000C2610362436283620722C2620363082310
:1020E000436308F039FA00B908BDFFF7A3FE00BF4B
:1020F0004C0D00200030014008B51048104B036023
:102100004FF482734360002383604FF4E062C26047
:10211000036143614FF4007282611822C26103625D
:10212000436283620722C26203630823436308F0A9
:1021300013FA00B908BDFFF77DFE00BFE80C0020D0
:102140000034014008B50B480B4B03604FF41653A5
:10215000436000238360C36003610C22426183619A
:10216000C3610362436209F0B5FA00B908BDFFF725
:1021700061FE00BF140C00200050004008B50B4861
:102180000B4B03604FF4E133436000238360C36073
:1021900003610C2242618361C3610362436209F0FF
:1021A00099FA00B908BDFFF745FE00BF8C0B00206F
:1021B0000048004010B594B008AC30220021204601
:1021C00010F005FA002303930493059306930793F5
:1021D00007F056FC224B1A6C42F080521A641B6CBA
:1021E00003F080530193019B1E4B1A6842F4404256
:1021F0001A601B6803F440430293029B0123089377
:102200004FF48033099302230E934FF480020F9210
:10221000082210924FF4D87211921293092313934B
:10222000204606F0CDFCA8B907F032FCA0B90F2378
:10223000039302230493002305934FF4A0530693C2
:102240004FF480530793072103A806F041FF28B9F4
:1022500014B010BDFFF7EEFDFFF7ECFDFFF7EAFD50
:10226000003802400070004010B5A2B001AC8422DA
:102270000021204610F0ABF9064B01934FF080731C
:102280000F93204607F000F808B922B010BDFFF701
:10229000D1FD00BF100020002DE9F04F2DED0A8B7D
:1022A000ADF52F7DFEF754FD06F098FBFFF782FF9A
:1022B000FFF7DAFFFEF776FDFFF742FEFFF778FE45
:1022C000FFF7A0FEFFF7C8FEFFF7F0FE01F05AFA95
:1022D000FFF712FFFFF736FFFFF750FF01F0EAFDAF
:1022E000324803F0C3F9324808F074FCFEF71CFDD5
:1022F000304806F091FB304C00224021204607F088
:10230000A2FB2E4D01221021284607F09CFB6420E1
:1023100006F082FB01222021284607F094FB64206E
:1023200006F07AFB01224021204607F08CFB642056
:1023300006F072FBFEF73EFE20B14FF47A7006F015
:102340006BFBFAE705461E4C01228021204607F070
:102350007AFB642006F060FB01224FF48071204676
:1023600007F071FB642006F057FB01224FF4007167
:10237000204607F068FB642006F04EFB04F060F88E
:102380000895099530E028EEA87AF7EE007A77EE06
:10239000C77A28EE080A37EEC00A0BF083FEB1EECA
:1023A000400A084B83ED000A05E300BF8C0B0020B8
:1023B0009C0C002020BF02000014024000180240C4
:1023C000001002407C080020E34BC3ED008AE34B81
:1023D00083ED008AE24B83ED009A4FF4967006F08D
:1023E0001BFB089B01330893089B092B00F3858492
:1023F000DC4C204604F02CF8B4F9003007EE903A9B
:10240000F8EEE77ADFF8CCB3CBED007AB4F902301E
:102410000BEE903AF8EEEBBADFF8BCA3CAED00BAC7
:10242000B4F904300BEE103AB8EECBBADFF8AC9347
:1024300089ED00BA94ED029AB1EE499ADFF8A083D3
:1024400088ED009AD4ED038AF1EE688AC64FC7ED95
:10245000008AD4ED04AAC54AC2ED00AAB4F914302A
:1024600008EE103AB8EEC88AC14E86ED008AB4F97B
:10247000163009EE903AF8EEE99ABE4DC5ED009A95
:10248000B4F918300AEE103AB8EECAAABA4C84ED84
:1024900000AA17EE900AFEF767F8ABA3D3E9002372
:1024A000FEF7BAF8FEF790FB0CEE100ACBF800002E
:1024B0001BEE900AFEF758F8A3A3D3E90023FEF71A
:1024C000ABF8FEF781FB0BEE900ACAF800001BEE9A
:1024D000100AFEF749F89CA3D3E90023FEF79CF805
:1024E000FEF772FB0BEE100AC9F80000A34BD3ED08
:1024F000007A3CEE67CA8BED00CAD3ED017A7BEE21
:10250000E7BACAED00BAD3ED027A3BEE67BA89EDBD
:1025100000BADFED9B7A29EE279A88ED009A68EEE3
:10252000A78AC7ED008A6AEEA7AA904AC2ED00AA60
:10253000944BD3ED007A39EE679A88ED009AD3ED8B
:10254000017A78EEE78AC7ED008AD3ED027A7AEE57
:10255000E7AAC2ED00AA18EE100AFEF705F87AA362
:10256000D3E90023FEF758F8FEF72EFB08EE100A19
:10257000306019EE900AFDF7F7FF73A3D3E900234B
:10258000FEF74AF8FEF720FB09EE900A28601AEEE3
:10259000100AFDF7E9FF6CA3D3E90023FEF73CF82E
:1025A000FEF712FB07EE100A2060774BD3ED007A9E
:1025B00078EE677A754A92ED00AA27EE8AAAD3EDE3
:1025C000016A79EEE66A724A92ED006A26EE866A40
:1025D0003AEE06AA93ED026A37EE467A6D4B93ED1A
:1025E000006A27EE066A3AEE06AA6B4B83ED00AA54
:1025F0006A4BD3ED009A67EEA99A694B93ED006A96
:1026000026EE866A79EE869A664B93ED006A27EE8F
:10261000066A79EE869A644BC3ED009A634B93ED9C
:10262000006A27EE868A624BD3ED007A66EEA76ACF
:1026300038EE268A5F4BD3ED007A27EE277A38EE04
:10264000078A5D4B83ED008A86ED00AAC5ED009AEE
:1026500084ED008A6AEE0A7A29EEA97A77EE877A03
:1026600028EE080A37EE800A0BF01CFDCAEE007A4D
:10267000C6ED007AC9EE807AC5ED007AC8EE007A20
:10268000C4ED007A4D4B83ED00CA4D4BC3ED00BA4B
:102690004C4B83ED00BA4C4E86ED009A4B4FC7ED84
:1026A000008A4B4DC5ED00AA19EE100AFDF75CFF3C
:1026B00027A3D3E90023FDF7AFFFFEF785FA3060CB
:1026C00018EE900AFDF750FF21A3D3E90023FDF790
:1026D000A3FFFEF779FA38601AEE900AFDF744FF7F
:1026E0001BA3D3E90023FDF797FFFEF76DFA2860DF
:1026F000194B93ED008A1A4B93ED009AF0EE490ABC
:10270000B0EE480A0BF0CCFCDFF8D8B08BED000A35
:10271000124BD3ED008AF0EE490AB0EE680A0BF0D6
:10272000BFFCDFF8C4A08AED000AF0EE680AB0EE44
:10273000480A0BF0B5FCDFF8B49089ED000AFEF70B
:102740003FFD55E0AFF30080AF423811FEFF0F3F71
:10275000CAC342AD69DE913F9C0800209808002062
:10276000940800202C090020F0080020EC0800202C
:10277000E8080020E4080020E008002030000020E5
:102780000C007A3C240000201409002020000020C6
:102790001C00002010090020DC0800200C0900208B
:1027A0001800002008090020D80800200409002093
:1027B0001400002010000020D4080020CC080020C5
:1027C000C8080020C4080020C0080020BC08002061
:1027D000B808002000090020FC080020F8080020AC
:1027E000F4080020A8080020A4080020A008002069
:1027F0000446DD4B1860DFF8D083D8F80030C21AE9
:1028000008EE102AD94B1A60DBF80000FDF7ACFE89
:10281000CDE90401B8EEC88AD7ED007A68EE277AD0
:1028200017EE900AFDF7A0FECBA3D3E90023FDF736
:10283000F3FE02460B46DDE90401FDF737FDFEF726
:10284000C3F909EE100ACA4B1860DAF80000FDF768
:102850008BFE82468B46D6ED007A68EE277A17EE1D
:10286000900AFDF781FEBCA3D3E90023FDF7D4FE57
:1028700002460B4650465946FDF718FDFEF7A4F9EF
:1028800009EE900ABB4B1860D9F80000FDF76CFE0A
:1028900006460F46D5ED007A68EE277A17EE900AC5
:1028A000FDF762FEACA3D3E90023FDF7B5FE0246B7
:1028B0000B4630463946FDF7F9FCFEF785F9AE4B7D
:1028C0001860C8F80040B0EE490A0BF03DFD10EE6C
:1028D000100AFDF749FE04460D46B0EE490A0BF01A
:1028E0007BFC20EE008AB0EE690A0BF067FD28EE53
:1028F000008A68EE007A17EE900AFDF735FE002296
:102900009E4BFDF7D3FC41EC100B0BF09DFC53EC00
:10291000102B20462946FDF7A9FFFEF755F908EED2
:10292000900A974B1860B0EE690A0BF00DFD10EE9F
:10293000100AFDF719FE04460D46B0EE690A0BF0C9
:102940004BFC20EE008AB0EE490A0BF037FD28EE72
:10295000008A68EE007A17EE900AFDF705FE002265
:10296000864BFDF7A3FC41EC100B0BF06DFC53EC18
:10297000102B20462946FDF779FFFEF725F908EED2
:10298000100A804B1860804BD3ED007AF5EEC07AC8
:10299000F1EE10FAFFF6F7AC28EEA87AF7EE007A1F
:1029A00077EEC77A28EE080A37EEC00A0BF07AFBFA
:1029B000764B83ED000A764B1868FDF7D5FD0022B3
:1029C000744BFDF729FE04460D4618EE900AFDF7FC
:1029D000CBFD00226F4BFDF71FFE02460B46204643
:1029E0002946FDF763FCFEF7EFF808EE900A6A4B04
:1029F00018606A4B1868FDF7B7FD0022654BFDF7BC
:102A00000BFE04460D4618EE100AFDF7ADFD002240
:102A1000604BFDF701FE02460B4620462946FDF7B6
:102A200045FCFEF7D1F808EE100A5D4B18605D4BCF
:102A30001868FDF799FD0022564BFDF7EDFD0446A1
:102A40000D46524B1868FDF78FFD0022514BFDF7E4
:102A5000E3FD02460B4620462946FDF727FCFEF71C
:102A6000B3F809EE100A504B186028EEA8AA68EED9
:102A700008AA3AEE2A0A69EE099A30EE290A0BF002
:102A800011FB4A4B83ED000AB0EE6A0A0BF00AFB19
:102A900079EE800AB0EE680A0BF002FB9FED44BAB3
:102AA00060EE0B7A17EE900AFDF75EFD2CA3D3E9DA
:102AB0000023FDF7DBFEFEF787F804463D4B186068
:102AC000B0EE4A0A0BF0EEFA79EE800AB0EE480A50
:102AD0000BF0E6FA60EE0B7A17EE900AFDF744FD74
:102AE0001FA3D3E90023FDF7C1FEFEF76DF80546ED
:102AF000314B1860314B1868FDF736FD804689462A
:102B00002046FDF731FD16A3D3E90023FDF784FD30
:102B100000222B4BFDF7AAFE41EC1A0BB0EE4A0A3D
:102B2000F0EE6A0A0BF0C4FB54EC103B8DED040B85
:102B30001A46234640464946FDF76EFDCDE906019B
:102B4000204B1868FDF710FD82468B46B0EE4A0A0E
:102B5000F0EE6A0A3AE000BF8DEDB5A0F7C6B03ED0
:102B6000EA2E4454FB210940740800206C08002020
:102B7000B4080020B0080020AC0800200000F03F9E
:102B80008408002080080020940800207C08002091
:102B9000CC0800200000E03F90080020C80800207A
:102BA0008C080020C4080020880800207808002035
:102BB000000034432809002020090020E8080020F4
:102BC00000806640E0080020700800200BF02CFC1C
:102BD00057EC106B32463B4650465946FDF71CFDFC
:102BE00002460B46DDE90601FDF75EFBFDF7ECFF53
:102BF0000BEE900A2846FDF7B7FCC3A3D3E90023E8
:102C0000FDF70AFD0022C64BFDF730FE41EC1A0B22
:102C1000B0EE4A0AF0EE6A0A0BF006FC55EC104BD7
:102C200022462B4640464946FDF7F6FC02460B4637
:102C300030463946FDF7F0FC80468946B94B1868A6
:102C4000FDF792FC06460F46B0EE4A0AF0EE6A0A1D
:102C50000BF02EFB53EC102B30463946FDF7DCFC15
:102C600002460B4640464946FDF720FB06460F4606
:102C700022462B4650465946FDF7CEFC02460B46EF
:102C8000DDE90401FDF7C8FC02460B463046394633
:102C9000FDF70AFBFDF798FFF0EE6B0A00EE100A55
:102CA0000BF0FEF960EE0B7A17EE900AFDF75CFC74
:102CB00095A3D3E90023FDF7D9FD04460D469A4BB1
:102CC0001868FDF751FC02460B4620462946FDF7E1
:102CD000EBFAFDF779FF07EE900A944B1860F5EEDA
:102CE000C07AF1EE10FA7FF56FAB9FED917A77EE37
:102CF000877AC3ED007AFFF767BB099D27E08D480F
:102D000003F09AF907EE900AF8EEE77A9FED8A7AD7
:102D1000C7EE877A17EE900AFDF726FC9FED7C1B25
:102D200041EC100B0BF0E0F953EC102B0020834921
:102D3000FDF7BAFA78A3D3E90023FDF76DFCFDF7A0
:102D400043FF7F4B1860642005F066FE0135042DBB
:102D5000D5DD7C480FF00AFC7B480FF007FC7B4C6C
:102D60000121204605F024F905464FF4FA72114678
:102D7000204605F029FB0021204605F063FB0121D8
:102D8000204605F05FFB2DB1294671480FF086FB08
:102D9000FFF750F80DF2B6220DF2B7216B4805F09F
:102DA00071FA50B99DF8B7324BB16A499DF8B63205
:102DB0003BB1684A68480FF071FB002409E067499D
:102DC000F4E7664AF6E7654924E0644A64480FF090
:102DD00065FB9DF8B73213B19DF8B62202BB632C98
:102DE0001ED8642005F018FE0DF2B6220DF2B721B0
:102DF000564805F047FA01345A4BA3FB0423DB087D
:102E000003EB8303B4EB430FE3D19DF8B732002B00
:102E1000D9D050499DF8B632002BD6D04D4AD5E7CF
:102E20001BB19DF8B622002A5FD1002B67D049491B
:102E30009DF8B632002B64D0464A4B480FF02EFB6B
:102E40004FF40061494806F0F7FD002800F09E802D
:102E500001224FF48051464806F0F5FD40214348D9
:102E600006F0EAFD002800F0988001224FF400519E
:102E70003F4806F0E8FD00224FF400613D4806F0AF
:102E8000E2FD3D4C01224FF40061204606F0DBFDDF
:102E900001224FF48051204606F0D5FD4FF4FA7020
:102EA00005F0BAFD01224FF48061204606F0CBFD0B
:102EB0004FF4FA7005F0B0FDA3AC304E0FCE0FC446
:102EC0000FCE0FC496E8030084E803004FF47A7332
:102ED0002722A3A92A4808F0CDFAFEF7ADFFFEF796
:102EE00059FAFEF7C7FB2C4670E026480FF03EFB70
:102EF00025480FF03BFB154805F0A6F9A0E7174958
:102F000096E7164A99E700BFEA2E4454FB21094090
:102F10006C45D9CC955BC83F0000000040A5E5405A
:102F200000806640E40800200C00002024090020F6
:102F30000000B4435408002080E6C5470000F03F7D
:102F400050080020E84D0108104E010858070020E5
:102F5000484E0108F04B0108704E0108F84B01087B
:102F6000984E0108CDCCCCCC1C4F01080018024073
:102F700000140240000C024000100240604F0108A3
:102F80008C0B0020C04E0108E04E010800224FF4D7
:102F90008051994806F057FD60E700224FF4005138
:102FA000954806F050FD66E74FF47A70FEF7C6F8D4
:102FB000924E304602F020FD914B83ED000B3046DF
:102FC00002F0F2FC8F4B83ED000B0134092CEBDD9A
:102FD000002210218C4806F036FD2C4613E08A4E64
:102FE00001222021304606F02EFD4FF4FA70FEF744
:102FF000EDF800222021304606F025FD4FF4FA704E
:10300000FEF7E4F80134814B93ED007A804BD3ED69
:10301000007A27EE277ADFED7F6AC7EE267AFDEE8B
:10302000E77A17EE903AA342D9DC764BD3E900ABAE
:10303000734BD3E90089784B1E68784B1C6805F008
:10304000E5FCCDE99AABCDE99C899E969F94A09032
:103050009AA802F019FB724B93F85C30002BFAD05F
:10306000012208216F4806F0EEFC642005F0D4FC34
:10307000102303936C4B02932022019200930823A8
:1030800048226A496A4803F0DFFA08B9FEF7D2FE1F
:103090004FF480730393644B02934FF400720192D8
:1030A0000093082349226149624803F0CDFA08B928
:1030B000FEF7C0FE5E4E0021304603F0A3FA5D4CE1
:1030C0000021204603F09EFAFF21304603F081FAEA
:1030D000FF21204603F07DFA2C46072C07DC564BD7
:1030E0001A78E1B2524803F008FB0134F5E7072DE6
:1030F00007DC514B1A78E9B24E4803F0FEFA01356D
:10310000F5E7494C00222021204606F09CFC0022D5
:103110004FF40071204606F096FC012005F07CFC7F
:1031200001222021204606F08EFC01224FF400717E
:10313000204606F088FC142005F06EFC0122402198
:10314000314806F080FC0C230093802348223B4941
:103150003B4803F0F1F908B9FEF76CFE0C2300932D
:1031600080234A223549374803F0E6F9054608B17D
:1031700000241AE0FEF75EFE2146314803F073F9A1
:10318000314B1855FDF7DEF919A3D3E90023FDF7FC
:1031900043FA00222D4BFDF73FFAFDF715FD2C4BAE
:1031A00003EB840318600134E4B2072CE4D9002453
:1031B0001AE02146234803F056F9264B1855FDF72F
:1031C000C1F90BA3D3E90023FDF726FA04F10806A1
:1031D00000221E4BFDF720FAFDF7F6FC1C4B03EB1B
:1031E000860318600134E4B2072CE2D9002674E0AB
:1031F000811AB44DE7808A3F00140240B00A0020D3
:103200004808002040080020000C0240240900204B
:10321000040000200000B4435008002028090020CA
:10322000480900200018024000040240580E002007
:10323000280800201008002000000020040E0020B4
:1032400004080020F8070020F007002000001040CC
:10325000A8070020E80700200023002B3BD02346CE
:103260000134E4B2322B36D8934F3A78043AD2B2D2
:103270003A703146914803F040FA3146904803F0E5
:10328000F2F8904B9855FDF75DF985A3D3E900233B
:10329000FDF7C2F900228C4BFDF7BEF9FDF794FC57
:1032A0008A4B03EB860318603B78262BD4D9FDF7B5
:1032B0005BF97DA3D3E90023FCF7F6FF21F0004979
:1032C0007BA3D3E900234946FDF718FC08B12B4640
:1032D000C3E70023C1E70136F6B2072E04D8764BC8
:1032E0007E221A700024BAE7002642E00023002B59
:1032F0003DD023460134E4B2322B38D86E4F3A78B1
:10330000043AD2B23A703146714803F0F6F93146C8
:10331000704803F0A8F8704B9855FDF713F960A3B7
:10332000D3E90023FDF778F906F1080A0022664B7D
:10333000FDF772F9FDF748FC644B03EB8A03186054
:103340003B78262BD2D9FDF70FF957A3D3E90023F9
:10335000FCF7AAFF21F0004955A3D3E90023494611
:10336000FDF7CCFB08B12B46C1E70023BFE70136D0
:10337000F6B2072E04D8504B7E221A700024B8E70C
:10338000564C00224FF48051204606F05CFB0A2088
:1033900005F042FB01224FF48051204606F053FB1A
:1033A00001224FF40061204606F04DFB0C230093F0
:1033B000802349224A494B4803F0BEF808B9FEF77A
:1033C00039FD0023484A1360484A1370484A137075
:1033D0001DAC4FF4FA712046FEF77CFB2046FCF74B
:1033E00057FF81B2204600F0E5FD9EE000224FF439
:1033F00000613A4806F027FBFDF72EFF0FAE34467A
:103400003C4D0FCD0FC40FCD0FC40FCD0FC495E8A9
:10341000030044F8040B21703046FCF739FF4FF4E9
:103420007A7382B23146344808F024F814E0334C01
:103430004FF48051204606F00CFB4FF4005120461B
:1034400006F007FB4FF48041204606F002FB4FF4E4
:103450000041204606F0FDFA254B1B78002BE6D1F3
:103460006AE00DF2B6220DF2B721254804F00AFFFA
:103470009DF8B73213B19DF8B62242B963B1214924
:103480009DF8B63253B11F4A1F480FF007F805F0F8
:10349000BDFA1E4B186058E01D49F1E71C4AF3E7DE
:1034A000811AB44DE7808A3FE17A14AE47E1FA3FD2
:1034B0009A9999999999C93F0000002028080020FD
:1034C00004080020F007002000001040A80700209A
:1034D00010080020F8070020E8070020000C024038
:1034E000040E00201C050020F0040020F40400203D
:1034F000EC040020884F01088C0B002000140240CF
:1035000058070020F04B0108404F01082403002019
:10351000F84B0108012280216A4806F094FA05F070
:1035200075FA694B1860FDF7CBFF00F099F9FEF7CB
:10353000B7FA00283FF45AAF05F068FA624B1B68EF
:10354000C31A41F2883293428BD805F05FFA41F2F8
:1035500088339842E7D95D4C0021204602F083FF72
:1035600007EE900AF8EEE77A9FED598A67EE887ABF
:10357000584DC5ED007A0121204602F074FF07EE98
:10358000900AF8EEE77A67EE887A534BC3ED007A3B
:103590000221204602F067FF07EE900AF8EEE77A74
:1035A00067EE887A4D4BC3ED007A0321204602F086
:1035B0005AFF07EE900AF8EEE77A67EE887A484BF2
:1035C000C3ED007A0421204602F04DFF07EE900A79
:1035D000F8EEE77A67EE887A424BC3ED007A052170
:1035E000204602F040FF07EE900AF8EEE77A67EE19
:1035F000887A3D4BC3ED007A0621204602F033FF66
:1036000007EE900AF8EEE77A67EE887A374BC3ED5B
:10361000007A0721204602F026FF07EE900AF8EE16
:10362000E77A67EE887A324BC3ED007AD5ED006A0F
:10363000B3EE097AF4EEC76AF1EE10FA3FF76AAF1B
:10364000254BD3ED006AF4EEC76AF1EE10FA3FF7AE
:1036500061AF224BD3ED006AF4EEC76AF1EE10FAC7
:103660003FF758AF1E4BD3ED006AF4EEC76AF1EE98
:1036700010FA3FF74FAF1B4BD3ED006AF4EEC76A69
:10368000F1EE10FA3FF746AF174BD3ED006AF4EEB8
:10369000C76AF1EE10FA3FF73DAF144BD3ED006A65
:1036A000F4EEC76AF1EE10FA3FF734AFF4EEC77AE2
:1036B000F1EE10FA3FF72EAF00228021014806F00C
:1036C000C2F92CE7000C0240240300201C05002056
:1036D00012A5253F18050020140500201005002024
:1036E0000C0500200805002004050020000500202E
:1036F000FC04002010B504460068A168091A08B14E
:103700000AF0A7FC204610BD08B5FDF739FD08BD3D
:1037100008B5FDF74DFD08BD70B505460C4605F032
:1037200075F90646A1B2284600F044FC012806D1EE
:1037300005F06CF9831B322BF4D9002000E0012046
:1037400070BD00B586464FF0000C4FF6FF700FE0DD
:10375000400082B241F2210050400133072B05DCCA
:1037600010F4004FF4D1400080B2F6E70CF1010CE8
:103770008C4505D21EF80C3080EA03200023EDE7CB
:103780005DF804FB2DE9F04387B001AD00240194FE
:103790000294039404940594284B1A6B42F0080297
:1037A0001A631B6B03F008030093009B244E012255
:1037B0004FF40051304606F046F94FF400530193A0
:1037C0004FF00109CDF80890039402270497294689
:1037D000304606F02FF84FF48048CDF804804FF4BF
:1037E0008813029303972946304606F023F84FF4D6
:1037F00000430193029403972946304606F01AF8D5
:1038000022460621282005F05FF9282005F06CF9F2
:103810000C4D40F67302214628460EF0D8FE85F87E
:1038200000904146304606F007F9484514BF002095
:103830000120054B187007B0BDE8F0830038024046
:10384000000C024020170020A11F0020B0F5804F7F
:1038500000D07047014B01221A70FAE7A11F002027
:103860003C4B1B7803B9704730B583B0394B00220D
:103870001A704FF48041384806F0DEF804460128FB
:1038800001D003B030BD354B01221A7000224FF435
:103890000051314806F0D7F8142300931123304A21
:1038A0003049314806F0D0FF18BB2D4B5B78A52B73
:1038B00001D000251EE02A4B9B785A2B01D0002511
:1038C00018E0274A537B927B43EA0223202B00D93E
:1038D000202303EB430303F6120503F6020314222D
:1038E00000929BB2214A22491F4806F0ADFF0446D0
:1038F00000E0002501224FF40051174806F0A3F81C
:10390000164B00221A708CB91A4CA91E2046FFF7DC
:1039100018FF6B1E013CE25C635D43EA02239842A0
:1039200009D0154A136801331360AAE7134A1368D4
:1039300001331360A5E729460E48FFF7EDFE20B1DD
:103940000F4A1368013313609BE70C4A1368013375
:10395000136096E7A11F0020000C0240A01F00206A
:10396000AC0E0020201700204C0D0020BD0E0020C2
:1039700031170020AD0E0020941F0020981F00205A
:103980009C1F002082B00A4B1A6C42F080521A64CD
:103990001A6C02F080520092009A5A6C42F48042F3
:1039A0005A645B6C03F480430193019B02B070473F
:1039B000003802402DE9F043AFB0044600212991C0
:1039C0002A912B912C912D91842208A80EF0FFFDB5
:1039D0002368564A934208D0554A934231D0554AFB
:1039E000934259D02FB0BDE8F0834FF48043089341
:1039F00008A805F049FC08BB4F4C236B43F00203B9
:103A00002363236B03F002030193019BC0232993DB
:103A100012232A9300232B9303232C9304232D9307
:103A200029A9464805F006FF236C43F400132364DC
:103A3000236C03F400130293029BD3E7FEF7FAF919
:103A4000DAE74FF40043089308A805F01DFC00BB1B
:103A5000394C236B43F020032363236B03F02003D3
:103A60000393039B0323299312222A9200222B9271
:103A70002C9304232D9329A9314805F0DBFE236CF8
:103A800043F480032364236C03F480030493049BB6
:103A9000A8E7FEF7CFF9DBE74FF48033089308A8D7
:103AA00005F0F2FB00283DD1234C236B43F00403C7
:103AB0002363236B03F004030593059B236B43F0FF
:103AC00001032363236B03F001030693069B4FF46A
:103AD000007329934FF01209CDF8A8904FF0000819
:103AE000CDF8AC8003272C9704262D9629AD2946C6
:103AF000144805F09FFE4FF480732993CDF8A890E9
:103B0000CDF8AC802C972D9629460F4805F092FEF3
:103B1000236C43F400032364236C03F40003079332
:103B2000079B5FE7FEF786F9BEE700BF0054004041
:103B300000580040005C0040003802400004024091
:103B400000140240000802400000024000B58BB0A3
:103B50000023059306930793089309930368244A67
:103B6000934205D0234A934222D00BB05DF804FB68
:103B7000214B5A6C42F480525A645A6C02F48052BF
:103B80000192019A1A6B42F001021A631B6B03F057
:103B900001030293029BE023059302230693032370
:103BA00008930523099305A9144805F043FEDCE7B3
:103BB000114B5A6C42F400525A645A6C02F400528F
:103BC0000392039A1A6B42F010021A631B6B03F004
:103BD00010030493049B6423059302230693032399
:103BE00008930523099305A9054805F023FEBCE7C2
:103BF0000030014000340140003802400000024023
:103C0000001002400268094B9A4200D0704782B00F
:103C100003F59C335A6C42F001025A645B6C03F06A
:103C200001030193019B02B0704700BF00000140F7
:103C30002DE9F041ACB0044600212791289129914B
:103C40002A912B91842206A80EF0C1FC23683D4ADC
:103C5000934205D03C4A934247D02CB0BDE8F08156
:103C60004FF48063069306A805F00EFB002839D1B7
:103C7000364B1A6C42F480121A641A6C02F48012E9
:103C80000192019A1A6B42F004021A631A6B02F055
:103C900004020292029A1A6B42F008021A631B6B2A
:103CA00003F008030393039B4FF4805327934FF0D3
:103CB0000208CDF8A0800027299703262A96082518
:103CC0002B9527AC2146224805F0B4FD0423279309
:103CD000CDF8A08029972A962B9521461D4805F0FE
:103CE000A9FDBAE7FEF7A6F8C2E74FF48073069382
:103CF00006A805F0C9FA10BB144B1A6C42F48022D6
:103D00001A641A6C02F480220492049A1A6B42F02C
:103D100002021A631B6B03F002030593059B4FF429
:103D200040632793022328930023299303232A9394
:103D300007232B9327A9084805F07CFD8DE7FEF7A4
:103D400079F8D9E7005000400048004000380240B0
:103D500000080240000C024000040240FEE7FEE7BB
:103D6000FEE7FEE7FEE770477047704708B504F0CE
:103D700041FE08BD08B5024808F009F808BD00BFBB
:103D8000A436002008B54FF4804005F06BFE08BD56
:103D9000034AD2F8883043F47003C2F88830704781
:103DA00000ED00E00120704708B50EF09BFC1623E3
:103DB00003604FF0FF3008BD08B54FF0FF31FFF74B
:103DC000F3FFFEE770B50C461646002506E0AFF39C
:103DD0000080214601F8010B01350C46B542F6DBA7
:103DE000304670BD70B50C461646002504E014F848
:103DF000010BFDF71FFA0135B542F8DB304670BD07
:103E00004FF0FF3070474FF400534B600020704775
:103E1000012070470020704710B503460C4A0D4939
:103E20000D48006840B10C4800680344521A9342A0
:103E300006D8094A136010BD0748084C0460F2E731
:103E40000EF050FC0C2303604FF0FF30F3E700BF8F
:103E50000000052060040000A41F0020303D002069
:103E6000DFF834D0FFF794FF0C480D490D4A0023CA
:103E700002E0D458C4500433C4188C42F9D30A4A1F
:103E80000A4C002301E013600432A242FBD30EF07F
:103E90002FFCFEF701FA704700000520000000200B
:103EA000040300202864010808030020303D00209E
:103EB000FEE7000008B500220F49104809F05EF83F
:103EC00070B90F490D4809F070F860B90D490B48F9
:103ED0000AF063F850B9094809F087F848B908BDF5
:103EE000FDF7A8FFEDE7FDF7A5FFEFE7FDF7A2FF60
:103EF000F1E7FDF79FFFF2E790000020A81F0020E8
:103F0000F80000204800002000207047202813D02F
:103F1000212823D1124A13680B70C3F3072048707D
:103F2000C3F3074088701B0ECB7013790B71537964
:103F30004B7193798B7111E00B784A7843EA022335
:103F40008A7843EA0243CA7843EA0263044A136068
:103F50000B7913714B7953718B79937100207047F2
:103F6000400000200020704738B504460968FDF77E
:103F700057F9054D214628460AF028F828460AF048
:103F80004CF8002038BD00BFA81F002010B5064C1B
:103F90000022064920460AF00BF8054920460AF09F
:103FA00015F8002010BD00BFA81F002084220020AB
:103FB000842A00200A4BD3F8BC327BB1D3F81432E8
:103FC0000BB10120704710B5054C0A46014620464A
:103FD00009F0EEFF20460AF005F810BD03207047F7
:103FE000A81F002012230B80004870477C0000208F
:103FF00004230B8000487047780000200023934280
:104000001ED200B510E00CF1370C01F813C000010E
:104010004FEA430C0CF1010C4FF0000E01F80CE0DC
:104020000133DBB2934209D24FEA107CB0F1204F4A
:10403000E9D20CF1300C01F813C0E8E75DF804FB9D
:104040007047000038B50B4BD3F82004D3F8244454
:10405000D3F82834C01800D138BD074D08222946AE
:10406000FFF7CCFF042205F110012046FFF7C6FF41
:10407000F2E700BF00F0F01F5E00002008B51A2331
:104080000B80FFF7DFFF014808BD00BF5C00002088
:1040900010B50A46034C2146034809F0F6FC2046B9
:1040A00010BD00BF843200205851010810B50A46E7
:1040B000034C2146034809F0E8FC204610BD00BF30
:1040C000843200208051010810B50A46034C214675
:1040D000034809F0DAFC204610BD00BF84320020FE
:1040E0009851010810B50A46034C2146034809F0CF
:1040F000CCFC204610BD00BF84320020A451010832
:10410000032805D8DFE800F0050402050120704708
:104110000320704710B588B00023039304930593E0
:10412000069307930368B3F1A04F01D008B010BD08
:1041300003AA194C236B43F001032363236B03F0A1
:1041400001030093009B4FF4C05303930223049395
:10415000032306930A2307931146104805F06AFBD0
:10416000636B43F080036363636B03F0800301932D
:10417000019B636C43F480436364636C03F480438A
:104180000293029B00221146432004F09DFC432031
:1041900004F0AAFCCAE700BF003802400000024059
:1041A00008B500F29C41D0F8DC0408F034FF08BDEB
:1041B00008B501EBC10300EB8303D3F86022D0F80C
:1041C000DC0408F0F6FF08BD08B501EBC10300EB05
:1041D00083031A6AD0F8DC0409F04EF808BD08B56C
:1041E000D0F8DC0408F093FF08BD10B50446C3798D
:1041F000022B09D10121D4F8DC0408F06BFFD4F8BC
:10420000DC0408F034FF10BDFDF714FEF2E70000F7
:1042100010B50446D0F8DC0408F05FFF2268D2F83D
:10422000003E43F00103C2F8003EE37A23B1034AA3
:10423000136943F00603136110BD00BF00ED00E0F9
:1042400008B5D0F8DC0408F056FF08BD08B5D0F872
:10425000DC0408F082FF08BD08B5D0F8DC0408F0E3
:1042600066FF08BD08B5D0F8DC0408F08CFF08BD77
:1042700008B5D0F8DC0408F088FF08BD02780AB160
:104280000020704710B503461548C0F8DC34C3F869
:10429000C8024FF0A0430360062303710222C271DB
:1042A0000023837142728372C37203738373C37377
:1042B00007F0A9FA80B90A4C8021204608F08DF851
:1042C00040220021204608F062F880220121204689
:1042D00008F05DF8002010BDFDF7ACFDEBE700BF76
:1042E000A436002008B5D0F8C80207F015FBFFF788
:1042F00007FF08BD08B594461A466346D0F8C802C1
:1043000007F0DDFBFFF7FCFE08BD08B5D0F8C802DA
:1043100007F01BFCFFF7F4FE08BD08B5D0F8C80293
:1043200007F09EFCFFF7ECFE08BD08B5D0F8C80208
:1043300007F0D9FCFFF7E4FE08BDD0F8C83211F051
:10434000800F08D101F07F0101EBC10103EB810374
:1043500093F85602704701F07F0101EBC10103EBB6
:104360008103987D704708B5D0F8C80207F094FB28
:10437000FFF7C6FE08BD08B5D0F8C80207F04BFC31
:10438000FFF7BEFE08BD08B5D0F8C80207F015FC5F
:10439000FFF7B6FE08BD08B5D0F8C80207F032FC3A
:1043A00008BD00000048704784340020704708B5FD
:1043B0000022826580F85C20C0F8602180F86421CA
:1043C00000F0D2F808BD10B5044600F019F92046F7
:1043D000FFF7EDFF204610BD2DE9F0410646D0F86D
:1043E0006001C0F58074944228BF144606F15D0751
:1043F000224638440EF0B0F9D6F860512544C6F88C
:10440000605196F86481B8F1000F17D1002400E0E4
:104410000134022D0BD9E31C9D4208D303222F49FE
:1044200038190EF0ABF80028F2D14FF00108B8F1BE
:10443000000F15D04CB9012386F86431D6F860819D
:10444000B8F1490F3AD8BDE8F0812A1B391938462E
:104450000EF0A4F8D6F860311B1BC6F86031EAE70D
:104460002C46022D28BF02240DB1022D02D8C6F819
:104470006041E8E7291B2246394438460EF08EF8A1
:10448000F5E70023C6F8603186F86431012218E0B0
:104490000134E51CA84513D30322114938190EF045
:1044A0006DF80028F4D12A463946304600F0E4F988
:1044B00002460028E5D00223B36502E00324E8E7C2
:1044C0000022D6F86031FF2BBDD9002ABBD10023D2
:1044D000C6F8603186F86431B5E700BFB451010811
:1044E000B85101082DE9F04182B0154B0193032A20
:1044F0001BD980460F4616460024251DB54214D808
:1045000004220DEB020138190EF038F808B101341D
:10451000F3E7012388F85C30C8F858300023C8F866
:10452000603188F86431B54202D302B0BDE8F08151
:10453000321B043A79194046FFF74EFFF5E700BFFA
:10454000172E9EED002A18BF00290AD008B5836DEA
:1045500023B1012B04D1FFF73FFF01E0FFF7C2FFBA
:1045600008BD7047000000001BA3D3E90023C0E989
:1045700000231BA3D3E90023C0E902231AA3D3E934
:104580000023C0E904232023836119A3D3E9002376
:10459000C0E9082318A3D3E90023C0E90A230022B5
:1045A0000B4BC0E90C2300220A4BC0E90E2306A3E3
:1045B000D3E90023C0E91023C0E91223012380F8C6
:1045C00050307047AFF3008000000000006AE84000
:1045D00000408F4000409F40000000205FA002424A
:1045E000691D554D1075FF3E8DEDB5A0F7C6A03E77
:1045F00000000000D012634100000000389C7C41A4
:1046000010B50446FFF7B0FF204610BD00000000C3
:104610002DE9D0430446D0E9006775A3D3E9002310
:1046200030463946FCF76AFA002840F0AA8072A3A7
:10463000D3E9002330463946FCF77EFA002840F0E3
:10464000A380D4E902676EA3D3E90023304639463C
:10465000FCF754FA002840F099806BA3D3E90023BB
:1046600030463946FCF768FA002840F09180D4E9DA
:10467000046767A3D3E9002330463946FCF73EFAC6
:10468000002840F0878064A3D3E9002330463946F0
:10469000FCF752FA00287FD1A369013BFF2B7DD89C
:1046A000D4E908675EA3D3E9002330463946FCF716
:1046B00025FA002874D15CA3D3E90023304639469B
:1046C000FCF73AFA00286DD1D4E90A8942464B46F4
:1046D00030463946FCF726FA002865D152A3D3E9C3
:1046E000002340464946FCF727FA00285ED1D4E96A
:1046F0000C6700223C4B30463946FCF7FFF9002896
:1047000056D133A3D3E9002330463946FCF714FAD7
:1047100000284FD1D4E90E670022334B304639468A
:10472000FCF7ECF9002847D129A3D3E90023304650
:104730003946FCF701FA002840D1D4E9106700227D
:10474000294B30463946FCF7D9F9C8BB22A3D3E937
:10475000002330463946FCF7EFF998BBD4E91267DD
:104760000022224B30463946FCF7C8F960BB1CA337
:10477000D3E9002330463946FCF7DEF930BB01208F
:1047800000E00020BDE8D0830020FBE70020F9E72F
:104790000020F7E70020F5E70020F3E70020F1E72D
:1047A0000020EFE70020EDE70020EBE70020E9E73D
:1047B0000020E7E70020E5E70020E3E70020E1E74D
:1047C0000020DFE70020DDE70020DBE70020D9E75D
:1047D000000000000088C34000000000006AF840AC
:1047E00000000000006A08410000594000408F406E
:1047F0000000000065CDCD41000000E8764837425A
:104800008DEDB5A0F7C6B03EFCA9F1D24D62503F88
:1048100048AFBC9AF2D77A3EF168E388B5F8E43E37
:104820000000000080842E410000000084D79741E2
:10483000002000220023072810DC00B54FEA032CDB
:104840004CEA126C11F800E04EEA02226346013095
:104850000728F3DD43EC102B5DF804FB43EC102B31
:1048600070470023184603E0CA5C42EA0020013387
:10487000032BF9DD70470000F8B50446002918BF86
:10488000492A94BF012700275BD90D46164603220B
:10489000324928460DF072FE002857D1033E03220C
:1048A0002F49A8190DF06AFE002853D1E91C2046B3
:1048B000FFF7BEFF84ED000B05F10B012046FFF76B
:1048C000B7FF84ED020B05F113012046FFF7B0FF9F
:1048D00084ED040B05F11B012046FFF7C2FFA06128
:1048E00005F11F012046FFF7A3FF84ED080B05F13A
:1048F00027012046FFF79CFF84ED0A0B05F12F01ED
:104900002046FFF795FF84ED0C0B05F1370120469B
:10491000FFF78EFF84ED0E0B05F13F012046FFF7F8
:1049200087FF84ED100B05F147012046FFF780FF5C
:1049300084ED120B2046FFF76BFE074684F850000B
:1049400002E0002780F850703846F8BD002384F854
:104950005030F9E7002384F85030F5E7B4510108EE
:10496000B851010810B5084C01221146204605F047
:104970006AF801220221204605F065F8012204218F
:10498000204605F060F810BD0018024008B501226D
:104990004FF40051014805F056F808BD00100240E0
:1049A00082B001EB81014900019100E000BF019B51
:1049B0005A1E0192002BF9D102B0704710B582B097
:1049C0001C4652B14FF47A730093A3B2074805F026
:1049D0003BFF48B9204602B010BD4FF47A73A2B233
:1049E000024805F02DFEF4E70020F4E74C0D00200E
:1049F00008B5436900691B1AB1EBA30F09D2064B36
:104A000053F8310003EBC10399881AB1002205F075
:104A10001AF808BD0122FAE76058010830B583B0E2
:104A200004460D469DF81810F9B108218DF80410C0
:104A30009DF80410C2F3042001438DF804108DF892
:104A400005208DF80630012229462046FFF7D0FFC9
:104A50000323002201A92046FFF7B0FF00222946C8
:104A60002046FFF7C5FF03B030BD016951F825109E
:104A70000978490101F060018DF80410D8E7F0B51C
:104A800083B0054611B17F27002420E02027FBE7F3
:104A9000002600963B46292221462846FFF7BEFF06
:104AA00000963B462A2221462846FFF7B7FF00968C
:104AB0003B462B2221462846FFF7B0FF00963B4697
:104AC0002C2221462846FFF7A9FF0134E4B26B6986
:104AD0002A699B1AB4EBA30FDAD303B0F0BD70B50B
:104AE00082B0054611B1302600240BE00026FBE71A
:104AF0000023009333462D2221462846FFF78EFFE0
:104B00000134E4B26B692A699B1AB4EBA30FEFD3AB
:104B100002B070BD10B50446017011B93223436074
:104B200010BD0A234360FFF71DFF2046FFF72EFF4D
:104B300001212046FFF7A3FF01212046FFF7CFFF09
:104B4000EEE72DE9F04385B005460E4617460DF118
:104B50000C080024ADF80C408DF80E400DF108094A
:104B6000ADF808408DF80A40009418232246FFF75C
:104B700055FF2B6953F826301B785B0103F0600367
:104B800043F080038DF80C3043EA17238DF80C3086
:104B90008DF80D708DF80E40012231462846FFF742
:104BA00027FF03234A4641462846FFF707FF2246D0
:104BB00031462846FFF71CFF009423462246314623
:104BC0002846FFF72BFF9DF80A0005B0BDE8F083EB
:104BD000436902699B1AB1EBA30F01D30020704710
:104BE00030B583B004460D4600230093A5230A2266
:104BF000FFF714FF012003F00FFF0A222946204689
:104C0000FFF79FFFA52814BF0020012003B030BD8F
:104C100038B50546002401E00134E4B26B692A6925
:104C20009B1AB4EBA30F07D221462846FFF7D0FF0B
:104C300003460028F0D100E00123184638BDF0B546
:104C400083B004460D4616461F46FFF77AFF012241
:104C500002FA07F303439DF820200092DBB23246AC
:104C600029462046FFF7DAFE03B0F0BDF0B583B069
:104C700004460D4616461F46FFF763FF4FF0010C32
:104C80000CFA07FC6FEA0C0C4FFA8CFC00EA0C03E0
:104C90009DF820200092DBB2324629462046FFF7DD
:104CA000BDFE03B0F0BD00B583B042B10023009358
:104CB00002233122FFF7C3FF03B05DF804FB00239A
:104CC000009302233122FFF7D1FFF5E770B50546C7
:104CD0000E46002406E0324621462846FFF7E3FF51
:104CE0000134E4B26B6928691B1AB4EBA30FF2D349
:104CF00069682846FFF754FE70BD10B504460121CF
:104D0000FFF7E4FF03F082FE4FF47A7303FB00F039
:104D1000E06010BD10B504460021FFF7D7FF03F097
:104D200075FE4FF47A7303FB00F0E06010BD0000E5
:104D300070B596B004460CAD644E0FCE0FC50FCEC5
:104D40000FC596E8030045F8040B29804FF47A73E9
:104D500025220CA95E4806F08DFB5E4D01224FF422
:104D60000041284604F06FFE012003F055FE0122A9
:104D70004FF48041284604F066FE012003F04CFE0B
:104D800000212046FFF7A2FF012003F045FE002589
:104D900010E00026009633462D2229462046FFF7D4
:104DA0003DFE009633464A2229462046FFF736FE4E
:104DB0000135EDB2636922699B1AB5EBA30FE8D305
:104DC00000224FF40051434804F03DFE022003F05E
:104DD00023FE00251EE0002600965D232922294699
:104DE0002046FFF71BFE00965D232A222946204617
:104DF000FFF714FE00965D232B2229462046FFF77D
:104E00000DFE00965D232C2229462046FFF706FE64
:104E10000135EDB2636922699B1AB5EBA30FDAD3B2
:104E20000A2003F0F9FD2C4D01221146284604F01A
:104E30000AFE01220221284604F005FE0122042177
:104E4000284604F000FE322003F0E6FD00251EE0B7
:104E5000002600960D23292229462046FFF7DEFD75
:104E600000960D232A2229462046FFF7D7FD0096FB
:104E70000D232B2229462046FFF7D0FD00960D2357
:104E80002C2229462046FFF7C9FD0135EDB26369A2
:104E900022699B1AB5EBA30FDAD30A2003F0BCFDFD
:104EA00002AC0E4D0FCD0FC40FCD0FC495E803001B
:104EB00044F8040B21704FF47A73242202A90448A9
:104EC00006F0D8FA012016B070BD00BFBC51010831
:104ED0008C0B00200010024000180240E451010831
:104EE00070B582B00446002977D10121FFF7EEFEAC
:104EF00000224FF40051754804F0A5FD052003F091
:104F00008BFD002508E0002300932D222946204632
:104F1000FFF784FD0135EDB2636922699B1AB5EB99
:104F2000A30FF0D3052003F077FD694D0122114650
:104F3000284604F088FD01220221284604F083FD62
:104F400001220421284604F07EFD0A2003F064FDBE
:104F500000251EE0002600967F23292229462046B0
:104F6000FFF75CFD00967F232A2229462046FFF7A3
:104F700055FD00967F232B2229462046FFF74EFD44
:104F800000967F232C2229462046FFF747FD013556
:104F9000EDB2636922699B1AB5EBA30FDAD3052042
:104FA00003F03AFD002510E000260096022331228E
:104FB00029462046FFF743FE009605233022294666
:104FC0002046FFF73CFE0135EDB2636922699B1A6A
:104FD000B5EBA30FE8D302B070BD0021FFF776FE5A
:104FE0003B4D00220121284604F02DFD0022022124
:104FF000284604F028FD00220421284604F023FD61
:10500000052003F009FD00251EE000260096202360
:10501000292229462046FFF701FD009620232A2257
:1050200029462046FFF7FAFC009620232B2229462A
:105030002046FFF7F3FC009620232C222946204629
:10504000FFF7ECFC0135EDB2636922699B1AB5EB01
:10505000A30FDAD3052003F0DFFC01224FF4005147
:105060001A4804F0F0FC0A2003F0D6FC002509E001
:105070000023009330232D2229462046FFF7CEFC43
:105080000135EDB2636922699B1AB5EBA30FEFD32B
:10509000052003F0C1FC002510E000260096022345
:1050A000312229462046FFF7E1FD009604233022F5
:1050B00029462046FFF7C3FD0135EDB26369226939
:1050C0009B1AB5EBA30FE8D385E700BF00100240A1
:1050D0000018024070B582B006460121FFF700FFBC
:1050E000002415E0002500952B462F22214630464E
:1050F000FFF794FC00950F232E2221463046FFF740
:105100008DFC336953F8243001225A601444E4B210
:10511000736932699B1AB4EBA30FE3D30120F061EA
:1051200002B070BD70B582B004460D46036953F8F5
:1051300021301B785B0103F060038DF804300026FA
:105140008DF8056081238DF806300122FFF750FCB1
:105150000323324601A92046FFF730FC3246294698
:105160002046FFF745FC02B070BD00B583B0009348
:1051700013460022FFF752FC03B05DF804FB00B5B4
:1051800083B0009260233822FFF748FC03B05DF83B
:1051900004FB436902699B1AB1EBA30F01D3002002
:1051A000704730B583B004460D46FFF7BBFF0A20B9
:1051B00003F032FC0023182229462046FFF7D5FFD2
:1051C000002229462046FFF7DAFF002300936023E0
:1051D000322229462046FFF721FC236953F8253067
:1051E0000120587003B030BD2DE9F04182B0054672
:1051F0000E469DF8207003F07F03124C14F80380D4
:1052000002F0030C0CF10A024FEA4C0C0CF11504ED
:105210000097DFF834C01CF803305200FFF7FEFBA4
:1052200000974346224631462846FFF7F7FB009792
:105230000123282231462846FFF7F0FB02B0BDE8E3
:10524000F08100BF60570108E05701082DE9F041E7
:1052500082B005460E469DF8207003F07F03124C85
:1052600014F8038002F0030C0CF110024FEA4C0C0E
:105270000CF121040097DFF834C01CF80330520011
:10528000FFF7CCFB00974346224631462846FFF7FE
:10529000C5FB00970123282231462846FFF7BEFBB5
:1052A00002B0BDE8F08100BF60570108E057010877
:1052B0002DE9F04182B080460F46164600251BE0DE
:1052C000621C00210091D2B229464046FFF78CFFB4
:1052D0000134E4B2032C0DD804EB8503FB5C002EF3
:1052E000EED1621C00210091D2B229464046FFF760
:1052F000ADFFEDE70135EDB2032D01D80024E9E75C
:10530000012002B0BDE8F08170B582B005460E46BE
:10531000144600922D233622FFF780FB00940623CB
:10532000372231462846FFF779FB009402232822D2
:1053300031462846FFF772FB02B070BD70B582B0EF
:1053400005460021FFF7CCFD002419E00026009659
:1053500033462E2221462846FFF760FB00960F2396
:105360002F2221462846FFF759FB32462146284680
:10537000FFF7CAFF2B6953F824305E600134E4B2B2
:105380006B692A699B1AB4EBA30FDFD30023EB618F
:10539000012002B070BD38B50546002401E001349B
:1053A000E4B26B692A699B1AB4EBA30F07D22146BA
:1053B0002846FFF7EEFE03460028F0D103E028461A
:1053C000FFF7BCFF0123184638BD30B583B0044653
:1053D0000D46009270233222FFF720FB322229462D
:1053E0002046FFF7AEFB10F0010FF7D0332229461D
:1053F0002046FFF7A6FB03B030BD000008B54369A7
:1054000002699B1AB1EBA30F16D252F821305B78D8
:1054100013B99FED0B0A11E00022FFF7D6FF00EE53
:10542000100AB8EEC00AF6EE007A20EE270ADFED89
:10543000057A30EE670A01E09FED010A08BD00BF62
:10544000339388C30000484210B504460068A16841
:10545000091A08B108F0FDFD204610BD38B5044614
:105460000D460C2008F0F7FD2B78037000234370E5
:1054700001224260024A826023602060204638BDDB
:105480000000C84110B50446006810B10C2108F0B6
:10549000E0FD00232360204610BD70B50646046879
:1054A000456803E02046FFF7EDFF0434A542F9D13B
:1054B0003046FFF7C9FF304670BD10B504462C30AA
:1054C000FEF718F904F12000FEF714F904F11000BA
:1054D000FFF7E3FF204610BD10B50446006818B181
:1054E0006168890008F0B5FD204610BD40680438A9
:1054F000704738B5034644680068A4EB000C4FEAD7
:10550000AC056FF0604EAEEBAC0C8C450CD38D420D
:1055100000D3294648191B68E41AB0EBA40F06D340
:10552000B0F1005F06D238BD104608F0ABFD6FF059
:105530006040F8E76FF06040F5E708B5B1F1005F53
:1055400003D2880008F087FD08BDB1F1804F01D378
:1055500008F095FD08F090FD2DE9F04784B006466F
:105560000C461D4A0121FFF7C4FF8046D6F8009083
:10557000D6F804A0AAEB0905002201463046FFF741
:10558000DCFF07460190CDF808800396236843515D
:105590000023236005464C4608E0236845F8043B99
:1055A000002323602046FFF76DFF0434A245F4D1A9
:1055B0000435CDF80490B368A3EB09039B10029364
:1055C00001A8FFF789FF3760756007EB8807B760B0
:1055D00004B0BDE8F08700BF0C52010810B50446C6
:1055E0004368826893420AD00A681A6000230B60FD
:1055F0004368043343602046FFF778FF10BDFFF790
:10560000ABFFF8E770B582B0064600230370322284
:10561000426064228260C36003614361836101224E
:10562000C261036243628362C3620363436380F8BF
:10563000383080F83930C363009310E006F110056C
:1056400001AC69462046FFF709FF21462846FFF7CF
:10565000C5FF2046FFF716FF009B01330093009B18
:10566000032BEBDD304602B070BD000008B5044BE3
:1056700018602022002103480CF0A9FF08BD00BFDC
:10568000A83B0020883B0020424B1B68002B7FD0AA
:1056900010B588B047238DF8003050238DF80130C5
:1056A00053238DF8023042238DF803300468D0F87C
:1056B00004E0002215E0C2F10703DB00C3F1200C77
:1056C000A3F1200124FA03F30EFA0CFC43EA0C03C5
:1056D0002EFA01F10B4302F12401694401F8203C48
:1056E0000132072AE7DD8468D0F80CE0002215E0DB
:1056F000C2F10703DB00C3F1200CA3F1200124FA5F
:1057000003F30EFA0CFC43EA0C032EFA01F10B43EF
:1057100002F12C01694401F8203C0132072AE7DD3F
:10572000046900220AE0C2F10303DB0024FA03F358
:1057300002F13401694401F8203C0132032AF2DD10
:10574000406900220AE0C2F10303DB0020FA03F300
:1057500002F13801694401F8203C0132032AF2DDEC
:1057600000231A4607E003F12001694411F8201CC8
:105770000A4492B201331B2BF5DD130A8DF81C305D
:105780008DF81D201E216846FEF714FC08B010BDE0
:10579000704700BFA83B0020002202704270828048
:1057A000826002730282426102768283026280F822
:1057B00024200285C26280F83020302180F8341025
:1057C0004E2180F8361080F83C2080F83D2002649D
:1057D00080F84C2080F84D20026580F85C2080F82D
:1057E0005D20426680F86C2080F86D20426780F86A
:1057F0007C2080F87D20C0F8842080F88C2080F800
:105800008D20C0F8942080F89C2080F89D20C0F85E
:10581000A42080F8AC2080F8AD20022180F8BD10D3
:1058200080F8BE2080F8BF2080F8C020C0F8C420D7
:10583000C0F8C820C0F8CC20C0F8D020C0F8D420D0
:10584000C0F8D82080F8AE207047A1F14103DBB248
:10585000052B07D9A1F16103DBB2052B05D8A1F116
:1058600057007047A1F137007047A1F13000704731
:1058700038B5044605782D2D06D020460BF05BFF89
:10588000642303FB00F002E00134F6E701342378DF
:10589000A3F13002092AF9D92E2B02D02D2D10D0D8
:1058A00038BD6378A3F13002092AF7D802EB8203EE
:1058B00000EB4300A378A3F13002092AEED810448C
:1058C000ECE74042ECE7000038B504460D460BF02B
:1058D00032FF194AA2FB00325309642101FB130372
:1058E0009BB2164901FB03F3C2F34F122A8000E07A
:1058F00001342278A2F130010929F9D92E2A18D0D1
:1059000003EB830301330E4AA2FB03235B086B60A6
:1059100000232B7238BD0B48A0FB0101C908303AA7
:1059200001FB023314F8012FA2F130000928F2D94B
:10593000E6E70249F6E700BF1F85EB518096980025
:10594000ABAAAAAACDCCCCCC10B50446C269036AD6
:105950004260836090F824300373826AC36A0261F4
:10596000436190F83030037690F8353080F8343069
:1059700090F8373080F8363003F048F8A063012300
:105980006370237010BD08B50B4600F11C0118466A
:10599000FFF79AFF08BD08B50B4600F1280118462D
:1059A000FFF792FF08BD0000D0B504460023437006
:1059B0008088FAF7C7FD06460F46A068FAF7B2FDE1
:1059C0000BA3D3E90023FAF751FF02460B463046FA
:1059D0003946FAF76BFC41EC100B237B33B10246DE
:1059E00010EE901A01F1004343EC102BD0BD00BF24
:1059F0000000000065CDCD41D0B5044600234370C2
:105A0000008AFAF79FFD06460F466069FAF78AFD9D
:105A10000BA3D3E90023FAF729FF02460B463046D1
:105A20003946FAF743FC41EC100B237E33B10246B2
:105A300010EE901A01F1004343EC102BD0BD00BFD3
:105A40000000000065CDCD4110B504468368436079
:105A500002F0DCFFE06001236370237010BD10B51D
:105A600004468368436002F0D1FFE0600123637065
:105A7000237010BD10B504460846FFF7F9FEA0607C
:105A800010BD10B5044608460BF055FEA06010BDD1
:105A900010B50446C368836002F0B8FF606001235C
:105AA0006370237010BD10B504460846FFF7E0FE92
:105AB000E06010BD10B50446C368836002F0A6FF25
:105AC000606001236370237010BD10B50446084662
:105AD0000BF031FEE06010BD10B5044601461030F9
